{
  "_format": "hh-sol-artifact-1",
  "contractName": "ethAge",
  "sourceName": "contracts/ethAge.sol",
  "abi": [
    {
      "inputs": [
        {
          "internalType": "string",
          "name": "_name",
          "type": "string"
        },
        {
          "internalType": "string",
          "name": "_symbol",
          "type": "string"
        },
        {
          "internalType": "string",
          "name": "_metadataFolderURI",
          "type": "string"
        },
        {
          "internalType": "uint256",
          "name": "_freeMints",
          "type": "uint256"
        }
      ],
      "stateMutability": "nonpayable",
      "type": "constructor"
    },
    {
      "anonymous": false,
      "inputs": [
        {
          "indexed": true,
          "internalType": "address",
          "name": "owner",
          "type": "address"
        },
        {
          "indexed": true,
          "internalType": "address",
          "name": "approved",
          "type": "address"
        },
        {
          "indexed": true,
          "internalType": "uint256",
          "name": "tokenId",
          "type": "uint256"
        }
      ],
      "name": "Approval",
      "type": "event"
    },
    {
      "anonymous": false,
      "inputs": [
        {
          "indexed": true,
          "internalType": "address",
          "name": "owner",
          "type": "address"
        },
        {
          "indexed": true,
          "internalType": "address",
          "name": "operator",
          "type": "address"
        },
        {
          "indexed": false,
          "internalType": "bool",
          "name": "approved",
          "type": "bool"
        }
      ],
      "name": "ApprovalForAll",
      "type": "event"
    },
    {
      "anonymous": false,
      "inputs": [
        {
          "indexed": true,
          "internalType": "address",
          "name": "previousOwner",
          "type": "address"
        },
        {
          "indexed": true,
          "internalType": "address",
          "name": "newOwner",
          "type": "address"
        }
      ],
      "name": "OwnershipTransferred",
      "type": "event"
    },
    {
      "anonymous": false,
      "inputs": [
        {
          "indexed": true,
          "internalType": "address",
          "name": "from",
          "type": "address"
        },
        {
          "indexed": true,
          "internalType": "address",
          "name": "to",
          "type": "address"
        },
        {
          "indexed": true,
          "internalType": "uint256",
          "name": "tokenId",
          "type": "uint256"
        }
      ],
      "name": "Transfer",
      "type": "event"
    },
    {
      "inputs": [
        {
          "internalType": "address",
          "name": "to",
          "type": "address"
        },
        {
          "internalType": "uint256",
          "name": "tokenId",
          "type": "uint256"
        }
      ],
      "name": "approve",
      "outputs": [],
      "stateMutability": "nonpayable",
      "type": "function"
    },
    {
      "inputs": [
        {
          "internalType": "address",
          "name": "owner",
          "type": "address"
        }
      ],
      "name": "balanceOf",
      "outputs": [
        {
          "internalType": "uint256",
          "name": "",
          "type": "uint256"
        }
      ],
      "stateMutability": "view",
      "type": "function"
    },
    {
      "inputs": [],
      "name": "freeMints",
      "outputs": [
        {
          "internalType": "uint256",
          "name": "",
          "type": "uint256"
        }
      ],
      "stateMutability": "view",
      "type": "function"
    },
    {
      "inputs": [
        {
          "internalType": "uint256",
          "name": "tokenId",
          "type": "uint256"
        }
      ],
      "name": "getApproved",
      "outputs": [
        {
          "internalType": "address",
          "name": "",
          "type": "address"
        }
      ],
      "stateMutability": "view",
      "type": "function"
    },
    {
      "inputs": [],
      "name": "getBalance",
      "outputs": [
        {
          "internalType": "uint256",
          "name": "",
          "type": "uint256"
        }
      ],
      "stateMutability": "view",
      "type": "function"
    },
    {
      "inputs": [
        {
          "internalType": "address",
          "name": "owner",
          "type": "address"
        },
        {
          "internalType": "address",
          "name": "operator",
          "type": "address"
        }
      ],
      "name": "isApprovedForAll",
      "outputs": [
        {
          "internalType": "bool",
          "name": "",
          "type": "bool"
        }
      ],
      "stateMutability": "view",
      "type": "function"
    },
    {
      "inputs": [],
      "name": "isMintFree",
      "outputs": [
        {
          "internalType": "bool",
          "name": "",
          "type": "bool"
        }
      ],
      "stateMutability": "view",
      "type": "function"
    },
    {
      "inputs": [],
      "name": "metadataFolderURI",
      "outputs": [
        {
          "internalType": "string",
          "name": "",
          "type": "string"
        }
      ],
      "stateMutability": "view",
      "type": "function"
    },
    {
      "inputs": [],
      "name": "mint",
      "outputs": [],
      "stateMutability": "payable",
      "type": "function"
    },
    {
      "inputs": [],
      "name": "mintActive",
      "outputs": [
        {
          "internalType": "bool",
          "name": "",
          "type": "bool"
        }
      ],
      "stateMutability": "view",
      "type": "function"
    },
    {
      "inputs": [
        {
          "internalType": "address",
          "name": "",
          "type": "address"
        }
      ],
      "name": "minted",
      "outputs": [
        {
          "internalType": "uint8",
          "name": "",
          "type": "uint8"
        }
      ],
      "stateMutability": "view",
      "type": "function"
    },
    {
      "inputs": [],
      "name": "name",
      "outputs": [
        {
          "internalType": "string",
          "name": "",
          "type": "string"
        }
      ],
      "stateMutability": "view",
      "type": "function"
    },
    {
      "inputs": [],
      "name": "owner",
      "outputs": [
        {
          "internalType": "address",
          "name": "",
          "type": "address"
        }
      ],
      "stateMutability": "view",
      "type": "function"
    },
    {
      "inputs": [
        {
          "internalType": "uint256",
          "name": "tokenId",
          "type": "uint256"
        }
      ],
      "name": "ownerOf",
      "outputs": [
        {
          "internalType": "address",
          "name": "",
          "type": "address"
        }
      ],
      "stateMutability": "view",
      "type": "function"
    },
    {
      "inputs": [],
      "name": "price",
      "outputs": [
        {
          "internalType": "uint256",
          "name": "",
          "type": "uint256"
        }
      ],
      "stateMutability": "view",
      "type": "function"
    },
    {
      "inputs": [],
      "name": "renounceOwnership",
      "outputs": [],
      "stateMutability": "nonpayable",
      "type": "function"
    },
    {
      "inputs": [],
      "name": "reverseBirthday",
      "outputs": [
        {
          "internalType": "uint256",
          "name": "",
          "type": "uint256"
        }
      ],
      "stateMutability": "view",
      "type": "function"
    },
    {
      "inputs": [
        {
          "internalType": "address",
          "name": "from",
          "type": "address"
        },
        {
          "internalType": "address",
          "name": "to",
          "type": "address"
        },
        {
          "internalType": "uint256",
          "name": "tokenId",
          "type": "uint256"
        }
      ],
      "name": "safeTransferFrom",
      "outputs": [],
      "stateMutability": "nonpayable",
      "type": "function"
    },
    {
      "inputs": [
        {
          "internalType": "address",
          "name": "from",
          "type": "address"
        },
        {
          "internalType": "address",
          "name": "to",
          "type": "address"
        },
        {
          "internalType": "uint256",
          "name": "tokenId",
          "type": "uint256"
        },
        {
          "internalType": "bytes",
          "name": "_data",
          "type": "bytes"
        }
      ],
      "name": "safeTransferFrom",
      "outputs": [],
      "stateMutability": "nonpayable",
      "type": "function"
    },
    {
      "inputs": [
        {
          "internalType": "address",
          "name": "operator",
          "type": "address"
        },
        {
          "internalType": "bool",
          "name": "approved",
          "type": "bool"
        }
      ],
      "name": "setApprovalForAll",
      "outputs": [],
      "stateMutability": "nonpayable",
      "type": "function"
    },
    {
      "inputs": [
        {
          "internalType": "bool",
          "name": "_mintActive",
          "type": "bool"
        }
      ],
      "name": "setMintActive",
      "outputs": [],
      "stateMutability": "nonpayable",
      "type": "function"
    },
    {
      "inputs": [
        {
          "internalType": "bytes4",
          "name": "interfaceId",
          "type": "bytes4"
        }
      ],
      "name": "supportsInterface",
      "outputs": [
        {
          "internalType": "bool",
          "name": "",
          "type": "bool"
        }
      ],
      "stateMutability": "view",
      "type": "function"
    },
    {
      "inputs": [],
      "name": "symbol",
      "outputs": [
        {
          "internalType": "string",
          "name": "",
          "type": "string"
        }
      ],
      "stateMutability": "view",
      "type": "function"
    },
    {
      "inputs": [
        {
          "internalType": "uint256",
          "name": "tokenId",
          "type": "uint256"
        }
      ],
      "name": "tokenURI",
      "outputs": [
        {
          "internalType": "string",
          "name": "",
          "type": "string"
        }
      ],
      "stateMutability": "view",
      "type": "function"
    },
    {
      "inputs": [
        {
          "internalType": "address",
          "name": "from",
          "type": "address"
        },
        {
          "internalType": "address",
          "name": "to",
          "type": "address"
        },
        {
          "internalType": "uint256",
          "name": "tokenId",
          "type": "uint256"
        }
      ],
      "name": "transferFrom",
      "outputs": [],
      "stateMutability": "nonpayable",
      "type": "function"
    },
    {
      "inputs": [
        {
          "internalType": "address",
          "name": "newOwner",
          "type": "address"
        }
      ],
      "name": "transferOwnership",
      "outputs": [],
      "stateMutability": "nonpayable",
      "type": "function"
    },
    {
      "inputs": [],
      "name": "withdraw",
      "outputs": [],
      "stateMutability": "nonpayable",
      "type": "function"
    }
  ],
  "bytecode": "0x60806040526006805460ff60a01b191690553480156200001e57600080fd5b5060405162001e6038038062001e60833981016040819052620000419162000266565b8351849084906200005a90600090602085019062000109565b5080516200007090600190602084019062000109565b5050506200008d62000087620000b360201b60201c565b620000b7565b8151620000a290600890602085019062000109565b50600955505043600b555062000352565b3390565b600680546001600160a01b038381166001600160a01b0319831681179093556040519116919082907f8be0079c531659141344cd1fd0a4f28419497f9722a3daafe3b4186f6b6457e090600090a35050565b8280546200011790620002ff565b90600052602060002090601f0160209004810192826200013b576000855562000186565b82601f106200015657805160ff191683800117855562000186565b8280016001018555821562000186579182015b828111156200018657825182559160200191906001019062000169565b506200019492915062000198565b5090565b5b8082111562000194576000815560010162000199565b600082601f830112620001c157600080fd5b81516001600160401b0380821115620001de57620001de6200033c565b604051601f8301601f19908116603f011681019082821181831017156200020957620002096200033c565b816040528381526020925086838588010111156200022657600080fd5b600091505b838210156200024a57858201830151818301840152908201906200022b565b838211156200025c5760008385830101525b9695505050505050565b600080600080608085870312156200027d57600080fd5b84516001600160401b03808211156200029557600080fd5b620002a388838901620001af565b95506020870151915080821115620002ba57600080fd5b620002c888838901620001af565b94506040870151915080821115620002df57600080fd5b50620002ee87828801620001af565b606096909601519497939650505050565b600181811c908216806200031457607f821691505b602082108114156200033657634e487b7160e01b600052602260045260246000fd5b50919050565b634e487b7160e01b600052604160045260246000fd5b611afe80620003626000396000f3fe60806040526004361061013c5760003560e01c806301ffc9a71461014157806306fdde0314610176578063081812fc14610198578063095ea7b3146101d057806312065fe0146101f25780631249c58b1461020f5780631e7269c51461021757806323b872dd1461025957806325fd90f3146102795780632ec376b81461029a5780633ccfd60b146102b057806342842e0e146102c55780636352211e146102e557806370a0823114610305578063715018a61461032557806380b173351461033a5780638da5cb5b1461035057806395d89b4114610365578063a035b1fe1461037a578063a1182e8e14610395578063a22cb465146103aa578063ac7fdfaf146103ca578063b88d4fde146103df578063c87b56dd146103ff578063e985e9c51461041f578063ee1cc9441461043f578063f2fde38b1461045f575b600080fd5b34801561014d57600080fd5b5061016161015c3660046116f7565b61047f565b60405190151581526020015b60405180910390f35b34801561018257600080fd5b5061018b6104d1565b60405161016d9190611876565b3480156101a457600080fd5b506101b86101b3366004611731565b610563565b6040516001600160a01b03909116815260200161016d565b3480156101dc57600080fd5b506101f06101eb3660046116b2565b6105f0565b005b3480156101fe57600080fd5b50475b60405190815260200161016d565b6101f0610701565b34801561022357600080fd5b5061024761023236600461151c565b600a6020526000908152604090205460ff1681565b60405160ff909116815260200161016d565b34801561026557600080fd5b506101f0610274366004611571565b6108b6565b34801561028557600080fd5b5060065461016190600160a01b900460ff1681565b3480156102a657600080fd5b50610201600b5481565b3480156102bc57600080fd5b506101f06108e7565b3480156102d157600080fd5b506101f06102e0366004611571565b610949565b3480156102f157600080fd5b506101b8610300366004611731565b610964565b34801561031157600080fd5b5061020161032036600461151c565b6109db565b34801561033157600080fd5b506101f0610a62565b34801561034657600080fd5b5061020160095481565b34801561035c57600080fd5b506101b8610a9d565b34801561037157600080fd5b5061018b610aac565b34801561038657600080fd5b50610201662386f26fc1000081565b3480156103a157600080fd5b5061018b610abb565b3480156103b657600080fd5b506101f06103c5366004611688565b610b49565b3480156103d657600080fd5b50610161610c0a565b3480156103eb57600080fd5b506101f06103fa3660046115ad565b610c1e565b34801561040b57600080fd5b5061018b61041a366004611731565b610c56565b34801561042b57600080fd5b5061016161043a36600461153e565b610cf9565b34801561044b57600080fd5b506101f061045a3660046116dc565b610d27565b34801561046b57600080fd5b506101f061047a36600461151c565b610d74565b60006001600160e01b031982166380ac58cd60e01b14806104b057506001600160e01b03198216635b5e139f60e01b145b806104cb57506301ffc9a760e01b6001600160e01b03198316145b92915050565b6060600080546104e0906119d0565b80601f016020809104026020016040519081016040528092919081815260200182805461050c906119d0565b80156105595780601f1061052e57610100808354040283529160200191610559565b820191906000526020600020905b81548152906001019060200180831161053c57829003601f168201915b5050505050905090565b600061056e82610e11565b6105d45760405162461bcd60e51b815260206004820152602c60248201527f4552433732313a20617070726f76656420717565727920666f72206e6f6e657860448201526b34b9ba32b73a103a37b5b2b760a11b60648201526084015b60405180910390fd5b506000908152600460205260409020546001600160a01b031690565b60006105fb82610964565b9050806001600160a01b0316836001600160a01b031614156106695760405162461bcd60e51b815260206004820152602160248201527f4552433732313a20617070726f76616c20746f2063757272656e74206f776e656044820152603960f91b60648201526084016105cb565b336001600160a01b038216148061068557506106858133610cf9565b6106f25760405162461bcd60e51b815260206004820152603860248201527f4552433732313a20617070726f76652063616c6c6572206973206e6f74206f776044820152771b995c881b9bdc88185c1c1c9bdd995908199bdc88185b1b60421b60648201526084016105cb565b6106fc8383610e2e565b505050565b600654600160a01b900460ff1615156001146107595760405162461bcd60e51b815260206004820152601760248201527636b4b73a1034b9903737ba1030b1ba34bb32903937171760491b60448201526064016105cb565b32331461079b5760405162461bcd60e51b815260206004820152601060248201526f191bdb9d0819d95d0814d95d995b89d960821b60448201526064016105cb565b336000908152600a6020526040902054600160ff909116106107ff5760405162461bcd60e51b815260206004820152601e60248201527f6f6e6c792031206d696e74207065722077616c6c65742061646472657373000060448201526064016105cb565b6007546009541161087657662386f26fc100003410156108765760405162461bcd60e51b815260206004820152602c60248201527f6d696e74696e67206973206e6f206c6f6e67657220667265652c20697420636f60448201526b0e6e8e640605c606240cae8d60a31b60648201526084016105cb565b610884600780546001019055565b336000908152600a60205260408120805460ff191660011790556108a760075490565b90506108b33382610e9c565b50565b6108c03382610eb6565b6108dc5760405162461bcd60e51b81526004016105cb90611910565b6106fc838383610f80565b336108f0610a9d565b6001600160a01b0316146109165760405162461bcd60e51b81526004016105cb906118db565b6040514790339082156108fc029083906000818181858888f19350505050158015610945573d6000803e3d6000fd5b5050565b6106fc83838360405180602001604052806000815250610c1e565b6000818152600260205260408120546001600160a01b0316806104cb5760405162461bcd60e51b815260206004820152602960248201527f4552433732313a206f776e657220717565727920666f72206e6f6e657869737460448201526832b73a103a37b5b2b760b91b60648201526084016105cb565b60006001600160a01b038216610a465760405162461bcd60e51b815260206004820152602a60248201527f4552433732313a2062616c616e636520717565727920666f7220746865207a65604482015269726f206164647265737360b01b60648201526084016105cb565b506001600160a01b031660009081526003602052604090205490565b33610a6b610a9d565b6001600160a01b031614610a915760405162461bcd60e51b81526004016105cb906118db565b610a9b600061110e565b565b6006546001600160a01b031690565b6060600180546104e0906119d0565b60088054610ac8906119d0565b80601f0160208091040260200160405190810160405280929190818152602001828054610af4906119d0565b8015610b415780601f10610b1657610100808354040283529160200191610b41565b820191906000526020600020905b815481529060010190602001808311610b2457829003601f168201915b505050505081565b6001600160a01b038216331415610b9e5760405162461bcd60e51b815260206004820152601960248201527822a9219b99189d1030b8383937bb32903a379031b0b63632b960391b60448201526064016105cb565b3360008181526005602090815260408083206001600160a01b03871680855290835292819020805460ff191686151590811790915590519081529192917f17307eab39ab6107e8899845ad3d59bd9653f200f220920489ca2b5937696c31910160405180910390a35050565b6000610c1560075490565b60095411905090565b610c283383610eb6565b610c445760405162461bcd60e51b81526004016105cb90611910565b610c5084848484611160565b50505050565b6060610c6182610e11565b610cc75760405162461bcd60e51b815260206004820152603160248201527f45524337323155524953746f726167653a2055524920717565727920666f72206044820152703737b732bc34b9ba32b73a103a37b5b2b760791b60648201526084016105cb565b6008610cd283611193565b604051602001610ce3929190611792565b6040516020818303038152906040529050919050565b6001600160a01b03918216600090815260056020908152604080832093909416825291909152205460ff1690565b33610d30610a9d565b6001600160a01b031614610d565760405162461bcd60e51b81526004016105cb906118db565b60068054911515600160a01b0260ff60a01b19909216919091179055565b33610d7d610a9d565b6001600160a01b031614610da35760405162461bcd60e51b81526004016105cb906118db565b6001600160a01b038116610e085760405162461bcd60e51b815260206004820152602660248201527f4f776e61626c653a206e6577206f776e657220697320746865207a65726f206160448201526564647265737360d01b60648201526084016105cb565b6108b38161110e565b6000908152600260205260409020546001600160a01b0316151590565b600081815260046020526040902080546001600160a01b0319166001600160a01b0384169081179091558190610e6382610964565b6001600160a01b03167f8c5be1e5ebec7d5bd14f71427d1e84f3dd0314c0f7b2291e5b200ac8c7c3b92560405160405180910390a45050565b610945828260405180602001604052806000815250611290565b6000610ec182610e11565b610f225760405162461bcd60e51b815260206004820152602c60248201527f4552433732313a206f70657261746f7220717565727920666f72206e6f6e657860448201526b34b9ba32b73a103a37b5b2b760a11b60648201526084016105cb565b6000610f2d83610964565b9050806001600160a01b0316846001600160a01b03161480610f685750836001600160a01b0316610f5d84610563565b6001600160a01b0316145b80610f785750610f788185610cf9565b949350505050565b826001600160a01b0316610f9382610964565b6001600160a01b031614610ffb5760405162461bcd60e51b815260206004820152602960248201527f4552433732313a207472616e73666572206f6620746f6b656e2074686174206960448201526839903737ba1037bbb760b91b60648201526084016105cb565b6001600160a01b03821661105d5760405162461bcd60e51b8152602060048201526024808201527f4552433732313a207472616e7366657220746f20746865207a65726f206164646044820152637265737360e01b60648201526084016105cb565b611068600082610e2e565b6001600160a01b038316600090815260036020526040812080546001929061109190849061198d565b90915550506001600160a01b03821660009081526003602052604081208054600192906110bf908490611961565b909155505060008181526002602052604080822080546001600160a01b0319166001600160a01b038681169182179092559151849391871691600080516020611aa983398151915291a4505050565b600680546001600160a01b038381166001600160a01b0319831681179093556040519116919082907f8be0079c531659141344cd1fd0a4f28419497f9722a3daafe3b4186f6b6457e090600090a35050565b61116b848484610f80565b611177848484846112c3565b610c505760405162461bcd60e51b81526004016105cb90611889565b6060816111b75750506040805180820190915260018152600360fc1b602082015290565b8160005b81156111e157806111cb81611a0b565b91506111da9050600a83611979565b91506111bb565b6000816001600160401b038111156111fb576111fb611a7c565b6040519080825280601f01601f191660200182016040528015611225576020820181803683370190505b5090505b8415610f785761123a60018361198d565b9150611247600a86611a26565b611252906030611961565b60f81b81838151811061126757611267611a66565b60200101906001600160f81b031916908160001a905350611289600a86611979565b9450611229565b61129a83836113d0565b6112a760008484846112c3565b6106fc5760405162461bcd60e51b81526004016105cb90611889565b60006001600160a01b0384163b156113c557604051630a85bd0160e11b81526001600160a01b0385169063150b7a0290611307903390899088908890600401611839565b602060405180830381600087803b15801561132157600080fd5b505af1925050508015611351575060408051601f3d908101601f1916820190925261134e91810190611714565b60015b6113ab573d80801561137f576040519150601f19603f3d011682016040523d82523d6000602084013e611384565b606091505b5080516113a35760405162461bcd60e51b81526004016105cb90611889565b805181602001fd5b6001600160e01b031916630a85bd0160e11b149050610f78565b506001949350505050565b6001600160a01b0382166114265760405162461bcd60e51b815260206004820181905260248201527f4552433732313a206d696e7420746f20746865207a65726f206164647265737360448201526064016105cb565b61142f81610e11565b1561147b5760405162461bcd60e51b815260206004820152601c60248201527b115490cdcc8c4e881d1bdad95b88185b1c9958591e481b5a5b9d195960221b60448201526064016105cb565b6001600160a01b03821660009081526003602052604081208054600192906114a4908490611961565b909155505060008181526002602052604080822080546001600160a01b0319166001600160a01b0386169081179091559051839290600080516020611aa9833981519152908290a45050565b80356001600160a01b038116811461150757600080fd5b919050565b8035801515811461150757600080fd5b60006020828403121561152e57600080fd5b611537826114f0565b9392505050565b6000806040838503121561155157600080fd5b61155a836114f0565b9150611568602084016114f0565b90509250929050565b60008060006060848603121561158657600080fd5b61158f846114f0565b925061159d602085016114f0565b9150604084013590509250925092565b600080600080608085870312156115c357600080fd5b6115cc856114f0565b93506115da602086016114f0565b92506040850135915060608501356001600160401b03808211156115fd57600080fd5b818701915087601f83011261161157600080fd5b81358181111561162357611623611a7c565b604051601f8201601f19908116603f0116810190838211818310171561164b5761164b611a7c565b816040528281528a602084870101111561166457600080fd5b82602086016020830137600060208483010152809550505050505092959194509250565b6000806040838503121561169b57600080fd5b6116a4836114f0565b91506115686020840161150c565b600080604083850312156116c557600080fd5b6116ce836114f0565b946020939093013593505050565b6000602082840312156116ee57600080fd5b6115378261150c565b60006020828403121561170957600080fd5b813561153781611a92565b60006020828403121561172657600080fd5b815161153781611a92565b60006020828403121561174357600080fd5b5035919050565b600081518084526117628160208601602086016119a4565b601f01601f19169290920160200192915050565b600081516117888185602086016119a4565b9290920192915050565b600080845481600182811c9150808316806117ae57607f831692505b60208084108214156117ce57634e487b7160e01b86526022600452602486fd5b8180156117e257600181146117f357611820565b60ff19861689528489019650611820565b60008b81526020902060005b868110156118185781548b8201529085019083016117ff565b505084890196505b5050505050506118308185611776565b95945050505050565b6001600160a01b038581168252841660208201526040810183905260806060820181905260009061186c9083018461174a565b9695505050505050565b602081526000611537602083018461174a565b60208082526032908201527f4552433732313a207472616e7366657220746f206e6f6e20455243373231526560408201527131b2b4bb32b91034b6b83632b6b2b73a32b960711b606082015260800190565b6020808252818101527f4f776e61626c653a2063616c6c6572206973206e6f7420746865206f776e6572604082015260600190565b60208082526031908201527f4552433732313a207472616e736665722063616c6c6572206973206e6f74206f6040820152701ddb995c881b9bdc88185c1c1c9bdd9959607a1b606082015260800190565b6000821982111561197457611974611a3a565b500190565b60008261198857611988611a50565b500490565b60008282101561199f5761199f611a3a565b500390565b60005b838110156119bf5781810151838201526020016119a7565b83811115610c505750506000910152565b600181811c908216806119e457607f821691505b60208210811415611a0557634e487b7160e01b600052602260045260246000fd5b50919050565b6000600019821415611a1f57611a1f611a3a565b5060010190565b600082611a3557611a35611a50565b500690565b634e487b7160e01b600052601160045260246000fd5b634e487b7160e01b600052601260045260246000fd5b634e487b7160e01b600052603260045260246000fd5b634e487b7160e01b600052604160045260246000fd5b6001600160e01b0319811681146108b357600080fdfeddf252ad1be2c89b69c2b068fc378daa952ba7f163c4a11628f55a4df523b3efa2646970667358221220b54ecf193b077b586d43cff8d4cc16f6cfd44cf762e98ff665e8c7ab1027c28b64736f6c63430008060033",
  "linkReferences": {},
  "deployedLinkReferences": {}
}