{
  "_format": "hh-sol-artifact-1",
  "contractName": "ethAge",
  "sourceName": "contracts/ethAge.sol",
  "abi": [
    {
      "inputs": [
        {
          "internalType": "string",
          "name": "_name",
          "type": "string"
        },
        {
          "internalType": "string",
          "name": "_symbol",
          "type": "string"
        },
        {
          "internalType": "string",
          "name": "_metadataFolderURI",
          "type": "string"
        },
        {
          "internalType": "uint256",
          "name": "_freeMints",
          "type": "uint256"
        }
      ],
      "stateMutability": "nonpayable",
      "type": "constructor"
    },
    {
      "anonymous": false,
      "inputs": [
        {
          "indexed": true,
          "internalType": "address",
          "name": "owner",
          "type": "address"
        },
        {
          "indexed": true,
          "internalType": "address",
          "name": "approved",
          "type": "address"
        },
        {
          "indexed": true,
          "internalType": "uint256",
          "name": "tokenId",
          "type": "uint256"
        }
      ],
      "name": "Approval",
      "type": "event"
    },
    {
      "anonymous": false,
      "inputs": [
        {
          "indexed": true,
          "internalType": "address",
          "name": "owner",
          "type": "address"
        },
        {
          "indexed": true,
          "internalType": "address",
          "name": "operator",
          "type": "address"
        },
        {
          "indexed": false,
          "internalType": "bool",
          "name": "approved",
          "type": "bool"
        }
      ],
      "name": "ApprovalForAll",
      "type": "event"
    },
    {
      "anonymous": false,
      "inputs": [
        {
          "indexed": true,
          "internalType": "address",
          "name": "previousOwner",
          "type": "address"
        },
        {
          "indexed": true,
          "internalType": "address",
          "name": "newOwner",
          "type": "address"
        }
      ],
      "name": "OwnershipTransferred",
      "type": "event"
    },
    {
      "anonymous": false,
      "inputs": [
        {
          "indexed": true,
          "internalType": "address",
          "name": "from",
          "type": "address"
        },
        {
          "indexed": true,
          "internalType": "address",
          "name": "to",
          "type": "address"
        },
        {
          "indexed": true,
          "internalType": "uint256",
          "name": "tokenId",
          "type": "uint256"
        }
      ],
      "name": "Transfer",
      "type": "event"
    },
    {
      "inputs": [
        {
          "internalType": "address",
          "name": "to",
          "type": "address"
        },
        {
          "internalType": "uint256",
          "name": "tokenId",
          "type": "uint256"
        }
      ],
      "name": "approve",
      "outputs": [],
      "stateMutability": "nonpayable",
      "type": "function"
    },
    {
      "inputs": [
        {
          "internalType": "address",
          "name": "owner",
          "type": "address"
        }
      ],
      "name": "balanceOf",
      "outputs": [
        {
          "internalType": "uint256",
          "name": "",
          "type": "uint256"
        }
      ],
      "stateMutability": "view",
      "type": "function"
    },
    {
      "inputs": [],
      "name": "freeMints",
      "outputs": [
        {
          "internalType": "uint256",
          "name": "",
          "type": "uint256"
        }
      ],
      "stateMutability": "view",
      "type": "function"
    },
    {
      "inputs": [
        {
          "internalType": "uint256",
          "name": "tokenId",
          "type": "uint256"
        }
      ],
      "name": "getApproved",
      "outputs": [
        {
          "internalType": "address",
          "name": "",
          "type": "address"
        }
      ],
      "stateMutability": "view",
      "type": "function"
    },
    {
      "inputs": [
        {
          "internalType": "address",
          "name": "owner",
          "type": "address"
        },
        {
          "internalType": "address",
          "name": "operator",
          "type": "address"
        }
      ],
      "name": "isApprovedForAll",
      "outputs": [
        {
          "internalType": "bool",
          "name": "",
          "type": "bool"
        }
      ],
      "stateMutability": "view",
      "type": "function"
    },
    {
      "inputs": [],
      "name": "isMintFree",
      "outputs": [
        {
          "internalType": "bool",
          "name": "",
          "type": "bool"
        }
      ],
      "stateMutability": "view",
      "type": "function"
    },
    {
      "inputs": [],
      "name": "metadataFolderURI",
      "outputs": [
        {
          "internalType": "string",
          "name": "",
          "type": "string"
        }
      ],
      "stateMutability": "view",
      "type": "function"
    },
    {
      "inputs": [],
      "name": "mint",
      "outputs": [],
      "stateMutability": "payable",
      "type": "function"
    },
    {
      "inputs": [],
      "name": "mintActive",
      "outputs": [
        {
          "internalType": "bool",
          "name": "",
          "type": "bool"
        }
      ],
      "stateMutability": "view",
      "type": "function"
    },
    {
      "inputs": [
        {
          "internalType": "address",
          "name": "",
          "type": "address"
        }
      ],
      "name": "minted",
      "outputs": [
        {
          "internalType": "uint8",
          "name": "",
          "type": "uint8"
        }
      ],
      "stateMutability": "view",
      "type": "function"
    },
    {
      "inputs": [],
      "name": "name",
      "outputs": [
        {
          "internalType": "string",
          "name": "",
          "type": "string"
        }
      ],
      "stateMutability": "view",
      "type": "function"
    },
    {
      "inputs": [],
      "name": "owner",
      "outputs": [
        {
          "internalType": "address",
          "name": "",
          "type": "address"
        }
      ],
      "stateMutability": "view",
      "type": "function"
    },
    {
      "inputs": [
        {
          "internalType": "uint256",
          "name": "tokenId",
          "type": "uint256"
        }
      ],
      "name": "ownerOf",
      "outputs": [
        {
          "internalType": "address",
          "name": "",
          "type": "address"
        }
      ],
      "stateMutability": "view",
      "type": "function"
    },
    {
      "inputs": [],
      "name": "price",
      "outputs": [
        {
          "internalType": "uint256",
          "name": "",
          "type": "uint256"
        }
      ],
      "stateMutability": "view",
      "type": "function"
    },
    {
      "inputs": [],
      "name": "renounceOwnership",
      "outputs": [],
      "stateMutability": "nonpayable",
      "type": "function"
    },
    {
      "inputs": [
        {
          "internalType": "address",
          "name": "from",
          "type": "address"
        },
        {
          "internalType": "address",
          "name": "to",
          "type": "address"
        },
        {
          "internalType": "uint256",
          "name": "tokenId",
          "type": "uint256"
        }
      ],
      "name": "safeTransferFrom",
      "outputs": [],
      "stateMutability": "nonpayable",
      "type": "function"
    },
    {
      "inputs": [
        {
          "internalType": "address",
          "name": "from",
          "type": "address"
        },
        {
          "internalType": "address",
          "name": "to",
          "type": "address"
        },
        {
          "internalType": "uint256",
          "name": "tokenId",
          "type": "uint256"
        },
        {
          "internalType": "bytes",
          "name": "_data",
          "type": "bytes"
        }
      ],
      "name": "safeTransferFrom",
      "outputs": [],
      "stateMutability": "nonpayable",
      "type": "function"
    },
    {
      "inputs": [
        {
          "internalType": "address",
          "name": "operator",
          "type": "address"
        },
        {
          "internalType": "bool",
          "name": "approved",
          "type": "bool"
        }
      ],
      "name": "setApprovalForAll",
      "outputs": [],
      "stateMutability": "nonpayable",
      "type": "function"
    },
    {
      "inputs": [
        {
          "internalType": "bool",
          "name": "_mintActive",
          "type": "bool"
        }
      ],
      "name": "setMintActive",
      "outputs": [],
      "stateMutability": "nonpayable",
      "type": "function"
    },
    {
      "inputs": [
        {
          "internalType": "bytes4",
          "name": "interfaceId",
          "type": "bytes4"
        }
      ],
      "name": "supportsInterface",
      "outputs": [
        {
          "internalType": "bool",
          "name": "",
          "type": "bool"
        }
      ],
      "stateMutability": "view",
      "type": "function"
    },
    {
      "inputs": [],
      "name": "symbol",
      "outputs": [
        {
          "internalType": "string",
          "name": "",
          "type": "string"
        }
      ],
      "stateMutability": "view",
      "type": "function"
    },
    {
      "inputs": [
        {
          "internalType": "uint256",
          "name": "tokenId",
          "type": "uint256"
        }
      ],
      "name": "tokenURI",
      "outputs": [
        {
          "internalType": "string",
          "name": "",
          "type": "string"
        }
      ],
      "stateMutability": "view",
      "type": "function"
    },
    {
      "inputs": [
        {
          "internalType": "address",
          "name": "from",
          "type": "address"
        },
        {
          "internalType": "address",
          "name": "to",
          "type": "address"
        },
        {
          "internalType": "uint256",
          "name": "tokenId",
          "type": "uint256"
        }
      ],
      "name": "transferFrom",
      "outputs": [],
      "stateMutability": "nonpayable",
      "type": "function"
    },
    {
      "inputs": [
        {
          "internalType": "address",
          "name": "newOwner",
          "type": "address"
        }
      ],
      "name": "transferOwnership",
      "outputs": [],
      "stateMutability": "nonpayable",
      "type": "function"
    },
    {
      "inputs": [],
      "name": "withdraw",
      "outputs": [],
      "stateMutability": "nonpayable",
      "type": "function"
    }
  ],
  "bytecode": "0x60806040526006805460ff60a01b191690553480156200001e57600080fd5b5060405162001c8038038062001c80833981016040819052620000419162000263565b8351849084906200005a90600090602085019062000106565b5080516200007090600190602084019062000106565b5050506200008d62000087620000b060201b60201c565b620000b4565b8151620000a290600890602085019062000106565b50600955506200034f915050565b3390565b600680546001600160a01b038381166001600160a01b0319831681179093556040519116919082907f8be0079c531659141344cd1fd0a4f28419497f9722a3daafe3b4186f6b6457e090600090a35050565b8280546200011490620002fc565b90600052602060002090601f01602090048101928262000138576000855562000183565b82601f106200015357805160ff191683800117855562000183565b8280016001018555821562000183579182015b828111156200018357825182559160200191906001019062000166565b506200019192915062000195565b5090565b5b8082111562000191576000815560010162000196565b600082601f830112620001be57600080fd5b81516001600160401b0380821115620001db57620001db62000339565b604051601f8301601f19908116603f0116810190828211818310171562000206576200020662000339565b816040528381526020925086838588010111156200022357600080fd5b600091505b8382101562000247578582018301518183018401529082019062000228565b83821115620002595760008385830101525b9695505050505050565b600080600080608085870312156200027a57600080fd5b84516001600160401b03808211156200029257600080fd5b620002a088838901620001ac565b95506020870151915080821115620002b757600080fd5b620002c588838901620001ac565b94506040870151915080821115620002dc57600080fd5b50620002eb87828801620001ac565b606096909601519497939650505050565b600181811c908216806200031157607f821691505b602082108114156200033357634e487b7160e01b600052602260045260246000fd5b50919050565b634e487b7160e01b600052604160045260246000fd5b611921806200035f6000396000f3fe6080604052600436106101265760003560e01c806301ffc9a71461012b57806306fdde0314610160578063081812fc14610182578063095ea7b3146101ba5780631249c58b146101dc5780631e7269c5146101e457806323b872dd1461022657806325fd90f3146102465780633ccfd60b1461026757806342842e0e1461027c5780636352211e1461029c57806370a08231146102bc578063715018a6146102ea57806380b17335146102ff5780638da5cb5b1461031557806395d89b411461032a578063a035b1fe1461033f578063a1182e8e1461035a578063a22cb4651461036f578063ac7fdfaf1461038f578063b88d4fde146103a4578063c87b56dd146103c4578063e985e9c5146103e4578063ee1cc94414610404578063f2fde38b14610424575b600080fd5b34801561013757600080fd5b5061014b6101463660046115b8565b610444565b60405190151581526020015b60405180910390f35b34801561016c57600080fd5b50610175610496565b6040516101579190611734565b34801561018e57600080fd5b506101a261019d3660046115f2565b610528565b6040516001600160a01b039091168152602001610157565b3480156101c657600080fd5b506101da6101d5366004611573565b6105b5565b005b6101da6106c6565b3480156101f057600080fd5b506102146101ff3660046113dd565b600a6020526000908152604090205460ff1681565b60405160ff9091168152602001610157565b34801561023257600080fd5b506101da610241366004611432565b61087c565b34801561025257600080fd5b5060065461014b90600160a01b900460ff1681565b34801561027357600080fd5b506101da6108ad565b34801561028857600080fd5b506101da610297366004611432565b61090f565b3480156102a857600080fd5b506101a26102b73660046115f2565b61092a565b3480156102c857600080fd5b506102dc6102d73660046113dd565b6109a1565b604051908152602001610157565b3480156102f657600080fd5b506101da610a28565b34801561030b57600080fd5b506102dc60095481565b34801561032157600080fd5b506101a2610a63565b34801561033657600080fd5b50610175610a72565b34801561034b57600080fd5b506102dc662386f26fc1000081565b34801561036657600080fd5b50610175610a81565b34801561037b57600080fd5b506101da61038a366004611549565b610b0f565b34801561039b57600080fd5b5061014b610bd0565b3480156103b057600080fd5b506101da6103bf36600461146e565b610be4565b3480156103d057600080fd5b506101756103df3660046115f2565b610c1c565b3480156103f057600080fd5b5061014b6103ff3660046113ff565b610cb7565b34801561041057600080fd5b506101da61041f36600461159d565b610ce5565b34801561043057600080fd5b506101da61043f3660046113dd565b610d32565b60006001600160e01b031982166380ac58cd60e01b148061047557506001600160e01b03198216635b5e139f60e01b145b8061049057506301ffc9a760e01b6001600160e01b03198316145b92915050565b6060600080546104a59061184e565b80601f01602080910402602001604051908101604052809291908181526020018280546104d19061184e565b801561051e5780601f106104f35761010080835404028352916020019161051e565b820191906000526020600020905b81548152906001019060200180831161050157829003601f168201915b5050505050905090565b600061053382610dcf565b6105995760405162461bcd60e51b815260206004820152602c60248201527f4552433732313a20617070726f76656420717565727920666f72206e6f6e657860448201526b34b9ba32b73a103a37b5b2b760a11b60648201526084015b60405180910390fd5b506000908152600460205260409020546001600160a01b031690565b60006105c08261092a565b9050806001600160a01b0316836001600160a01b0316141561062e5760405162461bcd60e51b815260206004820152602160248201527f4552433732313a20617070726f76616c20746f2063757272656e74206f776e656044820152603960f91b6064820152608401610590565b336001600160a01b038216148061064a575061064a8133610cb7565b6106b75760405162461bcd60e51b815260206004820152603860248201527f4552433732313a20617070726f76652063616c6c6572206973206e6f74206f776044820152771b995c881b9bdc88185c1c1c9bdd995908199bdc88185b1b60421b6064820152608401610590565b6106c18383610dec565b505050565b600654600160a01b900460ff16151560011461071e5760405162461bcd60e51b815260206004820152601760248201527636b4b73a1034b9903737ba1030b1ba34bb32903937171760491b6044820152606401610590565b3233146107605760405162461bcd60e51b815260206004820152601060248201526f191bdb9d0819d95d0814d95d995b89d960821b6044820152606401610590565b336000908152600a6020526040902054600160ff909116106107c45760405162461bcd60e51b815260206004820152601e60248201527f6f6e6c792031206d696e74207065722077616c6c6574206164647265737300006044820152606401610590565b600754600954101561083c57662386f26fc1000034101561083c5760405162461bcd60e51b815260206004820152602c60248201527f6d696e74696e67206973206e6f206c6f6e67657220667265652c20697420636f60448201526b0e6e8e640605c606240cae8d60a31b6064820152608401610590565b61084a600780546001019055565b336000908152600a60205260408120805460ff1916600117905561086d60075490565b90506108793382610e5a565b50565b6108863382610e74565b6108a25760405162461bcd60e51b8152600401610590906117ce565b6106c1838383610f3e565b336108b6610a63565b6001600160a01b0316146108dc5760405162461bcd60e51b815260040161059090611799565b6040514790339082156108fc029083906000818181858888f1935050505015801561090b573d6000803e3d6000fd5b5050565b6106c183838360405180602001604052806000815250610be4565b6000818152600260205260408120546001600160a01b0316806104905760405162461bcd60e51b815260206004820152602960248201527f4552433732313a206f776e657220717565727920666f72206e6f6e657869737460448201526832b73a103a37b5b2b760b91b6064820152608401610590565b60006001600160a01b038216610a0c5760405162461bcd60e51b815260206004820152602a60248201527f4552433732313a2062616c616e636520717565727920666f7220746865207a65604482015269726f206164647265737360b01b6064820152608401610590565b506001600160a01b031660009081526003602052604090205490565b33610a31610a63565b6001600160a01b031614610a575760405162461bcd60e51b815260040161059090611799565b610a6160006110cc565b565b6006546001600160a01b031690565b6060600180546104a59061184e565b60088054610a8e9061184e565b80601f0160208091040260200160405190810160405280929190818152602001828054610aba9061184e565b8015610b075780601f10610adc57610100808354040283529160200191610b07565b820191906000526020600020905b815481529060010190602001808311610aea57829003601f168201915b505050505081565b6001600160a01b038216331415610b645760405162461bcd60e51b815260206004820152601960248201527822a9219b99189d1030b8383937bb32903a379031b0b63632b960391b6044820152606401610590565b3360008181526005602090815260408083206001600160a01b03871680855290835292819020805460ff191686151590811790915590519081529192917f17307eab39ab6107e8899845ad3d59bd9653f200f220920489ca2b5937696c31910160405180910390a35050565b6000610bdb60075490565b60095411905090565b610bee3383610e74565b610c0a5760405162461bcd60e51b8152600401610590906117ce565b610c168484848461111e565b50505050565b6060610c2782610dcf565b610c8d5760405162461bcd60e51b815260206004820152603160248201527f45524337323155524953746f726167653a2055524920717565727920666f72206044820152703737b732bc34b9ba32b73a103a37b5b2b760791b6064820152608401610590565b600882604051602001610ca1929190611658565b6040516020818303038152906040529050919050565b6001600160a01b03918216600090815260056020908152604080832093909416825291909152205460ff1690565b33610cee610a63565b6001600160a01b031614610d145760405162461bcd60e51b815260040161059090611799565b60068054911515600160a01b0260ff60a01b19909216919091179055565b33610d3b610a63565b6001600160a01b031614610d615760405162461bcd60e51b815260040161059090611799565b6001600160a01b038116610dc65760405162461bcd60e51b815260206004820152602660248201527f4f776e61626c653a206e6577206f776e657220697320746865207a65726f206160448201526564647265737360d01b6064820152608401610590565b610879816110cc565b6000908152600260205260409020546001600160a01b0316151590565b600081815260046020526040902080546001600160a01b0319166001600160a01b0384169081179091558190610e218261092a565b6001600160a01b03167f8c5be1e5ebec7d5bd14f71427d1e84f3dd0314c0f7b2291e5b200ac8c7c3b92560405160405180910390a45050565b61090b828260405180602001604052806000815250611151565b6000610e7f82610dcf565b610ee05760405162461bcd60e51b815260206004820152602c60248201527f4552433732313a206f70657261746f7220717565727920666f72206e6f6e657860448201526b34b9ba32b73a103a37b5b2b760a11b6064820152608401610590565b6000610eeb8361092a565b9050806001600160a01b0316846001600160a01b03161480610f265750836001600160a01b0316610f1b84610528565b6001600160a01b0316145b80610f365750610f368185610cb7565b949350505050565b826001600160a01b0316610f518261092a565b6001600160a01b031614610fb95760405162461bcd60e51b815260206004820152602960248201527f4552433732313a207472616e73666572206f6620746f6b656e2074686174206960448201526839903737ba1037bbb760b91b6064820152608401610590565b6001600160a01b03821661101b5760405162461bcd60e51b8152602060048201526024808201527f4552433732313a207472616e7366657220746f20746865207a65726f206164646044820152637265737360e01b6064820152608401610590565b611026600082610dec565b6001600160a01b038316600090815260036020526040812080546001929061104f908490611837565b90915550506001600160a01b038216600090815260036020526040812080546001929061107d90849061181f565b909155505060008181526002602052604080822080546001600160a01b0319166001600160a01b0386811691821790925591518493918716916000805160206118cc83398151915291a4505050565b600680546001600160a01b038381166001600160a01b0319831681179093556040519116919082907f8be0079c531659141344cd1fd0a4f28419497f9722a3daafe3b4186f6b6457e090600090a35050565b611129848484610f3e565b61113584848484611184565b610c165760405162461bcd60e51b815260040161059090611747565b61115b8383611291565b6111686000848484611184565b6106c15760405162461bcd60e51b815260040161059090611747565b60006001600160a01b0384163b1561128657604051630a85bd0160e11b81526001600160a01b0385169063150b7a02906111c89033908990889088906004016116f7565b602060405180830381600087803b1580156111e257600080fd5b505af1925050508015611212575060408051601f3d908101601f1916820190925261120f918101906115d5565b60015b61126c573d808015611240576040519150601f19603f3d011682016040523d82523d6000602084013e611245565b606091505b5080516112645760405162461bcd60e51b815260040161059090611747565b805181602001fd5b6001600160e01b031916630a85bd0160e11b149050610f36565b506001949350505050565b6001600160a01b0382166112e75760405162461bcd60e51b815260206004820181905260248201527f4552433732313a206d696e7420746f20746865207a65726f20616464726573736044820152606401610590565b6112f081610dcf565b1561133c5760405162461bcd60e51b815260206004820152601c60248201527b115490cdcc8c4e881d1bdad95b88185b1c9958591e481b5a5b9d195960221b6044820152606401610590565b6001600160a01b038216600090815260036020526040812080546001929061136590849061181f565b909155505060008181526002602052604080822080546001600160a01b0319166001600160a01b03861690811790915590518392906000805160206118cc833981519152908290a45050565b80356001600160a01b03811681146113c857600080fd5b919050565b803580151581146113c857600080fd5b6000602082840312156113ef57600080fd5b6113f8826113b1565b9392505050565b6000806040838503121561141257600080fd5b61141b836113b1565b9150611429602084016113b1565b90509250929050565b60008060006060848603121561144757600080fd5b611450846113b1565b925061145e602085016113b1565b9150604084013590509250925092565b6000806000806080858703121561148457600080fd5b61148d856113b1565b935061149b602086016113b1565b92506040850135915060608501356001600160401b03808211156114be57600080fd5b818701915087601f8301126114d257600080fd5b8135818111156114e4576114e461189f565b604051601f8201601f19908116603f0116810190838211818310171561150c5761150c61189f565b816040528281528a602084870101111561152557600080fd5b82602086016020830137600060208483010152809550505050505092959194509250565b6000806040838503121561155c57600080fd5b611565836113b1565b9150611429602084016113cd565b6000806040838503121561158657600080fd5b61158f836113b1565b946020939093013593505050565b6000602082840312156115af57600080fd5b6113f8826113cd565b6000602082840312156115ca57600080fd5b81356113f8816118b5565b6000602082840312156115e757600080fd5b81516113f8816118b5565b60006020828403121561160457600080fd5b5035919050565b6000815180845260005b8181101561163157602081850181015186830182015201611615565b81811115611643576000602083870101525b50601f01601f19169290920160200192915050565b600080845481600182811c91508083168061167457607f831692505b602080841082141561169457634e487b7160e01b86526022600452602486fd5b8180156116a857600181146116b9576116e6565b60ff198616895284890196506116e6565b60008b81526020902060005b868110156116de5781548b8201529085019083016116c5565b505084890196505b509785525050509301949350505050565b6001600160a01b038581168252841660208201526040810183905260806060820181905260009061172a9083018461160b565b9695505050505050565b6020815260006113f8602083018461160b565b60208082526032908201527f4552433732313a207472616e7366657220746f206e6f6e20455243373231526560408201527131b2b4bb32b91034b6b83632b6b2b73a32b960711b606082015260800190565b6020808252818101527f4f776e61626c653a2063616c6c6572206973206e6f7420746865206f776e6572604082015260600190565b60208082526031908201527f4552433732313a207472616e736665722063616c6c6572206973206e6f74206f6040820152701ddb995c881b9bdc88185c1c1c9bdd9959607a1b606082015260800190565b6000821982111561183257611832611889565b500190565b60008282101561184957611849611889565b500390565b600181811c9082168061186257607f821691505b6020821081141561188357634e487b7160e01b600052602260045260246000fd5b50919050565b634e487b7160e01b600052601160045260246000fd5b634e487b7160e01b600052604160045260246000fd5b6001600160e01b03198116811461087957600080fdfeddf252ad1be2c89b69c2b068fc378daa952ba7f163c4a11628f55a4df523b3efa264697066735822122018bb0188d90a6f4c1a87a32e8fc562e91bee8f7eb78d24d7b399b7290a02721864736f6c63430008060033",
  "linkReferences": {},
  "deployedLinkReferences": {}
}