{
  "_format": "hh-sol-artifact-1",
  "contractName": "ethAge",
  "sourceName": "contracts/ethAge.sol",
  "abi": [
    {
      "inputs": [
        {
          "internalType": "string",
          "name": "_name",
          "type": "string"
        },
        {
          "internalType": "string",
          "name": "_symbol",
          "type": "string"
        },
        {
          "internalType": "string",
          "name": "_metadataFolderURI",
          "type": "string"
        },
        {
          "internalType": "uint256",
          "name": "_freeMints",
          "type": "uint256"
        }
      ],
      "stateMutability": "nonpayable",
      "type": "constructor"
    },
    {
      "anonymous": false,
      "inputs": [
        {
          "indexed": true,
          "internalType": "address",
          "name": "owner",
          "type": "address"
        },
        {
          "indexed": true,
          "internalType": "address",
          "name": "approved",
          "type": "address"
        },
        {
          "indexed": true,
          "internalType": "uint256",
          "name": "tokenId",
          "type": "uint256"
        }
      ],
      "name": "Approval",
      "type": "event"
    },
    {
      "anonymous": false,
      "inputs": [
        {
          "indexed": true,
          "internalType": "address",
          "name": "owner",
          "type": "address"
        },
        {
          "indexed": true,
          "internalType": "address",
          "name": "operator",
          "type": "address"
        },
        {
          "indexed": false,
          "internalType": "bool",
          "name": "approved",
          "type": "bool"
        }
      ],
      "name": "ApprovalForAll",
      "type": "event"
    },
    {
      "anonymous": false,
      "inputs": [
        {
          "indexed": true,
          "internalType": "address",
          "name": "previousOwner",
          "type": "address"
        },
        {
          "indexed": true,
          "internalType": "address",
          "name": "newOwner",
          "type": "address"
        }
      ],
      "name": "OwnershipTransferred",
      "type": "event"
    },
    {
      "anonymous": false,
      "inputs": [
        {
          "indexed": true,
          "internalType": "address",
          "name": "from",
          "type": "address"
        },
        {
          "indexed": true,
          "internalType": "address",
          "name": "to",
          "type": "address"
        },
        {
          "indexed": true,
          "internalType": "uint256",
          "name": "tokenId",
          "type": "uint256"
        }
      ],
      "name": "Transfer",
      "type": "event"
    },
    {
      "inputs": [
        {
          "internalType": "address",
          "name": "to",
          "type": "address"
        },
        {
          "internalType": "uint256",
          "name": "tokenId",
          "type": "uint256"
        }
      ],
      "name": "approve",
      "outputs": [],
      "stateMutability": "nonpayable",
      "type": "function"
    },
    {
      "inputs": [
        {
          "internalType": "address",
          "name": "owner",
          "type": "address"
        }
      ],
      "name": "balanceOf",
      "outputs": [
        {
          "internalType": "uint256",
          "name": "",
          "type": "uint256"
        }
      ],
      "stateMutability": "view",
      "type": "function"
    },
    {
      "inputs": [],
      "name": "freeMints",
      "outputs": [
        {
          "internalType": "uint256",
          "name": "",
          "type": "uint256"
        }
      ],
      "stateMutability": "view",
      "type": "function"
    },
    {
      "inputs": [
        {
          "internalType": "uint256",
          "name": "tokenId",
          "type": "uint256"
        }
      ],
      "name": "getApproved",
      "outputs": [
        {
          "internalType": "address",
          "name": "",
          "type": "address"
        }
      ],
      "stateMutability": "view",
      "type": "function"
    },
    {
      "inputs": [],
      "name": "getBalance",
      "outputs": [
        {
          "internalType": "uint256",
          "name": "",
          "type": "uint256"
        }
      ],
      "stateMutability": "view",
      "type": "function"
    },
    {
      "inputs": [
        {
          "internalType": "address",
          "name": "owner",
          "type": "address"
        },
        {
          "internalType": "address",
          "name": "operator",
          "type": "address"
        }
      ],
      "name": "isApprovedForAll",
      "outputs": [
        {
          "internalType": "bool",
          "name": "",
          "type": "bool"
        }
      ],
      "stateMutability": "view",
      "type": "function"
    },
    {
      "inputs": [],
      "name": "isMintFree",
      "outputs": [
        {
          "internalType": "bool",
          "name": "",
          "type": "bool"
        }
      ],
      "stateMutability": "view",
      "type": "function"
    },
    {
      "inputs": [],
      "name": "metadataFolderURI",
      "outputs": [
        {
          "internalType": "string",
          "name": "",
          "type": "string"
        }
      ],
      "stateMutability": "view",
      "type": "function"
    },
    {
      "inputs": [],
      "name": "mint",
      "outputs": [],
      "stateMutability": "payable",
      "type": "function"
    },
    {
      "inputs": [],
      "name": "mintActive",
      "outputs": [
        {
          "internalType": "uint256",
          "name": "",
          "type": "uint256"
        }
      ],
      "stateMutability": "view",
      "type": "function"
    },
    {
      "inputs": [
        {
          "internalType": "address",
          "name": "",
          "type": "address"
        }
      ],
      "name": "minted",
      "outputs": [
        {
          "internalType": "uint256",
          "name": "",
          "type": "uint256"
        }
      ],
      "stateMutability": "view",
      "type": "function"
    },
    {
      "inputs": [],
      "name": "name",
      "outputs": [
        {
          "internalType": "string",
          "name": "",
          "type": "string"
        }
      ],
      "stateMutability": "view",
      "type": "function"
    },
    {
      "inputs": [],
      "name": "owner",
      "outputs": [
        {
          "internalType": "address",
          "name": "",
          "type": "address"
        }
      ],
      "stateMutability": "view",
      "type": "function"
    },
    {
      "inputs": [
        {
          "internalType": "uint256",
          "name": "tokenId",
          "type": "uint256"
        }
      ],
      "name": "ownerOf",
      "outputs": [
        {
          "internalType": "address",
          "name": "",
          "type": "address"
        }
      ],
      "stateMutability": "view",
      "type": "function"
    },
    {
      "inputs": [],
      "name": "price",
      "outputs": [
        {
          "internalType": "uint256",
          "name": "",
          "type": "uint256"
        }
      ],
      "stateMutability": "view",
      "type": "function"
    },
    {
      "inputs": [],
      "name": "renounceOwnership",
      "outputs": [],
      "stateMutability": "nonpayable",
      "type": "function"
    },
    {
      "inputs": [],
      "name": "reverseBirthday",
      "outputs": [
        {
          "internalType": "uint256",
          "name": "",
          "type": "uint256"
        }
      ],
      "stateMutability": "view",
      "type": "function"
    },
    {
      "inputs": [
        {
          "internalType": "address",
          "name": "from",
          "type": "address"
        },
        {
          "internalType": "address",
          "name": "to",
          "type": "address"
        },
        {
          "internalType": "uint256",
          "name": "tokenId",
          "type": "uint256"
        }
      ],
      "name": "safeTransferFrom",
      "outputs": [],
      "stateMutability": "nonpayable",
      "type": "function"
    },
    {
      "inputs": [
        {
          "internalType": "address",
          "name": "from",
          "type": "address"
        },
        {
          "internalType": "address",
          "name": "to",
          "type": "address"
        },
        {
          "internalType": "uint256",
          "name": "tokenId",
          "type": "uint256"
        },
        {
          "internalType": "bytes",
          "name": "_data",
          "type": "bytes"
        }
      ],
      "name": "safeTransferFrom",
      "outputs": [],
      "stateMutability": "nonpayable",
      "type": "function"
    },
    {
      "inputs": [
        {
          "internalType": "address",
          "name": "operator",
          "type": "address"
        },
        {
          "internalType": "bool",
          "name": "approved",
          "type": "bool"
        }
      ],
      "name": "setApprovalForAll",
      "outputs": [],
      "stateMutability": "nonpayable",
      "type": "function"
    },
    {
      "inputs": [
        {
          "internalType": "uint256",
          "name": "_mintActive",
          "type": "uint256"
        }
      ],
      "name": "setMintActive",
      "outputs": [],
      "stateMutability": "nonpayable",
      "type": "function"
    },
    {
      "inputs": [
        {
          "internalType": "bytes4",
          "name": "interfaceId",
          "type": "bytes4"
        }
      ],
      "name": "supportsInterface",
      "outputs": [
        {
          "internalType": "bool",
          "name": "",
          "type": "bool"
        }
      ],
      "stateMutability": "view",
      "type": "function"
    },
    {
      "inputs": [],
      "name": "symbol",
      "outputs": [
        {
          "internalType": "string",
          "name": "",
          "type": "string"
        }
      ],
      "stateMutability": "view",
      "type": "function"
    },
    {
      "inputs": [
        {
          "internalType": "uint256",
          "name": "tokenId",
          "type": "uint256"
        }
      ],
      "name": "tokenURI",
      "outputs": [
        {
          "internalType": "string",
          "name": "",
          "type": "string"
        }
      ],
      "stateMutability": "view",
      "type": "function"
    },
    {
      "inputs": [
        {
          "internalType": "address",
          "name": "from",
          "type": "address"
        },
        {
          "internalType": "address",
          "name": "to",
          "type": "address"
        },
        {
          "internalType": "uint256",
          "name": "tokenId",
          "type": "uint256"
        }
      ],
      "name": "transferFrom",
      "outputs": [],
      "stateMutability": "nonpayable",
      "type": "function"
    },
    {
      "inputs": [
        {
          "internalType": "address",
          "name": "newOwner",
          "type": "address"
        }
      ],
      "name": "transferOwnership",
      "outputs": [],
      "stateMutability": "nonpayable",
      "type": "function"
    },
    {
      "inputs": [],
      "name": "withdraw",
      "outputs": [],
      "stateMutability": "nonpayable",
      "type": "function"
    }
  ],
  "bytecode": "0x60806040526000600b553480156200001657600080fd5b5060405162001de738038062001de783398101604081905262000039916200025e565b8351849084906200005290600090602085019062000101565b5080516200006890600190602084019062000101565b505050620000856200007f620000ab60201b60201c565b620000af565b81516200009a90600890602085019062000101565b50600c55505043600a55506200034a565b3390565b600680546001600160a01b038381166001600160a01b0319831681179093556040519116919082907f8be0079c531659141344cd1fd0a4f28419497f9722a3daafe3b4186f6b6457e090600090a35050565b8280546200010f90620002f7565b90600052602060002090601f0160209004810192826200013357600085556200017e565b82601f106200014e57805160ff19168380011785556200017e565b828001600101855582156200017e579182015b828111156200017e57825182559160200191906001019062000161565b506200018c92915062000190565b5090565b5b808211156200018c576000815560010162000191565b600082601f830112620001b957600080fd5b81516001600160401b0380821115620001d657620001d662000334565b604051601f8301601f19908116603f0116810190828211818310171562000201576200020162000334565b816040528381526020925086838588010111156200021e57600080fd5b600091505b8382101562000242578582018301518183018401529082019062000223565b83821115620002545760008385830101525b9695505050505050565b600080600080608085870312156200027557600080fd5b84516001600160401b03808211156200028d57600080fd5b6200029b88838901620001a7565b95506020870151915080821115620002b257600080fd5b620002c088838901620001a7565b94506040870151915080821115620002d757600080fd5b50620002e687828801620001a7565b606096909601519497939650505050565b600181811c908216806200030c57607f821691505b602082108114156200032e57634e487b7160e01b600052602260045260246000fd5b50919050565b634e487b7160e01b600052604160045260246000fd5b611a8d806200035a6000396000f3fe60806040526004361061013c5760003560e01c806301ffc9a71461014157806306fdde0314610176578063081812fc14610198578063095ea7b3146101d057806312065fe0146101f25780631249c58b1461020f5780631e7269c51461021757806323b872dd1461024457806325fd90f3146102645780632ec376b81461027a5780633ccfd60b1461029057806342842e0e146102a55780636352211e146102c557806370a08231146102e5578063715018a61461030557806380b173351461031a5780638da5cb5b14610330578063946960201461034557806395d89b4114610365578063a035b1fe1461037a578063a1182e8e14610395578063a22cb465146103aa578063ac7fdfaf146103ca578063b88d4fde146103df578063c87b56dd146103ff578063e985e9c51461041f578063f2fde38b1461043f575b600080fd5b34801561014d57600080fd5b5061016161015c366004611686565b61045f565b60405190151581526020015b60405180910390f35b34801561018257600080fd5b5061018b6104b1565b60405161016d9190611805565b3480156101a457600080fd5b506101b86101b33660046116c0565b610543565b6040516001600160a01b03909116815260200161016d565b3480156101dc57600080fd5b506101f06101eb36600461165c565b6105d0565b005b3480156101fe57600080fd5b50475b60405190815260200161016d565b6101f06106e1565b34801561022357600080fd5b506102016102323660046114b4565b60096020526000908152604090205481565b34801561025057600080fd5b506101f061025f366004611509565b610877565b34801561027057600080fd5b50610201600b5481565b34801561028657600080fd5b50610201600a5481565b34801561029c57600080fd5b506101f06108a8565b3480156102b157600080fd5b506101f06102c0366004611509565b61090a565b3480156102d157600080fd5b506101b86102e03660046116c0565b610925565b3480156102f157600080fd5b506102016103003660046114b4565b61099c565b34801561031157600080fd5b506101f0610a23565b34801561032657600080fd5b50610201600c5481565b34801561033c57600080fd5b506101b8610a5e565b34801561035157600080fd5b506101f06103603660046116c0565b610a6d565b34801561037157600080fd5b5061018b610aa1565b34801561038657600080fd5b50610201662386f26fc1000081565b3480156103a157600080fd5b5061018b610ab0565b3480156103b657600080fd5b506101f06103c5366004611620565b610b3e565b3480156103d657600080fd5b50610161610bff565b3480156103eb57600080fd5b506101f06103fa366004611545565b610c13565b34801561040b57600080fd5b5061018b61041a3660046116c0565b610c4b565b34801561042b57600080fd5b5061016161043a3660046114d6565b610cee565b34801561044b57600080fd5b506101f061045a3660046114b4565b610d1c565b60006001600160e01b031982166380ac58cd60e01b148061049057506001600160e01b03198216635b5e139f60e01b145b806104ab57506301ffc9a760e01b6001600160e01b03198316145b92915050565b6060600080546104c09061195f565b80601f01602080910402602001604051908101604052809291908181526020018280546104ec9061195f565b80156105395780601f1061050e57610100808354040283529160200191610539565b820191906000526020600020905b81548152906001019060200180831161051c57829003601f168201915b5050505050905090565b600061054e82610db9565b6105b45760405162461bcd60e51b815260206004820152602c60248201527f4552433732313a20617070726f76656420717565727920666f72206e6f6e657860448201526b34b9ba32b73a103a37b5b2b760a11b60648201526084015b60405180910390fd5b506000908152600460205260409020546001600160a01b031690565b60006105db82610925565b9050806001600160a01b0316836001600160a01b031614156106495760405162461bcd60e51b815260206004820152602160248201527f4552433732313a20617070726f76616c20746f2063757272656e74206f776e656044820152603960f91b60648201526084016105ab565b336001600160a01b038216148061066557506106658133610cee565b6106d25760405162461bcd60e51b815260206004820152603860248201527f4552433732313a20617070726f76652063616c6c6572206973206e6f74206f776044820152771b995c881b9bdc88185c1c1c9bdd995908199bdc88185b1b60421b60648201526084016105ab565b6106dc8383610dd6565b505050565b600b5460011461072d5760405162461bcd60e51b815260206004820152601760248201527636b4b73a1034b9903737ba1030b1ba34bb32903937171760491b60448201526064016105ab565b32331461076f5760405162461bcd60e51b815260206004820152601060248201526f191bdb9d0819d95d0814d95d995b89d960821b60448201526064016105ab565b336000908152600960205260409020546001116107ce5760405162461bcd60e51b815260206004820152601e60248201527f6f6e6c792031206d696e74207065722077616c6c65742061646472657373000060448201526064016105ab565b600754600c541161084557662386f26fc100003410156108455760405162461bcd60e51b815260206004820152602c60248201527f6d696e74696e67206973206e6f206c6f6e67657220667265652c20697420636f60448201526b0e6e8e640605c606240cae8d60a31b60648201526084016105ab565b610853600780546001019055565b33600081815260096020526040902060019055600754906108749082610e44565b50565b6108813382610e5e565b61089d5760405162461bcd60e51b81526004016105ab9061189f565b6106dc838383610f28565b336108b1610a5e565b6001600160a01b0316146108d75760405162461bcd60e51b81526004016105ab9061186a565b6040514790339082156108fc029083906000818181858888f19350505050158015610906573d6000803e3d6000fd5b5050565b6106dc83838360405180602001604052806000815250610c13565b6000818152600260205260408120546001600160a01b0316806104ab5760405162461bcd60e51b815260206004820152602960248201527f4552433732313a206f776e657220717565727920666f72206e6f6e657869737460448201526832b73a103a37b5b2b760b91b60648201526084016105ab565b60006001600160a01b038216610a075760405162461bcd60e51b815260206004820152602a60248201527f4552433732313a2062616c616e636520717565727920666f7220746865207a65604482015269726f206164647265737360b01b60648201526084016105ab565b506001600160a01b031660009081526003602052604090205490565b33610a2c610a5e565b6001600160a01b031614610a525760405162461bcd60e51b81526004016105ab9061186a565b610a5c60006110b6565b565b6006546001600160a01b031690565b33610a76610a5e565b6001600160a01b031614610a9c5760405162461bcd60e51b81526004016105ab9061186a565b600b55565b6060600180546104c09061195f565b60088054610abd9061195f565b80601f0160208091040260200160405190810160405280929190818152602001828054610ae99061195f565b8015610b365780601f10610b0b57610100808354040283529160200191610b36565b820191906000526020600020905b815481529060010190602001808311610b1957829003601f168201915b505050505081565b6001600160a01b038216331415610b935760405162461bcd60e51b815260206004820152601960248201527822a9219b99189d1030b8383937bb32903a379031b0b63632b960391b60448201526064016105ab565b3360008181526005602090815260408083206001600160a01b03871680855290835292819020805460ff191686151590811790915590519081529192917f17307eab39ab6107e8899845ad3d59bd9653f200f220920489ca2b5937696c31910160405180910390a35050565b6000610c0a60075490565b600c5411905090565b610c1d3383610e5e565b610c395760405162461bcd60e51b81526004016105ab9061189f565b610c4584848484611108565b50505050565b6060610c5682610db9565b610cbc5760405162461bcd60e51b815260206004820152603160248201527f45524337323155524953746f726167653a2055524920717565727920666f72206044820152703737b732bc34b9ba32b73a103a37b5b2b760791b60648201526084016105ab565b6008610cc78361113b565b604051602001610cd8929190611721565b6040516020818303038152906040529050919050565b6001600160a01b03918216600090815260056020908152604080832093909416825291909152205460ff1690565b33610d25610a5e565b6001600160a01b031614610d4b5760405162461bcd60e51b81526004016105ab9061186a565b6001600160a01b038116610db05760405162461bcd60e51b815260206004820152602660248201527f4f776e61626c653a206e6577206f776e657220697320746865207a65726f206160448201526564647265737360d01b60648201526084016105ab565b610874816110b6565b6000908152600260205260409020546001600160a01b0316151590565b600081815260046020526040902080546001600160a01b0319166001600160a01b0384169081179091558190610e0b82610925565b6001600160a01b03167f8c5be1e5ebec7d5bd14f71427d1e84f3dd0314c0f7b2291e5b200ac8c7c3b92560405160405180910390a45050565b610906828260405180602001604052806000815250611238565b6000610e6982610db9565b610eca5760405162461bcd60e51b815260206004820152602c60248201527f4552433732313a206f70657261746f7220717565727920666f72206e6f6e657860448201526b34b9ba32b73a103a37b5b2b760a11b60648201526084016105ab565b6000610ed583610925565b9050806001600160a01b0316846001600160a01b03161480610f105750836001600160a01b0316610f0584610543565b6001600160a01b0316145b80610f205750610f208185610cee565b949350505050565b826001600160a01b0316610f3b82610925565b6001600160a01b031614610fa35760405162461bcd60e51b815260206004820152602960248201527f4552433732313a207472616e73666572206f6620746f6b656e2074686174206960448201526839903737ba1037bbb760b91b60648201526084016105ab565b6001600160a01b0382166110055760405162461bcd60e51b8152602060048201526024808201527f4552433732313a207472616e7366657220746f20746865207a65726f206164646044820152637265737360e01b60648201526084016105ab565b611010600082610dd6565b6001600160a01b038316600090815260036020526040812080546001929061103990849061191c565b90915550506001600160a01b03821660009081526003602052604081208054600192906110679084906118f0565b909155505060008181526002602052604080822080546001600160a01b0319166001600160a01b038681169182179092559151849391871691600080516020611a3883398151915291a4505050565b600680546001600160a01b038381166001600160a01b0319831681179093556040519116919082907f8be0079c531659141344cd1fd0a4f28419497f9722a3daafe3b4186f6b6457e090600090a35050565b611113848484610f28565b61111f8484848461126b565b610c455760405162461bcd60e51b81526004016105ab90611818565b60608161115f5750506040805180820190915260018152600360fc1b602082015290565b8160005b811561118957806111738161199a565b91506111829050600a83611908565b9150611163565b6000816001600160401b038111156111a3576111a3611a0b565b6040519080825280601f01601f1916602001820160405280156111cd576020820181803683370190505b5090505b8415610f20576111e260018361191c565b91506111ef600a866119b5565b6111fa9060306118f0565b60f81b81838151811061120f5761120f6119f5565b60200101906001600160f81b031916908160001a905350611231600a86611908565b94506111d1565b6112428383611378565b61124f600084848461126b565b6106dc5760405162461bcd60e51b81526004016105ab90611818565b60006001600160a01b0384163b1561136d57604051630a85bd0160e11b81526001600160a01b0385169063150b7a02906112af9033908990889088906004016117c8565b602060405180830381600087803b1580156112c957600080fd5b505af19250505080156112f9575060408051601f3d908101601f191682019092526112f6918101906116a3565b60015b611353573d808015611327576040519150601f19603f3d011682016040523d82523d6000602084013e61132c565b606091505b50805161134b5760405162461bcd60e51b81526004016105ab90611818565b805181602001fd5b6001600160e01b031916630a85bd0160e11b149050610f20565b506001949350505050565b6001600160a01b0382166113ce5760405162461bcd60e51b815260206004820181905260248201527f4552433732313a206d696e7420746f20746865207a65726f206164647265737360448201526064016105ab565b6113d781610db9565b156114235760405162461bcd60e51b815260206004820152601c60248201527b115490cdcc8c4e881d1bdad95b88185b1c9958591e481b5a5b9d195960221b60448201526064016105ab565b6001600160a01b038216600090815260036020526040812080546001929061144c9084906118f0565b909155505060008181526002602052604080822080546001600160a01b0319166001600160a01b0386169081179091559051839290600080516020611a38833981519152908290a45050565b80356001600160a01b03811681146114af57600080fd5b919050565b6000602082840312156114c657600080fd5b6114cf82611498565b9392505050565b600080604083850312156114e957600080fd5b6114f283611498565b915061150060208401611498565b90509250929050565b60008060006060848603121561151e57600080fd5b61152784611498565b925061153560208501611498565b9150604084013590509250925092565b6000806000806080858703121561155b57600080fd5b61156485611498565b935061157260208601611498565b92506040850135915060608501356001600160401b038082111561159557600080fd5b818701915087601f8301126115a957600080fd5b8135818111156115bb576115bb611a0b565b604051601f8201601f19908116603f011681019083821181831017156115e3576115e3611a0b565b816040528281528a60208487010111156115fc57600080fd5b82602086016020830137600060208483010152809550505050505092959194509250565b6000806040838503121561163357600080fd5b61163c83611498565b91506020830135801515811461165157600080fd5b809150509250929050565b6000806040838503121561166f57600080fd5b61167883611498565b946020939093013593505050565b60006020828403121561169857600080fd5b81356114cf81611a21565b6000602082840312156116b557600080fd5b81516114cf81611a21565b6000602082840312156116d257600080fd5b5035919050565b600081518084526116f1816020860160208601611933565b601f01601f19169290920160200192915050565b60008151611717818560208601611933565b9290920192915050565b600080845481600182811c91508083168061173d57607f831692505b602080841082141561175d57634e487b7160e01b86526022600452602486fd5b8180156117715760018114611782576117af565b60ff198616895284890196506117af565b60008b81526020902060005b868110156117a75781548b82015290850190830161178e565b505084890196505b5050505050506117bf8185611705565b95945050505050565b6001600160a01b03858116825284166020820152604081018390526080606082018190526000906117fb908301846116d9565b9695505050505050565b6020815260006114cf60208301846116d9565b60208082526032908201527f4552433732313a207472616e7366657220746f206e6f6e20455243373231526560408201527131b2b4bb32b91034b6b83632b6b2b73a32b960711b606082015260800190565b6020808252818101527f4f776e61626c653a2063616c6c6572206973206e6f7420746865206f776e6572604082015260600190565b60208082526031908201527f4552433732313a207472616e736665722063616c6c6572206973206e6f74206f6040820152701ddb995c881b9bdc88185c1c1c9bdd9959607a1b606082015260800190565b60008219821115611903576119036119c9565b500190565b600082611917576119176119df565b500490565b60008282101561192e5761192e6119c9565b500390565b60005b8381101561194e578181015183820152602001611936565b83811115610c455750506000910152565b600181811c9082168061197357607f821691505b6020821081141561199457634e487b7160e01b600052602260045260246000fd5b50919050565b60006000198214156119ae576119ae6119c9565b5060010190565b6000826119c4576119c46119df565b500690565b634e487b7160e01b600052601160045260246000fd5b634e487b7160e01b600052601260045260246000fd5b634e487b7160e01b600052603260045260246000fd5b634e487b7160e01b600052604160045260246000fd5b6001600160e01b03198116811461087457600080fdfeddf252ad1be2c89b69c2b068fc378daa952ba7f163c4a11628f55a4df523b3efa2646970667358221220b0b1994bea36806c66d1f407e0fab91d994c1960cbcd690cd0e7bd47f51500c264736f6c63430008060033",
  "linkReferences": {},
  "deployedLinkReferences": {}
}