{
  "_format": "hh-sol-artifact-1",
  "contractName": "ethAge",
  "sourceName": "contracts/ethAge.sol",
  "abi": [
    {
      "inputs": [
        {
          "internalType": "string",
          "name": "_name",
          "type": "string"
        },
        {
          "internalType": "string",
          "name": "_symbol",
          "type": "string"
        },
        {
          "internalType": "string",
          "name": "_metadataFolderURI",
          "type": "string"
        },
        {
          "internalType": "uint256",
          "name": "_freeMints",
          "type": "uint256"
        }
      ],
      "stateMutability": "nonpayable",
      "type": "constructor"
    },
    {
      "anonymous": false,
      "inputs": [
        {
          "indexed": true,
          "internalType": "address",
          "name": "owner",
          "type": "address"
        },
        {
          "indexed": true,
          "internalType": "address",
          "name": "approved",
          "type": "address"
        },
        {
          "indexed": true,
          "internalType": "uint256",
          "name": "tokenId",
          "type": "uint256"
        }
      ],
      "name": "Approval",
      "type": "event"
    },
    {
      "anonymous": false,
      "inputs": [
        {
          "indexed": true,
          "internalType": "address",
          "name": "owner",
          "type": "address"
        },
        {
          "indexed": true,
          "internalType": "address",
          "name": "operator",
          "type": "address"
        },
        {
          "indexed": false,
          "internalType": "bool",
          "name": "approved",
          "type": "bool"
        }
      ],
      "name": "ApprovalForAll",
      "type": "event"
    },
    {
      "anonymous": false,
      "inputs": [
        {
          "indexed": true,
          "internalType": "address",
          "name": "previousOwner",
          "type": "address"
        },
        {
          "indexed": true,
          "internalType": "address",
          "name": "newOwner",
          "type": "address"
        }
      ],
      "name": "OwnershipTransferred",
      "type": "event"
    },
    {
      "anonymous": false,
      "inputs": [
        {
          "indexed": true,
          "internalType": "address",
          "name": "from",
          "type": "address"
        },
        {
          "indexed": true,
          "internalType": "address",
          "name": "to",
          "type": "address"
        },
        {
          "indexed": true,
          "internalType": "uint256",
          "name": "tokenId",
          "type": "uint256"
        }
      ],
      "name": "Transfer",
      "type": "event"
    },
    {
      "inputs": [
        {
          "internalType": "address",
          "name": "to",
          "type": "address"
        },
        {
          "internalType": "uint256",
          "name": "tokenId",
          "type": "uint256"
        }
      ],
      "name": "approve",
      "outputs": [],
      "stateMutability": "nonpayable",
      "type": "function"
    },
    {
      "inputs": [
        {
          "internalType": "address",
          "name": "owner",
          "type": "address"
        }
      ],
      "name": "balanceOf",
      "outputs": [
        {
          "internalType": "uint256",
          "name": "",
          "type": "uint256"
        }
      ],
      "stateMutability": "view",
      "type": "function"
    },
    {
      "inputs": [],
      "name": "freeMints",
      "outputs": [
        {
          "internalType": "uint256",
          "name": "",
          "type": "uint256"
        }
      ],
      "stateMutability": "view",
      "type": "function"
    },
    {
      "inputs": [
        {
          "internalType": "uint256",
          "name": "tokenId",
          "type": "uint256"
        }
      ],
      "name": "getApproved",
      "outputs": [
        {
          "internalType": "address",
          "name": "",
          "type": "address"
        }
      ],
      "stateMutability": "view",
      "type": "function"
    },
    {
      "inputs": [
        {
          "internalType": "address",
          "name": "owner",
          "type": "address"
        },
        {
          "internalType": "address",
          "name": "operator",
          "type": "address"
        }
      ],
      "name": "isApprovedForAll",
      "outputs": [
        {
          "internalType": "bool",
          "name": "",
          "type": "bool"
        }
      ],
      "stateMutability": "view",
      "type": "function"
    },
    {
      "inputs": [],
      "name": "isMintFree",
      "outputs": [
        {
          "internalType": "bool",
          "name": "",
          "type": "bool"
        }
      ],
      "stateMutability": "view",
      "type": "function"
    },
    {
      "inputs": [],
      "name": "metadataFolderURI",
      "outputs": [
        {
          "internalType": "string",
          "name": "",
          "type": "string"
        }
      ],
      "stateMutability": "view",
      "type": "function"
    },
    {
      "inputs": [],
      "name": "mint",
      "outputs": [],
      "stateMutability": "payable",
      "type": "function"
    },
    {
      "inputs": [],
      "name": "mintActive",
      "outputs": [
        {
          "internalType": "bool",
          "name": "",
          "type": "bool"
        }
      ],
      "stateMutability": "view",
      "type": "function"
    },
    {
      "inputs": [
        {
          "internalType": "address",
          "name": "",
          "type": "address"
        }
      ],
      "name": "minted",
      "outputs": [
        {
          "internalType": "uint8",
          "name": "",
          "type": "uint8"
        }
      ],
      "stateMutability": "view",
      "type": "function"
    },
    {
      "inputs": [],
      "name": "name",
      "outputs": [
        {
          "internalType": "string",
          "name": "",
          "type": "string"
        }
      ],
      "stateMutability": "view",
      "type": "function"
    },
    {
      "inputs": [],
      "name": "owner",
      "outputs": [
        {
          "internalType": "address",
          "name": "",
          "type": "address"
        }
      ],
      "stateMutability": "view",
      "type": "function"
    },
    {
      "inputs": [
        {
          "internalType": "uint256",
          "name": "tokenId",
          "type": "uint256"
        }
      ],
      "name": "ownerOf",
      "outputs": [
        {
          "internalType": "address",
          "name": "",
          "type": "address"
        }
      ],
      "stateMutability": "view",
      "type": "function"
    },
    {
      "inputs": [],
      "name": "price",
      "outputs": [
        {
          "internalType": "uint256",
          "name": "",
          "type": "uint256"
        }
      ],
      "stateMutability": "view",
      "type": "function"
    },
    {
      "inputs": [],
      "name": "renounceOwnership",
      "outputs": [],
      "stateMutability": "nonpayable",
      "type": "function"
    },
    {
      "inputs": [],
      "name": "reverseBirthday",
      "outputs": [
        {
          "internalType": "uint256",
          "name": "",
          "type": "uint256"
        }
      ],
      "stateMutability": "view",
      "type": "function"
    },
    {
      "inputs": [
        {
          "internalType": "address",
          "name": "from",
          "type": "address"
        },
        {
          "internalType": "address",
          "name": "to",
          "type": "address"
        },
        {
          "internalType": "uint256",
          "name": "tokenId",
          "type": "uint256"
        }
      ],
      "name": "safeTransferFrom",
      "outputs": [],
      "stateMutability": "nonpayable",
      "type": "function"
    },
    {
      "inputs": [
        {
          "internalType": "address",
          "name": "from",
          "type": "address"
        },
        {
          "internalType": "address",
          "name": "to",
          "type": "address"
        },
        {
          "internalType": "uint256",
          "name": "tokenId",
          "type": "uint256"
        },
        {
          "internalType": "bytes",
          "name": "_data",
          "type": "bytes"
        }
      ],
      "name": "safeTransferFrom",
      "outputs": [],
      "stateMutability": "nonpayable",
      "type": "function"
    },
    {
      "inputs": [
        {
          "internalType": "address",
          "name": "operator",
          "type": "address"
        },
        {
          "internalType": "bool",
          "name": "approved",
          "type": "bool"
        }
      ],
      "name": "setApprovalForAll",
      "outputs": [],
      "stateMutability": "nonpayable",
      "type": "function"
    },
    {
      "inputs": [
        {
          "internalType": "bool",
          "name": "_mintActive",
          "type": "bool"
        }
      ],
      "name": "setMintActive",
      "outputs": [],
      "stateMutability": "nonpayable",
      "type": "function"
    },
    {
      "inputs": [
        {
          "internalType": "bytes4",
          "name": "interfaceId",
          "type": "bytes4"
        }
      ],
      "name": "supportsInterface",
      "outputs": [
        {
          "internalType": "bool",
          "name": "",
          "type": "bool"
        }
      ],
      "stateMutability": "view",
      "type": "function"
    },
    {
      "inputs": [],
      "name": "symbol",
      "outputs": [
        {
          "internalType": "string",
          "name": "",
          "type": "string"
        }
      ],
      "stateMutability": "view",
      "type": "function"
    },
    {
      "inputs": [
        {
          "internalType": "uint256",
          "name": "tokenId",
          "type": "uint256"
        }
      ],
      "name": "tokenURI",
      "outputs": [
        {
          "internalType": "string",
          "name": "",
          "type": "string"
        }
      ],
      "stateMutability": "view",
      "type": "function"
    },
    {
      "inputs": [
        {
          "internalType": "address",
          "name": "from",
          "type": "address"
        },
        {
          "internalType": "address",
          "name": "to",
          "type": "address"
        },
        {
          "internalType": "uint256",
          "name": "tokenId",
          "type": "uint256"
        }
      ],
      "name": "transferFrom",
      "outputs": [],
      "stateMutability": "nonpayable",
      "type": "function"
    },
    {
      "inputs": [
        {
          "internalType": "address",
          "name": "newOwner",
          "type": "address"
        }
      ],
      "name": "transferOwnership",
      "outputs": [],
      "stateMutability": "nonpayable",
      "type": "function"
    },
    {
      "inputs": [],
      "name": "withdraw",
      "outputs": [],
      "stateMutability": "nonpayable",
      "type": "function"
    }
  ],
  "bytecode": "0x60806040526006805460ff60a01b191690553480156200001e57600080fd5b5060405162001e4638038062001e46833981016040819052620000419162000266565b8351849084906200005a90600090602085019062000109565b5080516200007090600190602084019062000109565b5050506200008d62000087620000b360201b60201c565b620000b7565b8151620000a290600890602085019062000109565b50600955505043600b555062000352565b3390565b600680546001600160a01b038381166001600160a01b0319831681179093556040519116919082907f8be0079c531659141344cd1fd0a4f28419497f9722a3daafe3b4186f6b6457e090600090a35050565b8280546200011790620002ff565b90600052602060002090601f0160209004810192826200013b576000855562000186565b82601f106200015657805160ff191683800117855562000186565b8280016001018555821562000186579182015b828111156200018657825182559160200191906001019062000169565b506200019492915062000198565b5090565b5b8082111562000194576000815560010162000199565b600082601f830112620001c157600080fd5b81516001600160401b0380821115620001de57620001de6200033c565b604051601f8301601f19908116603f011681019082821181831017156200020957620002096200033c565b816040528381526020925086838588010111156200022657600080fd5b600091505b838210156200024a57858201830151818301840152908201906200022b565b838211156200025c5760008385830101525b9695505050505050565b600080600080608085870312156200027d57600080fd5b84516001600160401b03808211156200029557600080fd5b620002a388838901620001af565b95506020870151915080821115620002ba57600080fd5b620002c888838901620001af565b94506040870151915080821115620002df57600080fd5b50620002ee87828801620001af565b606096909601519497939650505050565b600181811c908216806200031457607f821691505b602082108114156200033657634e487b7160e01b600052602260045260246000fd5b50919050565b634e487b7160e01b600052604160045260246000fd5b611ae480620003626000396000f3fe6080604052600436106101315760003560e01c806301ffc9a71461013657806306fdde031461016b578063081812fc1461018d578063095ea7b3146101c55780631249c58b146101e75780631e7269c5146101ef57806323b872dd1461023157806325fd90f3146102515780632ec376b8146102725780633ccfd60b1461029657806342842e0e146102ab5780636352211e146102cb57806370a08231146102eb578063715018a61461030b57806380b17335146103205780638da5cb5b1461033657806395d89b411461034b578063a035b1fe14610360578063a1182e8e1461037b578063a22cb46514610390578063ac7fdfaf146103b0578063b88d4fde146103c5578063c87b56dd146103e5578063e985e9c514610405578063ee1cc94414610425578063f2fde38b14610445575b600080fd5b34801561014257600080fd5b506101566101513660046116dd565b610465565b60405190151581526020015b60405180910390f35b34801561017757600080fd5b506101806104b7565b604051610162919061185c565b34801561019957600080fd5b506101ad6101a8366004611717565b610549565b6040516001600160a01b039091168152602001610162565b3480156101d157600080fd5b506101e56101e0366004611698565b6105d6565b005b6101e56106e7565b3480156101fb57600080fd5b5061021f61020a366004611502565b600a6020526000908152604090205460ff1681565b60405160ff9091168152602001610162565b34801561023d57600080fd5b506101e561024c366004611557565b61089c565b34801561025d57600080fd5b5060065461015690600160a01b900460ff1681565b34801561027e57600080fd5b50610288600b5481565b604051908152602001610162565b3480156102a257600080fd5b506101e56108cd565b3480156102b757600080fd5b506101e56102c6366004611557565b61092f565b3480156102d757600080fd5b506101ad6102e6366004611717565b61094a565b3480156102f757600080fd5b50610288610306366004611502565b6109c1565b34801561031757600080fd5b506101e5610a48565b34801561032c57600080fd5b5061028860095481565b34801561034257600080fd5b506101ad610a83565b34801561035757600080fd5b50610180610a92565b34801561036c57600080fd5b50610288662386f26fc1000081565b34801561038757600080fd5b50610180610aa1565b34801561039c57600080fd5b506101e56103ab36600461166e565b610b2f565b3480156103bc57600080fd5b50610156610bf0565b3480156103d157600080fd5b506101e56103e0366004611593565b610c04565b3480156103f157600080fd5b50610180610400366004611717565b610c3c565b34801561041157600080fd5b50610156610420366004611524565b610cdf565b34801561043157600080fd5b506101e56104403660046116c2565b610d0d565b34801561045157600080fd5b506101e5610460366004611502565b610d5a565b60006001600160e01b031982166380ac58cd60e01b148061049657506001600160e01b03198216635b5e139f60e01b145b806104b157506301ffc9a760e01b6001600160e01b03198316145b92915050565b6060600080546104c6906119b6565b80601f01602080910402602001604051908101604052809291908181526020018280546104f2906119b6565b801561053f5780601f106105145761010080835404028352916020019161053f565b820191906000526020600020905b81548152906001019060200180831161052257829003601f168201915b5050505050905090565b600061055482610df7565b6105ba5760405162461bcd60e51b815260206004820152602c60248201527f4552433732313a20617070726f76656420717565727920666f72206e6f6e657860448201526b34b9ba32b73a103a37b5b2b760a11b60648201526084015b60405180910390fd5b506000908152600460205260409020546001600160a01b031690565b60006105e18261094a565b9050806001600160a01b0316836001600160a01b0316141561064f5760405162461bcd60e51b815260206004820152602160248201527f4552433732313a20617070726f76616c20746f2063757272656e74206f776e656044820152603960f91b60648201526084016105b1565b336001600160a01b038216148061066b575061066b8133610cdf565b6106d85760405162461bcd60e51b815260206004820152603860248201527f4552433732313a20617070726f76652063616c6c6572206973206e6f74206f776044820152771b995c881b9bdc88185c1c1c9bdd995908199bdc88185b1b60421b60648201526084016105b1565b6106e28383610e14565b505050565b600654600160a01b900460ff16151560011461073f5760405162461bcd60e51b815260206004820152601760248201527636b4b73a1034b9903737ba1030b1ba34bb32903937171760491b60448201526064016105b1565b3233146107815760405162461bcd60e51b815260206004820152601060248201526f191bdb9d0819d95d0814d95d995b89d960821b60448201526064016105b1565b336000908152600a6020526040902054600160ff909116106107e55760405162461bcd60e51b815260206004820152601e60248201527f6f6e6c792031206d696e74207065722077616c6c65742061646472657373000060448201526064016105b1565b6007546009541161085c57662386f26fc1000034101561085c5760405162461bcd60e51b815260206004820152602c60248201527f6d696e74696e67206973206e6f206c6f6e67657220667265652c20697420636f60448201526b0e6e8e640605c606240cae8d60a31b60648201526084016105b1565b61086a600780546001019055565b336000908152600a60205260408120805460ff1916600117905561088d60075490565b90506108993382610e82565b50565b6108a63382610e9c565b6108c25760405162461bcd60e51b81526004016105b1906118f6565b6106e2838383610f66565b336108d6610a83565b6001600160a01b0316146108fc5760405162461bcd60e51b81526004016105b1906118c1565b6040514790339082156108fc029083906000818181858888f1935050505015801561092b573d6000803e3d6000fd5b5050565b6106e283838360405180602001604052806000815250610c04565b6000818152600260205260408120546001600160a01b0316806104b15760405162461bcd60e51b815260206004820152602960248201527f4552433732313a206f776e657220717565727920666f72206e6f6e657869737460448201526832b73a103a37b5b2b760b91b60648201526084016105b1565b60006001600160a01b038216610a2c5760405162461bcd60e51b815260206004820152602a60248201527f4552433732313a2062616c616e636520717565727920666f7220746865207a65604482015269726f206164647265737360b01b60648201526084016105b1565b506001600160a01b031660009081526003602052604090205490565b33610a51610a83565b6001600160a01b031614610a775760405162461bcd60e51b81526004016105b1906118c1565b610a8160006110f4565b565b6006546001600160a01b031690565b6060600180546104c6906119b6565b60088054610aae906119b6565b80601f0160208091040260200160405190810160405280929190818152602001828054610ada906119b6565b8015610b275780601f10610afc57610100808354040283529160200191610b27565b820191906000526020600020905b815481529060010190602001808311610b0a57829003601f168201915b505050505081565b6001600160a01b038216331415610b845760405162461bcd60e51b815260206004820152601960248201527822a9219b99189d1030b8383937bb32903a379031b0b63632b960391b60448201526064016105b1565b3360008181526005602090815260408083206001600160a01b03871680855290835292819020805460ff191686151590811790915590519081529192917f17307eab39ab6107e8899845ad3d59bd9653f200f220920489ca2b5937696c31910160405180910390a35050565b6000610bfb60075490565b60095411905090565b610c0e3383610e9c565b610c2a5760405162461bcd60e51b81526004016105b1906118f6565b610c3684848484611146565b50505050565b6060610c4782610df7565b610cad5760405162461bcd60e51b815260206004820152603160248201527f45524337323155524953746f726167653a2055524920717565727920666f72206044820152703737b732bc34b9ba32b73a103a37b5b2b760791b60648201526084016105b1565b6008610cb883611179565b604051602001610cc9929190611778565b6040516020818303038152906040529050919050565b6001600160a01b03918216600090815260056020908152604080832093909416825291909152205460ff1690565b33610d16610a83565b6001600160a01b031614610d3c5760405162461bcd60e51b81526004016105b1906118c1565b60068054911515600160a01b0260ff60a01b19909216919091179055565b33610d63610a83565b6001600160a01b031614610d895760405162461bcd60e51b81526004016105b1906118c1565b6001600160a01b038116610dee5760405162461bcd60e51b815260206004820152602660248201527f4f776e61626c653a206e6577206f776e657220697320746865207a65726f206160448201526564647265737360d01b60648201526084016105b1565b610899816110f4565b6000908152600260205260409020546001600160a01b0316151590565b600081815260046020526040902080546001600160a01b0319166001600160a01b0384169081179091558190610e498261094a565b6001600160a01b03167f8c5be1e5ebec7d5bd14f71427d1e84f3dd0314c0f7b2291e5b200ac8c7c3b92560405160405180910390a45050565b61092b828260405180602001604052806000815250611276565b6000610ea782610df7565b610f085760405162461bcd60e51b815260206004820152602c60248201527f4552433732313a206f70657261746f7220717565727920666f72206e6f6e657860448201526b34b9ba32b73a103a37b5b2b760a11b60648201526084016105b1565b6000610f138361094a565b9050806001600160a01b0316846001600160a01b03161480610f4e5750836001600160a01b0316610f4384610549565b6001600160a01b0316145b80610f5e5750610f5e8185610cdf565b949350505050565b826001600160a01b0316610f798261094a565b6001600160a01b031614610fe15760405162461bcd60e51b815260206004820152602960248201527f4552433732313a207472616e73666572206f6620746f6b656e2074686174206960448201526839903737ba1037bbb760b91b60648201526084016105b1565b6001600160a01b0382166110435760405162461bcd60e51b8152602060048201526024808201527f4552433732313a207472616e7366657220746f20746865207a65726f206164646044820152637265737360e01b60648201526084016105b1565b61104e600082610e14565b6001600160a01b0383166000908152600360205260408120805460019290611077908490611973565b90915550506001600160a01b03821660009081526003602052604081208054600192906110a5908490611947565b909155505060008181526002602052604080822080546001600160a01b0319166001600160a01b038681169182179092559151849391871691600080516020611a8f83398151915291a4505050565b600680546001600160a01b038381166001600160a01b0319831681179093556040519116919082907f8be0079c531659141344cd1fd0a4f28419497f9722a3daafe3b4186f6b6457e090600090a35050565b611151848484610f66565b61115d848484846112a9565b610c365760405162461bcd60e51b81526004016105b19061186f565b60608161119d5750506040805180820190915260018152600360fc1b602082015290565b8160005b81156111c757806111b1816119f1565b91506111c09050600a8361195f565b91506111a1565b6000816001600160401b038111156111e1576111e1611a62565b6040519080825280601f01601f19166020018201604052801561120b576020820181803683370190505b5090505b8415610f5e57611220600183611973565b915061122d600a86611a0c565b611238906030611947565b60f81b81838151811061124d5761124d611a4c565b60200101906001600160f81b031916908160001a90535061126f600a8661195f565b945061120f565b61128083836113b6565b61128d60008484846112a9565b6106e25760405162461bcd60e51b81526004016105b19061186f565b60006001600160a01b0384163b156113ab57604051630a85bd0160e11b81526001600160a01b0385169063150b7a02906112ed90339089908890889060040161181f565b602060405180830381600087803b15801561130757600080fd5b505af1925050508015611337575060408051601f3d908101601f19168201909252611334918101906116fa565b60015b611391573d808015611365576040519150601f19603f3d011682016040523d82523d6000602084013e61136a565b606091505b5080516113895760405162461bcd60e51b81526004016105b19061186f565b805181602001fd5b6001600160e01b031916630a85bd0160e11b149050610f5e565b506001949350505050565b6001600160a01b03821661140c5760405162461bcd60e51b815260206004820181905260248201527f4552433732313a206d696e7420746f20746865207a65726f206164647265737360448201526064016105b1565b61141581610df7565b156114615760405162461bcd60e51b815260206004820152601c60248201527b115490cdcc8c4e881d1bdad95b88185b1c9958591e481b5a5b9d195960221b60448201526064016105b1565b6001600160a01b038216600090815260036020526040812080546001929061148a908490611947565b909155505060008181526002602052604080822080546001600160a01b0319166001600160a01b0386169081179091559051839290600080516020611a8f833981519152908290a45050565b80356001600160a01b03811681146114ed57600080fd5b919050565b803580151581146114ed57600080fd5b60006020828403121561151457600080fd5b61151d826114d6565b9392505050565b6000806040838503121561153757600080fd5b611540836114d6565b915061154e602084016114d6565b90509250929050565b60008060006060848603121561156c57600080fd5b611575846114d6565b9250611583602085016114d6565b9150604084013590509250925092565b600080600080608085870312156115a957600080fd5b6115b2856114d6565b93506115c0602086016114d6565b92506040850135915060608501356001600160401b03808211156115e357600080fd5b818701915087601f8301126115f757600080fd5b81358181111561160957611609611a62565b604051601f8201601f19908116603f0116810190838211818310171561163157611631611a62565b816040528281528a602084870101111561164a57600080fd5b82602086016020830137600060208483010152809550505050505092959194509250565b6000806040838503121561168157600080fd5b61168a836114d6565b915061154e602084016114f2565b600080604083850312156116ab57600080fd5b6116b4836114d6565b946020939093013593505050565b6000602082840312156116d457600080fd5b61151d826114f2565b6000602082840312156116ef57600080fd5b813561151d81611a78565b60006020828403121561170c57600080fd5b815161151d81611a78565b60006020828403121561172957600080fd5b5035919050565b6000815180845261174881602086016020860161198a565b601f01601f19169290920160200192915050565b6000815161176e81856020860161198a565b9290920192915050565b600080845481600182811c91508083168061179457607f831692505b60208084108214156117b457634e487b7160e01b86526022600452602486fd5b8180156117c857600181146117d957611806565b60ff19861689528489019650611806565b60008b81526020902060005b868110156117fe5781548b8201529085019083016117e5565b505084890196505b505050505050611816818561175c565b95945050505050565b6001600160a01b038581168252841660208201526040810183905260806060820181905260009061185290830184611730565b9695505050505050565b60208152600061151d6020830184611730565b60208082526032908201527f4552433732313a207472616e7366657220746f206e6f6e20455243373231526560408201527131b2b4bb32b91034b6b83632b6b2b73a32b960711b606082015260800190565b6020808252818101527f4f776e61626c653a2063616c6c6572206973206e6f7420746865206f776e6572604082015260600190565b60208082526031908201527f4552433732313a207472616e736665722063616c6c6572206973206e6f74206f6040820152701ddb995c881b9bdc88185c1c1c9bdd9959607a1b606082015260800190565b6000821982111561195a5761195a611a20565b500190565b60008261196e5761196e611a36565b500490565b60008282101561198557611985611a20565b500390565b60005b838110156119a557818101518382015260200161198d565b83811115610c365750506000910152565b600181811c908216806119ca57607f821691505b602082108114156119eb57634e487b7160e01b600052602260045260246000fd5b50919050565b6000600019821415611a0557611a05611a20565b5060010190565b600082611a1b57611a1b611a36565b500690565b634e487b7160e01b600052601160045260246000fd5b634e487b7160e01b600052601260045260246000fd5b634e487b7160e01b600052603260045260246000fd5b634e487b7160e01b600052604160045260246000fd5b6001600160e01b03198116811461089957600080fdfeddf252ad1be2c89b69c2b068fc378daa952ba7f163c4a11628f55a4df523b3efa26469706673582212202137adb52708628d5a2f06f9803adeea984a162585d93e0a94c464e34c519c0564736f6c63430008060033",
  "linkReferences": {},
  "deployedLinkReferences": {}
}