{
  "_format": "hh-sol-artifact-1",
  "contractName": "birthblock",
  "sourceName": "contracts/birthblock.sol",
  "abi": [
    {
      "inputs": [
        {
          "internalType": "string",
          "name": "_name",
          "type": "string"
        },
        {
          "internalType": "string",
          "name": "_symbol",
          "type": "string"
        },
        {
          "internalType": "string",
          "name": "_metadataFolderURI",
          "type": "string"
        },
        {
          "internalType": "uint256",
          "name": "_freeMints",
          "type": "uint256"
        },
        {
          "internalType": "uint256",
          "name": "_mintsPerAddress",
          "type": "uint256"
        },
        {
          "internalType": "string",
          "name": "_openseaContractMetadataURL",
          "type": "string"
        }
      ],
      "stateMutability": "nonpayable",
      "type": "constructor"
    },
    {
      "anonymous": false,
      "inputs": [
        {
          "indexed": true,
          "internalType": "address",
          "name": "owner",
          "type": "address"
        },
        {
          "indexed": true,
          "internalType": "address",
          "name": "approved",
          "type": "address"
        },
        {
          "indexed": true,
          "internalType": "uint256",
          "name": "tokenId",
          "type": "uint256"
        }
      ],
      "name": "Approval",
      "type": "event"
    },
    {
      "anonymous": false,
      "inputs": [
        {
          "indexed": true,
          "internalType": "address",
          "name": "owner",
          "type": "address"
        },
        {
          "indexed": true,
          "internalType": "address",
          "name": "operator",
          "type": "address"
        },
        {
          "indexed": false,
          "internalType": "bool",
          "name": "approved",
          "type": "bool"
        }
      ],
      "name": "ApprovalForAll",
      "type": "event"
    },
    {
      "anonymous": false,
      "inputs": [
        {
          "indexed": true,
          "internalType": "address",
          "name": "_minter",
          "type": "address"
        },
        {
          "indexed": true,
          "internalType": "uint256",
          "name": "_token_id",
          "type": "uint256"
        }
      ],
      "name": "Mint",
      "type": "event"
    },
    {
      "anonymous": false,
      "inputs": [
        {
          "indexed": true,
          "internalType": "address",
          "name": "previousOwner",
          "type": "address"
        },
        {
          "indexed": true,
          "internalType": "address",
          "name": "newOwner",
          "type": "address"
        }
      ],
      "name": "OwnershipTransferred",
      "type": "event"
    },
    {
      "anonymous": false,
      "inputs": [
        {
          "indexed": true,
          "internalType": "address",
          "name": "from",
          "type": "address"
        },
        {
          "indexed": true,
          "internalType": "address",
          "name": "to",
          "type": "address"
        },
        {
          "indexed": true,
          "internalType": "uint256",
          "name": "tokenId",
          "type": "uint256"
        }
      ],
      "name": "Transfer",
      "type": "event"
    },
    {
      "inputs": [
        {
          "internalType": "address",
          "name": "to",
          "type": "address"
        },
        {
          "internalType": "uint256",
          "name": "tokenId",
          "type": "uint256"
        }
      ],
      "name": "approve",
      "outputs": [],
      "stateMutability": "nonpayable",
      "type": "function"
    },
    {
      "inputs": [
        {
          "internalType": "address",
          "name": "owner",
          "type": "address"
        }
      ],
      "name": "balanceOf",
      "outputs": [
        {
          "internalType": "uint256",
          "name": "",
          "type": "uint256"
        }
      ],
      "stateMutability": "view",
      "type": "function"
    },
    {
      "inputs": [],
      "name": "contractURI",
      "outputs": [
        {
          "internalType": "string",
          "name": "",
          "type": "string"
        }
      ],
      "stateMutability": "view",
      "type": "function"
    },
    {
      "inputs": [],
      "name": "freeMints",
      "outputs": [
        {
          "internalType": "uint256",
          "name": "",
          "type": "uint256"
        }
      ],
      "stateMutability": "view",
      "type": "function"
    },
    {
      "inputs": [
        {
          "internalType": "uint256",
          "name": "tokenId",
          "type": "uint256"
        }
      ],
      "name": "getApproved",
      "outputs": [
        {
          "internalType": "address",
          "name": "",
          "type": "address"
        }
      ],
      "stateMutability": "view",
      "type": "function"
    },
    {
      "inputs": [],
      "name": "getBalance",
      "outputs": [
        {
          "internalType": "uint256",
          "name": "",
          "type": "uint256"
        }
      ],
      "stateMutability": "view",
      "type": "function"
    },
    {
      "inputs": [
        {
          "internalType": "address",
          "name": "owner",
          "type": "address"
        },
        {
          "internalType": "address",
          "name": "operator",
          "type": "address"
        }
      ],
      "name": "isApprovedForAll",
      "outputs": [
        {
          "internalType": "bool",
          "name": "",
          "type": "bool"
        }
      ],
      "stateMutability": "view",
      "type": "function"
    },
    {
      "inputs": [],
      "name": "isMintFree",
      "outputs": [
        {
          "internalType": "bool",
          "name": "",
          "type": "bool"
        }
      ],
      "stateMutability": "view",
      "type": "function"
    },
    {
      "inputs": [],
      "name": "metadataFolderURI",
      "outputs": [
        {
          "internalType": "string",
          "name": "",
          "type": "string"
        }
      ],
      "stateMutability": "view",
      "type": "function"
    },
    {
      "inputs": [],
      "name": "mint",
      "outputs": [],
      "stateMutability": "payable",
      "type": "function"
    },
    {
      "inputs": [],
      "name": "mintActive",
      "outputs": [
        {
          "internalType": "uint256",
          "name": "",
          "type": "uint256"
        }
      ],
      "stateMutability": "view",
      "type": "function"
    },
    {
      "inputs": [
        {
          "internalType": "address",
          "name": "",
          "type": "address"
        }
      ],
      "name": "minted",
      "outputs": [
        {
          "internalType": "uint256",
          "name": "",
          "type": "uint256"
        }
      ],
      "stateMutability": "view",
      "type": "function"
    },
    {
      "inputs": [],
      "name": "mintsPerAddress",
      "outputs": [
        {
          "internalType": "uint256",
          "name": "",
          "type": "uint256"
        }
      ],
      "stateMutability": "view",
      "type": "function"
    },
    {
      "inputs": [],
      "name": "name",
      "outputs": [
        {
          "internalType": "string",
          "name": "",
          "type": "string"
        }
      ],
      "stateMutability": "view",
      "type": "function"
    },
    {
      "inputs": [],
      "name": "openseaContractMetadataURL",
      "outputs": [
        {
          "internalType": "string",
          "name": "",
          "type": "string"
        }
      ],
      "stateMutability": "view",
      "type": "function"
    },
    {
      "inputs": [],
      "name": "owner",
      "outputs": [
        {
          "internalType": "address",
          "name": "",
          "type": "address"
        }
      ],
      "stateMutability": "view",
      "type": "function"
    },
    {
      "inputs": [
        {
          "internalType": "uint256",
          "name": "tokenId",
          "type": "uint256"
        }
      ],
      "name": "ownerOf",
      "outputs": [
        {
          "internalType": "address",
          "name": "",
          "type": "address"
        }
      ],
      "stateMutability": "view",
      "type": "function"
    },
    {
      "inputs": [
        {
          "internalType": "address",
          "name": "payee",
          "type": "address"
        },
        {
          "internalType": "uint256",
          "name": "amountInEth",
          "type": "uint256"
        }
      ],
      "name": "pay",
      "outputs": [],
      "stateMutability": "nonpayable",
      "type": "function"
    },
    {
      "inputs": [],
      "name": "price",
      "outputs": [
        {
          "internalType": "uint256",
          "name": "",
          "type": "uint256"
        }
      ],
      "stateMutability": "view",
      "type": "function"
    },
    {
      "inputs": [],
      "name": "renounceOwnership",
      "outputs": [],
      "stateMutability": "nonpayable",
      "type": "function"
    },
    {
      "inputs": [],
      "name": "reverseBirthday",
      "outputs": [
        {
          "internalType": "uint256",
          "name": "",
          "type": "uint256"
        }
      ],
      "stateMutability": "view",
      "type": "function"
    },
    {
      "inputs": [
        {
          "internalType": "address",
          "name": "from",
          "type": "address"
        },
        {
          "internalType": "address",
          "name": "to",
          "type": "address"
        },
        {
          "internalType": "uint256",
          "name": "tokenId",
          "type": "uint256"
        }
      ],
      "name": "safeTransferFrom",
      "outputs": [],
      "stateMutability": "nonpayable",
      "type": "function"
    },
    {
      "inputs": [
        {
          "internalType": "address",
          "name": "from",
          "type": "address"
        },
        {
          "internalType": "address",
          "name": "to",
          "type": "address"
        },
        {
          "internalType": "uint256",
          "name": "tokenId",
          "type": "uint256"
        },
        {
          "internalType": "bytes",
          "name": "_data",
          "type": "bytes"
        }
      ],
      "name": "safeTransferFrom",
      "outputs": [],
      "stateMutability": "nonpayable",
      "type": "function"
    },
    {
      "inputs": [
        {
          "internalType": "address",
          "name": "operator",
          "type": "address"
        },
        {
          "internalType": "bool",
          "name": "approved",
          "type": "bool"
        }
      ],
      "name": "setApprovalForAll",
      "outputs": [],
      "stateMutability": "nonpayable",
      "type": "function"
    },
    {
      "inputs": [
        {
          "internalType": "string",
          "name": "folderUrl",
          "type": "string"
        }
      ],
      "name": "setMetadataFolderURI",
      "outputs": [],
      "stateMutability": "nonpayable",
      "type": "function"
    },
    {
      "inputs": [
        {
          "internalType": "uint256",
          "name": "_mintActive",
          "type": "uint256"
        }
      ],
      "name": "setMintActive",
      "outputs": [],
      "stateMutability": "nonpayable",
      "type": "function"
    },
    {
      "inputs": [
        {
          "internalType": "bytes4",
          "name": "interfaceId",
          "type": "bytes4"
        }
      ],
      "name": "supportsInterface",
      "outputs": [
        {
          "internalType": "bool",
          "name": "",
          "type": "bool"
        }
      ],
      "stateMutability": "view",
      "type": "function"
    },
    {
      "inputs": [],
      "name": "symbol",
      "outputs": [
        {
          "internalType": "string",
          "name": "",
          "type": "string"
        }
      ],
      "stateMutability": "view",
      "type": "function"
    },
    {
      "inputs": [
        {
          "internalType": "uint256",
          "name": "tokenId",
          "type": "uint256"
        }
      ],
      "name": "tokenURI",
      "outputs": [
        {
          "internalType": "string",
          "name": "",
          "type": "string"
        }
      ],
      "stateMutability": "view",
      "type": "function"
    },
    {
      "inputs": [
        {
          "internalType": "address",
          "name": "from",
          "type": "address"
        },
        {
          "internalType": "address",
          "name": "to",
          "type": "address"
        },
        {
          "internalType": "uint256",
          "name": "tokenId",
          "type": "uint256"
        }
      ],
      "name": "transferFrom",
      "outputs": [],
      "stateMutability": "nonpayable",
      "type": "function"
    },
    {
      "inputs": [
        {
          "internalType": "address",
          "name": "newOwner",
          "type": "address"
        }
      ],
      "name": "transferOwnership",
      "outputs": [],
      "stateMutability": "nonpayable",
      "type": "function"
    },
    {
      "inputs": [],
      "name": "withdraw",
      "outputs": [],
      "stateMutability": "nonpayable",
      "type": "function"
    }
  ],
  "bytecode": "0x60806040526000600b553480156200001657600080fd5b50604051620021413803806200214183398101604081905262000039916200027e565b8551869086906200005290600090602085019062000121565b5080516200006890600190602084019062000121565b505050620000856200007f620000cb60201b60201c565b620000cf565b83516200009a90600890602087019062000121565b50600c83905543600a55600d8290558051620000be90600e90602084019062000121565b505050505050506200039c565b3390565b600680546001600160a01b038381166001600160a01b0319831681179093556040519116919082907f8be0079c531659141344cd1fd0a4f28419497f9722a3daafe3b4186f6b6457e090600090a35050565b8280546200012f9062000349565b90600052602060002090601f0160209004810192826200015357600085556200019e565b82601f106200016e57805160ff19168380011785556200019e565b828001600101855582156200019e579182015b828111156200019e57825182559160200191906001019062000181565b50620001ac929150620001b0565b5090565b5b80821115620001ac5760008155600101620001b1565b600082601f830112620001d957600080fd5b81516001600160401b0380821115620001f657620001f662000386565b604051601f8301601f19908116603f0116810190828211818310171562000221576200022162000386565b816040528381526020925086838588010111156200023e57600080fd5b600091505b8382101562000262578582018301518183018401529082019062000243565b83821115620002745760008385830101525b9695505050505050565b60008060008060008060c087890312156200029857600080fd5b86516001600160401b0380821115620002b057600080fd5b620002be8a838b01620001c7565b97506020890151915080821115620002d557600080fd5b620002e38a838b01620001c7565b96506040890151915080821115620002fa57600080fd5b620003088a838b01620001c7565b9550606089015194506080890151935060a08901519150808211156200032d57600080fd5b506200033c89828a01620001c7565b9150509295509295509295565b600181811c908216806200035e57607f821691505b602082108114156200038057634e487b7160e01b600052602260045260246000fd5b50919050565b634e487b7160e01b600052604160045260246000fd5b611d9580620003ac6000396000f3fe6080604052600436106101735760003560e01c806301ffc9a71461017857806306fdde03146101ad578063081812fc146101cf578063095ea7b31461020757806312065fe0146102295780631249c58b146102465780631e7269c51461024e57806323b872dd1461027b57806325fd90f31461029b5780632ec376b8146102b15780633ccfd60b146102c757806342842e0e146102dc57806347cce091146102fc5780636352211e1461031257806370a0823114610332578063715018a61461035257806380b17335146103675780638da5cb5b1461037d5780638f9d85201461039257806394696020146103b257806395d89b41146103d25780639a893c16146103e7578063a035b1fe146103fc578063a1182e8e14610417578063a22cb4651461042c578063ac7fdfaf1461044c578063b88d4fde14610461578063c407687614610481578063c87b56dd146104a1578063e8a3d485146104c1578063e985e9c5146104d6578063f2fde38b146104f6575b600080fd5b34801561018457600080fd5b50610198610193366004611946565b610516565b60405190151581526020015b60405180910390f35b3480156101b957600080fd5b506101c2610568565b6040516101a49190611b0d565b3480156101db57600080fd5b506101ef6101ea3660046119c8565b6105fa565b6040516001600160a01b0390911681526020016101a4565b34801561021357600080fd5b5061022761022236600461191c565b610687565b005b34801561023557600080fd5b50475b6040519081526020016101a4565b610227610798565b34801561025a57600080fd5b506102386102693660046117d4565b60096020526000908152604090205481565b34801561028757600080fd5b50610227610296366004611829565b610972565b3480156102a757600080fd5b50610238600b5481565b3480156102bd57600080fd5b50610238600a5481565b3480156102d357600080fd5b506102276109a3565b3480156102e857600080fd5b506102276102f7366004611829565b610a05565b34801561030857600080fd5b50610238600d5481565b34801561031e57600080fd5b506101ef61032d3660046119c8565b610a20565b34801561033e57600080fd5b5061023861034d3660046117d4565b610a97565b34801561035e57600080fd5b50610227610b1e565b34801561037357600080fd5b50610238600c5481565b34801561038957600080fd5b506101ef610b59565b34801561039e57600080fd5b506102276103ad366004611980565b610b68565b3480156103be57600080fd5b506102276103cd3660046119c8565b610baa565b3480156103de57600080fd5b506101c2610bde565b3480156103f357600080fd5b506101c2610bed565b34801561040857600080fd5b50610238662386f26fc1000081565b34801561042357600080fd5b506101c2610c7b565b34801561043857600080fd5b506102276104473660046118e0565b610c88565b34801561045857600080fd5b50610198610d49565b34801561046d57600080fd5b5061022761047c366004611865565b610d5d565b34801561048d57600080fd5b5061022761049c36600461191c565b610d95565b3480156104ad57600080fd5b506101c26104bc3660046119c8565b610e4b565b3480156104cd57600080fd5b506101c2610eee565b3480156104e257600080fd5b506101986104f13660046117f6565b610efd565b34801561050257600080fd5b506102276105113660046117d4565b610f2b565b60006001600160e01b031982166380ac58cd60e01b148061054757506001600160e01b03198216635b5e139f60e01b145b8061056257506301ffc9a760e01b6001600160e01b03198316145b92915050565b60606000805461057790611c67565b80601f01602080910402602001604051908101604052809291908181526020018280546105a390611c67565b80156105f05780601f106105c5576101008083540402835291602001916105f0565b820191906000526020600020905b8154815290600101906020018083116105d357829003601f168201915b5050505050905090565b600061060582610fcb565b61066b5760405162461bcd60e51b815260206004820152602c60248201527f4552433732313a20617070726f76656420717565727920666f72206e6f6e657860448201526b34b9ba32b73a103a37b5b2b760a11b60648201526084015b60405180910390fd5b506000908152600460205260409020546001600160a01b031690565b600061069282610a20565b9050806001600160a01b0316836001600160a01b031614156107005760405162461bcd60e51b815260206004820152602160248201527f4552433732313a20617070726f76616c20746f2063757272656e74206f776e656044820152603960f91b6064820152608401610662565b336001600160a01b038216148061071c575061071c8133610efd565b6107895760405162461bcd60e51b815260206004820152603860248201527f4552433732313a20617070726f76652063616c6c6572206973206e6f74206f776044820152771b995c881b9bdc88185c1c1c9bdd995908199bdc88185b1b60421b6064820152608401610662565b6107938383610fe8565b505050565b600b546001146107e45760405162461bcd60e51b815260206004820152601760248201527636b4b73a1034b9903737ba1030b1ba34bb32903937171760491b6044820152606401610662565b3233146108265760405162461bcd60e51b815260206004820152601060248201526f191bdb9d0819d95d0814d95d995b89d960821b6044820152606401610662565b600d5433600090815260096020526040902054106108865760405162461bcd60e51b815260206004820152601e60248201527f6f6e6c792031206d696e74207065722077616c6c6574206164647265737300006044820152606401610662565b600754600c54116108fd57662386f26fc100003410156108fd5760405162461bcd60e51b815260206004820152602c60248201527f6d696e74696e67206973206e6f206c6f6e67657220667265652c20697420636f60448201526b0e6e8e640605c606240cae8d60a31b6064820152608401610662565b61090b600780546001019055565b33600090815260096020526040812080549161092683611ca2565b9190505550600061093660075490565b90506109423382611056565b604051819033907f0f6798a560793a54c3bcfe86a93cde1e73087d944c0ea20544137d412139688590600090a350565b61097c3382611070565b6109985760405162461bcd60e51b815260040161066290611ba7565b61079383838361113a565b336109ac610b59565b6001600160a01b0316146109d25760405162461bcd60e51b815260040161066290611b72565b6040514790339082156108fc029083906000818181858888f19350505050158015610a01573d6000803e3d6000fd5b5050565b61079383838360405180602001604052806000815250610d5d565b6000818152600260205260408120546001600160a01b0316806105625760405162461bcd60e51b815260206004820152602960248201527f4552433732313a206f776e657220717565727920666f72206e6f6e657869737460448201526832b73a103a37b5b2b760b91b6064820152608401610662565b60006001600160a01b038216610b025760405162461bcd60e51b815260206004820152602a60248201527f4552433732313a2062616c616e636520717565727920666f7220746865207a65604482015269726f206164647265737360b01b6064820152608401610662565b506001600160a01b031660009081526003602052604090205490565b33610b27610b59565b6001600160a01b031614610b4d5760405162461bcd60e51b815260040161066290611b72565b610b5760006112c8565b565b6006546001600160a01b031690565b33610b71610b59565b6001600160a01b031614610b975760405162461bcd60e51b815260040161066290611b72565b8051610a019060089060208401906116aa565b33610bb3610b59565b6001600160a01b031614610bd95760405162461bcd60e51b815260040161066290611b72565b600b55565b60606001805461057790611c67565b600e8054610bfa90611c67565b80601f0160208091040260200160405190810160405280929190818152602001828054610c2690611c67565b8015610c735780601f10610c4857610100808354040283529160200191610c73565b820191906000526020600020905b815481529060010190602001808311610c5657829003601f168201915b505050505081565b60088054610bfa90611c67565b6001600160a01b038216331415610cdd5760405162461bcd60e51b815260206004820152601960248201527822a9219b99189d1030b8383937bb32903a379031b0b63632b960391b6044820152606401610662565b3360008181526005602090815260408083206001600160a01b03871680855290835292819020805460ff191686151590811790915590519081529192917f17307eab39ab6107e8899845ad3d59bd9653f200f220920489ca2b5937696c31910160405180910390a35050565b6000610d5460075490565b600c5411905090565b610d673383611070565b610d835760405162461bcd60e51b815260040161066290611ba7565b610d8f8484848461131a565b50505050565b33610d9e610b59565b6001600160a01b031614610dc45760405162461bcd60e51b815260040161066290611b72565b4781811015610e155760405162461bcd60e51b815260206004820152601e60248201527f576520646f6e7420686176652074686174206d75636820746f207061792100006044820152606401610662565b6040516001600160a01b0384169083156108fc029084906000818181858888f19350505050158015610d8f573d6000803e3d6000fd5b6060610e5682610fcb565b610ebc5760405162461bcd60e51b815260206004820152603160248201527f45524337323155524953746f726167653a2055524920717565727920666f72206044820152703737b732bc34b9ba32b73a103a37b5b2b760791b6064820152608401610662565b6008610ec78361134d565b604051602001610ed8929190611a29565b6040516020818303038152906040529050919050565b6060600e805461057790611c67565b6001600160a01b03918216600090815260056020908152604080832093909416825291909152205460ff1690565b33610f34610b59565b6001600160a01b031614610f5a5760405162461bcd60e51b815260040161066290611b72565b6001600160a01b038116610fbf5760405162461bcd60e51b815260206004820152602660248201527f4f776e61626c653a206e6577206f776e657220697320746865207a65726f206160448201526564647265737360d01b6064820152608401610662565b610fc8816112c8565b50565b6000908152600260205260409020546001600160a01b0316151590565b600081815260046020526040902080546001600160a01b0319166001600160a01b038416908117909155819061101d82610a20565b6001600160a01b03167f8c5be1e5ebec7d5bd14f71427d1e84f3dd0314c0f7b2291e5b200ac8c7c3b92560405160405180910390a45050565b610a0182826040518060200160405280600081525061144a565b600061107b82610fcb565b6110dc5760405162461bcd60e51b815260206004820152602c60248201527f4552433732313a206f70657261746f7220717565727920666f72206e6f6e657860448201526b34b9ba32b73a103a37b5b2b760a11b6064820152608401610662565b60006110e783610a20565b9050806001600160a01b0316846001600160a01b031614806111225750836001600160a01b0316611117846105fa565b6001600160a01b0316145b8061113257506111328185610efd565b949350505050565b826001600160a01b031661114d82610a20565b6001600160a01b0316146111b55760405162461bcd60e51b815260206004820152602960248201527f4552433732313a207472616e73666572206f6620746f6b656e2074686174206960448201526839903737ba1037bbb760b91b6064820152608401610662565b6001600160a01b0382166112175760405162461bcd60e51b8152602060048201526024808201527f4552433732313a207472616e7366657220746f20746865207a65726f206164646044820152637265737360e01b6064820152608401610662565b611222600082610fe8565b6001600160a01b038316600090815260036020526040812080546001929061124b908490611c24565b90915550506001600160a01b0382166000908152600360205260408120805460019290611279908490611bf8565b909155505060008181526002602052604080822080546001600160a01b0319166001600160a01b038681169182179092559151849391871691600080516020611d4083398151915291a4505050565b600680546001600160a01b038381166001600160a01b0319831681179093556040519116919082907f8be0079c531659141344cd1fd0a4f28419497f9722a3daafe3b4186f6b6457e090600090a35050565b61132584848461113a565b6113318484848461147d565b610d8f5760405162461bcd60e51b815260040161066290611b20565b6060816113715750506040805180820190915260018152600360fc1b602082015290565b8160005b811561139b578061138581611ca2565b91506113949050600a83611c10565b9150611375565b6000816001600160401b038111156113b5576113b5611d13565b6040519080825280601f01601f1916602001820160405280156113df576020820181803683370190505b5090505b8415611132576113f4600183611c24565b9150611401600a86611cbd565b61140c906030611bf8565b60f81b81838151811061142157611421611cfd565b60200101906001600160f81b031916908160001a905350611443600a86611c10565b94506113e3565b611454838361158a565b611461600084848461147d565b6107935760405162461bcd60e51b815260040161066290611b20565b60006001600160a01b0384163b1561157f57604051630a85bd0160e11b81526001600160a01b0385169063150b7a02906114c1903390899088908890600401611ad0565b602060405180830381600087803b1580156114db57600080fd5b505af192505050801561150b575060408051601f3d908101601f1916820190925261150891810190611963565b60015b611565573d808015611539576040519150601f19603f3d011682016040523d82523d6000602084013e61153e565b606091505b50805161155d5760405162461bcd60e51b815260040161066290611b20565b805181602001fd5b6001600160e01b031916630a85bd0160e11b149050611132565b506001949350505050565b6001600160a01b0382166115e05760405162461bcd60e51b815260206004820181905260248201527f4552433732313a206d696e7420746f20746865207a65726f20616464726573736044820152606401610662565b6115e981610fcb565b156116355760405162461bcd60e51b815260206004820152601c60248201527b115490cdcc8c4e881d1bdad95b88185b1c9958591e481b5a5b9d195960221b6044820152606401610662565b6001600160a01b038216600090815260036020526040812080546001929061165e908490611bf8565b909155505060008181526002602052604080822080546001600160a01b0319166001600160a01b0386169081179091559051839290600080516020611d40833981519152908290a45050565b8280546116b690611c67565b90600052602060002090601f0160209004810192826116d8576000855561171e565b82601f106116f157805160ff191683800117855561171e565b8280016001018555821561171e579182015b8281111561171e578251825591602001919060010190611703565b5061172a92915061172e565b5090565b5b8082111561172a576000815560010161172f565b60006001600160401b038084111561175d5761175d611d13565b604051601f8501601f19908116603f0116810190828211818310171561178557611785611d13565b8160405280935085815286868601111561179e57600080fd5b858560208301376000602087830101525050509392505050565b80356001600160a01b03811681146117cf57600080fd5b919050565b6000602082840312156117e657600080fd5b6117ef826117b8565b9392505050565b6000806040838503121561180957600080fd5b611812836117b8565b9150611820602084016117b8565b90509250929050565b60008060006060848603121561183e57600080fd5b611847846117b8565b9250611855602085016117b8565b9150604084013590509250925092565b6000806000806080858703121561187b57600080fd5b611884856117b8565b9350611892602086016117b8565b92506040850135915060608501356001600160401b038111156118b457600080fd5b8501601f810187136118c557600080fd5b6118d487823560208401611743565b91505092959194509250565b600080604083850312156118f357600080fd5b6118fc836117b8565b91506020830135801515811461191157600080fd5b809150509250929050565b6000806040838503121561192f57600080fd5b611938836117b8565b946020939093013593505050565b60006020828403121561195857600080fd5b81356117ef81611d29565b60006020828403121561197557600080fd5b81516117ef81611d29565b60006020828403121561199257600080fd5b81356001600160401b038111156119a857600080fd5b8201601f810184136119b957600080fd5b61113284823560208401611743565b6000602082840312156119da57600080fd5b5035919050565b600081518084526119f9816020860160208601611c3b565b601f01601f19169290920160200192915050565b60008151611a1f818560208601611c3b565b9290920192915050565b600080845481600182811c915080831680611a4557607f831692505b6020808410821415611a6557634e487b7160e01b86526022600452602486fd5b818015611a795760018114611a8a57611ab7565b60ff19861689528489019650611ab7565b60008b81526020902060005b86811015611aaf5781548b820152908501908301611a96565b505084890196505b505050505050611ac78185611a0d565b95945050505050565b6001600160a01b0385811682528416602082015260408101839052608060608201819052600090611b03908301846119e1565b9695505050505050565b6020815260006117ef60208301846119e1565b60208082526032908201527f4552433732313a207472616e7366657220746f206e6f6e20455243373231526560408201527131b2b4bb32b91034b6b83632b6b2b73a32b960711b606082015260800190565b6020808252818101527f4f776e61626c653a2063616c6c6572206973206e6f7420746865206f776e6572604082015260600190565b60208082526031908201527f4552433732313a207472616e736665722063616c6c6572206973206e6f74206f6040820152701ddb995c881b9bdc88185c1c1c9bdd9959607a1b606082015260800190565b60008219821115611c0b57611c0b611cd1565b500190565b600082611c1f57611c1f611ce7565b500490565b600082821015611c3657611c36611cd1565b500390565b60005b83811015611c56578181015183820152602001611c3e565b83811115610d8f5750506000910152565b600181811c90821680611c7b57607f821691505b60208210811415611c9c57634e487b7160e01b600052602260045260246000fd5b50919050565b6000600019821415611cb657611cb6611cd1565b5060010190565b600082611ccc57611ccc611ce7565b500690565b634e487b7160e01b600052601160045260246000fd5b634e487b7160e01b600052601260045260246000fd5b634e487b7160e01b600052603260045260246000fd5b634e487b7160e01b600052604160045260246000fd5b6001600160e01b031981168114610fc857600080fdfeddf252ad1be2c89b69c2b068fc378daa952ba7f163c4a11628f55a4df523b3efa26469706673582212202ab7a1c6a3e84d29137b16a7fde2b80cea13ebb8ae44587ee7615595e7888d1f64736f6c63430008060033",
  "linkReferences": {},
  "deployedLinkReferences": {}
}