{
  "_format": "hh-sol-artifact-1",
  "contractName": "birthblock",
  "sourceName": "contracts/birthblock.sol",
  "abi": [
    {
      "inputs": [
        {
          "internalType": "string",
          "name": "_name",
          "type": "string"
        },
        {
          "internalType": "string",
          "name": "_symbol",
          "type": "string"
        },
        {
          "internalType": "string",
          "name": "_metadataFolderURI",
          "type": "string"
        },
        {
          "internalType": "uint256",
          "name": "_freeMints",
          "type": "uint256"
        }
      ],
      "stateMutability": "nonpayable",
      "type": "constructor"
    },
    {
      "anonymous": false,
      "inputs": [
        {
          "indexed": true,
          "internalType": "address",
          "name": "owner",
          "type": "address"
        },
        {
          "indexed": true,
          "internalType": "address",
          "name": "approved",
          "type": "address"
        },
        {
          "indexed": true,
          "internalType": "uint256",
          "name": "tokenId",
          "type": "uint256"
        }
      ],
      "name": "Approval",
      "type": "event"
    },
    {
      "anonymous": false,
      "inputs": [
        {
          "indexed": true,
          "internalType": "address",
          "name": "owner",
          "type": "address"
        },
        {
          "indexed": true,
          "internalType": "address",
          "name": "operator",
          "type": "address"
        },
        {
          "indexed": false,
          "internalType": "bool",
          "name": "approved",
          "type": "bool"
        }
      ],
      "name": "ApprovalForAll",
      "type": "event"
    },
    {
      "anonymous": false,
      "inputs": [
        {
          "indexed": true,
          "internalType": "address",
          "name": "previousOwner",
          "type": "address"
        },
        {
          "indexed": true,
          "internalType": "address",
          "name": "newOwner",
          "type": "address"
        }
      ],
      "name": "OwnershipTransferred",
      "type": "event"
    },
    {
      "anonymous": false,
      "inputs": [
        {
          "indexed": true,
          "internalType": "address",
          "name": "from",
          "type": "address"
        },
        {
          "indexed": true,
          "internalType": "address",
          "name": "to",
          "type": "address"
        },
        {
          "indexed": true,
          "internalType": "uint256",
          "name": "tokenId",
          "type": "uint256"
        }
      ],
      "name": "Transfer",
      "type": "event"
    },
    {
      "inputs": [
        {
          "internalType": "address",
          "name": "to",
          "type": "address"
        },
        {
          "internalType": "uint256",
          "name": "tokenId",
          "type": "uint256"
        }
      ],
      "name": "approve",
      "outputs": [],
      "stateMutability": "nonpayable",
      "type": "function"
    },
    {
      "inputs": [
        {
          "internalType": "address",
          "name": "owner",
          "type": "address"
        }
      ],
      "name": "balanceOf",
      "outputs": [
        {
          "internalType": "uint256",
          "name": "",
          "type": "uint256"
        }
      ],
      "stateMutability": "view",
      "type": "function"
    },
    {
      "inputs": [],
      "name": "freeMints",
      "outputs": [
        {
          "internalType": "uint256",
          "name": "",
          "type": "uint256"
        }
      ],
      "stateMutability": "view",
      "type": "function"
    },
    {
      "inputs": [
        {
          "internalType": "uint256",
          "name": "tokenId",
          "type": "uint256"
        }
      ],
      "name": "getApproved",
      "outputs": [
        {
          "internalType": "address",
          "name": "",
          "type": "address"
        }
      ],
      "stateMutability": "view",
      "type": "function"
    },
    {
      "inputs": [],
      "name": "getBalance",
      "outputs": [
        {
          "internalType": "uint256",
          "name": "",
          "type": "uint256"
        }
      ],
      "stateMutability": "view",
      "type": "function"
    },
    {
      "inputs": [
        {
          "internalType": "address",
          "name": "owner",
          "type": "address"
        },
        {
          "internalType": "address",
          "name": "operator",
          "type": "address"
        }
      ],
      "name": "isApprovedForAll",
      "outputs": [
        {
          "internalType": "bool",
          "name": "",
          "type": "bool"
        }
      ],
      "stateMutability": "view",
      "type": "function"
    },
    {
      "inputs": [],
      "name": "isMintFree",
      "outputs": [
        {
          "internalType": "bool",
          "name": "",
          "type": "bool"
        }
      ],
      "stateMutability": "view",
      "type": "function"
    },
    {
      "inputs": [],
      "name": "metadataFolderURI",
      "outputs": [
        {
          "internalType": "string",
          "name": "",
          "type": "string"
        }
      ],
      "stateMutability": "view",
      "type": "function"
    },
    {
      "inputs": [],
      "name": "mint",
      "outputs": [],
      "stateMutability": "payable",
      "type": "function"
    },
    {
      "inputs": [],
      "name": "mintActive",
      "outputs": [
        {
          "internalType": "uint256",
          "name": "",
          "type": "uint256"
        }
      ],
      "stateMutability": "view",
      "type": "function"
    },
    {
      "inputs": [
        {
          "internalType": "address",
          "name": "",
          "type": "address"
        }
      ],
      "name": "minted",
      "outputs": [
        {
          "internalType": "uint256",
          "name": "",
          "type": "uint256"
        }
      ],
      "stateMutability": "view",
      "type": "function"
    },
    {
      "inputs": [],
      "name": "name",
      "outputs": [
        {
          "internalType": "string",
          "name": "",
          "type": "string"
        }
      ],
      "stateMutability": "view",
      "type": "function"
    },
    {
      "inputs": [],
      "name": "owner",
      "outputs": [
        {
          "internalType": "address",
          "name": "",
          "type": "address"
        }
      ],
      "stateMutability": "view",
      "type": "function"
    },
    {
      "inputs": [
        {
          "internalType": "uint256",
          "name": "tokenId",
          "type": "uint256"
        }
      ],
      "name": "ownerOf",
      "outputs": [
        {
          "internalType": "address",
          "name": "",
          "type": "address"
        }
      ],
      "stateMutability": "view",
      "type": "function"
    },
    {
      "inputs": [
        {
          "internalType": "address",
          "name": "payee",
          "type": "address"
        },
        {
          "internalType": "uint256",
          "name": "amountInEth",
          "type": "uint256"
        }
      ],
      "name": "pay",
      "outputs": [],
      "stateMutability": "nonpayable",
      "type": "function"
    },
    {
      "inputs": [],
      "name": "price",
      "outputs": [
        {
          "internalType": "uint256",
          "name": "",
          "type": "uint256"
        }
      ],
      "stateMutability": "view",
      "type": "function"
    },
    {
      "inputs": [],
      "name": "renounceOwnership",
      "outputs": [],
      "stateMutability": "nonpayable",
      "type": "function"
    },
    {
      "inputs": [],
      "name": "reverseBirthday",
      "outputs": [
        {
          "internalType": "uint256",
          "name": "",
          "type": "uint256"
        }
      ],
      "stateMutability": "view",
      "type": "function"
    },
    {
      "inputs": [
        {
          "internalType": "address",
          "name": "from",
          "type": "address"
        },
        {
          "internalType": "address",
          "name": "to",
          "type": "address"
        },
        {
          "internalType": "uint256",
          "name": "tokenId",
          "type": "uint256"
        }
      ],
      "name": "safeTransferFrom",
      "outputs": [],
      "stateMutability": "nonpayable",
      "type": "function"
    },
    {
      "inputs": [
        {
          "internalType": "address",
          "name": "from",
          "type": "address"
        },
        {
          "internalType": "address",
          "name": "to",
          "type": "address"
        },
        {
          "internalType": "uint256",
          "name": "tokenId",
          "type": "uint256"
        },
        {
          "internalType": "bytes",
          "name": "_data",
          "type": "bytes"
        }
      ],
      "name": "safeTransferFrom",
      "outputs": [],
      "stateMutability": "nonpayable",
      "type": "function"
    },
    {
      "inputs": [
        {
          "internalType": "address",
          "name": "operator",
          "type": "address"
        },
        {
          "internalType": "bool",
          "name": "approved",
          "type": "bool"
        }
      ],
      "name": "setApprovalForAll",
      "outputs": [],
      "stateMutability": "nonpayable",
      "type": "function"
    },
    {
      "inputs": [
        {
          "internalType": "string",
          "name": "folderUrl",
          "type": "string"
        }
      ],
      "name": "setMetadataFolderURI",
      "outputs": [],
      "stateMutability": "nonpayable",
      "type": "function"
    },
    {
      "inputs": [
        {
          "internalType": "uint256",
          "name": "_mintActive",
          "type": "uint256"
        }
      ],
      "name": "setMintActive",
      "outputs": [],
      "stateMutability": "nonpayable",
      "type": "function"
    },
    {
      "inputs": [
        {
          "internalType": "bytes4",
          "name": "interfaceId",
          "type": "bytes4"
        }
      ],
      "name": "supportsInterface",
      "outputs": [
        {
          "internalType": "bool",
          "name": "",
          "type": "bool"
        }
      ],
      "stateMutability": "view",
      "type": "function"
    },
    {
      "inputs": [],
      "name": "symbol",
      "outputs": [
        {
          "internalType": "string",
          "name": "",
          "type": "string"
        }
      ],
      "stateMutability": "view",
      "type": "function"
    },
    {
      "inputs": [
        {
          "internalType": "uint256",
          "name": "tokenId",
          "type": "uint256"
        }
      ],
      "name": "tokenURI",
      "outputs": [
        {
          "internalType": "string",
          "name": "",
          "type": "string"
        }
      ],
      "stateMutability": "view",
      "type": "function"
    },
    {
      "inputs": [
        {
          "internalType": "address",
          "name": "from",
          "type": "address"
        },
        {
          "internalType": "address",
          "name": "to",
          "type": "address"
        },
        {
          "internalType": "uint256",
          "name": "tokenId",
          "type": "uint256"
        }
      ],
      "name": "transferFrom",
      "outputs": [],
      "stateMutability": "nonpayable",
      "type": "function"
    },
    {
      "inputs": [
        {
          "internalType": "address",
          "name": "newOwner",
          "type": "address"
        }
      ],
      "name": "transferOwnership",
      "outputs": [],
      "stateMutability": "nonpayable",
      "type": "function"
    },
    {
      "inputs": [],
      "name": "withdraw",
      "outputs": [],
      "stateMutability": "nonpayable",
      "type": "function"
    }
  ],
  "bytecode": "0x60806040526000600b553480156200001657600080fd5b506040516200202b3803806200202b83398101604081905262000039916200025e565b8351849084906200005290600090602085019062000101565b5080516200006890600190602084019062000101565b505050620000856200007f620000ab60201b60201c565b620000af565b81516200009a90600890602085019062000101565b50600c55505043600a55506200034a565b3390565b600680546001600160a01b038381166001600160a01b0319831681179093556040519116919082907f8be0079c531659141344cd1fd0a4f28419497f9722a3daafe3b4186f6b6457e090600090a35050565b8280546200010f90620002f7565b90600052602060002090601f0160209004810192826200013357600085556200017e565b82601f106200014e57805160ff19168380011785556200017e565b828001600101855582156200017e579182015b828111156200017e57825182559160200191906001019062000161565b506200018c92915062000190565b5090565b5b808211156200018c576000815560010162000191565b600082601f830112620001b957600080fd5b81516001600160401b0380821115620001d657620001d662000334565b604051601f8301601f19908116603f0116810190828211818310171562000201576200020162000334565b816040528381526020925086838588010111156200021e57600080fd5b600091505b8382101562000242578582018301518183018401529082019062000223565b83821115620002545760008385830101525b9695505050505050565b600080600080608085870312156200027557600080fd5b84516001600160401b03808211156200028d57600080fd5b6200029b88838901620001a7565b95506020870151915080821115620002b257600080fd5b620002c088838901620001a7565b94506040870151915080821115620002d757600080fd5b50620002e687828801620001a7565b606096909601519497939650505050565b600181811c908216806200030c57607f821691505b602082108114156200032e57634e487b7160e01b600052602260045260246000fd5b50919050565b634e487b7160e01b600052604160045260246000fd5b611cd1806200035a6000396000f3fe6080604052600436106101525760003560e01c806301ffc9a71461015757806306fdde031461018c578063081812fc146101ae578063095ea7b3146101e657806312065fe0146102085780631249c58b146102255780631e7269c51461022d57806323b872dd1461025a57806325fd90f31461027a5780632ec376b8146102905780633ccfd60b146102a657806342842e0e146102bb5780636352211e146102db57806370a08231146102fb578063715018a61461031b57806380b17335146103305780638da5cb5b146103465780638f9d85201461035b578063946960201461037b57806395d89b411461039b578063a035b1fe146103b0578063a1182e8e146103cb578063a22cb465146103e0578063ac7fdfaf14610400578063b88d4fde14610415578063c407687614610435578063c87b56dd14610455578063e985e9c514610475578063f2fde38b14610495575b600080fd5b34801561016357600080fd5b50610177610172366004611882565b6104b5565b60405190151581526020015b60405180910390f35b34801561019857600080fd5b506101a1610507565b6040516101839190611a49565b3480156101ba57600080fd5b506101ce6101c9366004611904565b610599565b6040516001600160a01b039091168152602001610183565b3480156101f257600080fd5b50610206610201366004611858565b610626565b005b34801561021457600080fd5b50475b604051908152602001610183565b610206610737565b34801561023957600080fd5b50610217610248366004611710565b60096020526000908152604090205481565b34801561026657600080fd5b50610206610275366004611765565b6108cd565b34801561028657600080fd5b50610217600b5481565b34801561029c57600080fd5b50610217600a5481565b3480156102b257600080fd5b506102066108fe565b3480156102c757600080fd5b506102066102d6366004611765565b610960565b3480156102e757600080fd5b506101ce6102f6366004611904565b61097b565b34801561030757600080fd5b50610217610316366004611710565b6109f2565b34801561032757600080fd5b50610206610a79565b34801561033c57600080fd5b50610217600c5481565b34801561035257600080fd5b506101ce610ab4565b34801561036757600080fd5b506102066103763660046118bc565b610ac3565b34801561038757600080fd5b50610206610396366004611904565b610b05565b3480156103a757600080fd5b506101a1610b39565b3480156103bc57600080fd5b50610217662386f26fc1000081565b3480156103d757600080fd5b506101a1610b48565b3480156103ec57600080fd5b506102066103fb36600461181c565b610bd6565b34801561040c57600080fd5b50610177610c97565b34801561042157600080fd5b506102066104303660046117a1565b610cab565b34801561044157600080fd5b50610206610450366004611858565b610ce3565b34801561046157600080fd5b506101a1610470366004611904565b610d99565b34801561048157600080fd5b50610177610490366004611732565b610e3c565b3480156104a157600080fd5b506102066104b0366004611710565b610e6a565b60006001600160e01b031982166380ac58cd60e01b14806104e657506001600160e01b03198216635b5e139f60e01b145b8061050157506301ffc9a760e01b6001600160e01b03198316145b92915050565b60606000805461051690611ba3565b80601f016020809104026020016040519081016040528092919081815260200182805461054290611ba3565b801561058f5780601f106105645761010080835404028352916020019161058f565b820191906000526020600020905b81548152906001019060200180831161057257829003601f168201915b5050505050905090565b60006105a482610f07565b61060a5760405162461bcd60e51b815260206004820152602c60248201527f4552433732313a20617070726f76656420717565727920666f72206e6f6e657860448201526b34b9ba32b73a103a37b5b2b760a11b60648201526084015b60405180910390fd5b506000908152600460205260409020546001600160a01b031690565b60006106318261097b565b9050806001600160a01b0316836001600160a01b0316141561069f5760405162461bcd60e51b815260206004820152602160248201527f4552433732313a20617070726f76616c20746f2063757272656e74206f776e656044820152603960f91b6064820152608401610601565b336001600160a01b03821614806106bb57506106bb8133610e3c565b6107285760405162461bcd60e51b815260206004820152603860248201527f4552433732313a20617070726f76652063616c6c6572206973206e6f74206f776044820152771b995c881b9bdc88185c1c1c9bdd995908199bdc88185b1b60421b6064820152608401610601565b6107328383610f24565b505050565b600b546001146107835760405162461bcd60e51b815260206004820152601760248201527636b4b73a1034b9903737ba1030b1ba34bb32903937171760491b6044820152606401610601565b3233146107c55760405162461bcd60e51b815260206004820152601060248201526f191bdb9d0819d95d0814d95d995b89d960821b6044820152606401610601565b336000908152600960205260409020546001116108245760405162461bcd60e51b815260206004820152601e60248201527f6f6e6c792031206d696e74207065722077616c6c6574206164647265737300006044820152606401610601565b600754600c541161089b57662386f26fc1000034101561089b5760405162461bcd60e51b815260206004820152602c60248201527f6d696e74696e67206973206e6f206c6f6e67657220667265652c20697420636f60448201526b0e6e8e640605c606240cae8d60a31b6064820152608401610601565b6108a9600780546001019055565b33600081815260096020526040902060019055600754906108ca9082610f92565b50565b6108d73382610fac565b6108f35760405162461bcd60e51b815260040161060190611ae3565b610732838383611076565b33610907610ab4565b6001600160a01b03161461092d5760405162461bcd60e51b815260040161060190611aae565b6040514790339082156108fc029083906000818181858888f1935050505015801561095c573d6000803e3d6000fd5b5050565b61073283838360405180602001604052806000815250610cab565b6000818152600260205260408120546001600160a01b0316806105015760405162461bcd60e51b815260206004820152602960248201527f4552433732313a206f776e657220717565727920666f72206e6f6e657869737460448201526832b73a103a37b5b2b760b91b6064820152608401610601565b60006001600160a01b038216610a5d5760405162461bcd60e51b815260206004820152602a60248201527f4552433732313a2062616c616e636520717565727920666f7220746865207a65604482015269726f206164647265737360b01b6064820152608401610601565b506001600160a01b031660009081526003602052604090205490565b33610a82610ab4565b6001600160a01b031614610aa85760405162461bcd60e51b815260040161060190611aae565b610ab26000611204565b565b6006546001600160a01b031690565b33610acc610ab4565b6001600160a01b031614610af25760405162461bcd60e51b815260040161060190611aae565b805161095c9060089060208401906115e6565b33610b0e610ab4565b6001600160a01b031614610b345760405162461bcd60e51b815260040161060190611aae565b600b55565b60606001805461051690611ba3565b60088054610b5590611ba3565b80601f0160208091040260200160405190810160405280929190818152602001828054610b8190611ba3565b8015610bce5780601f10610ba357610100808354040283529160200191610bce565b820191906000526020600020905b815481529060010190602001808311610bb157829003601f168201915b505050505081565b6001600160a01b038216331415610c2b5760405162461bcd60e51b815260206004820152601960248201527822a9219b99189d1030b8383937bb32903a379031b0b63632b960391b6044820152606401610601565b3360008181526005602090815260408083206001600160a01b03871680855290835292819020805460ff191686151590811790915590519081529192917f17307eab39ab6107e8899845ad3d59bd9653f200f220920489ca2b5937696c31910160405180910390a35050565b6000610ca260075490565b600c5411905090565b610cb53383610fac565b610cd15760405162461bcd60e51b815260040161060190611ae3565b610cdd84848484611256565b50505050565b33610cec610ab4565b6001600160a01b031614610d125760405162461bcd60e51b815260040161060190611aae565b4781811015610d635760405162461bcd60e51b815260206004820152601e60248201527f576520646f6e7420686176652074686174206d75636820746f207061792100006044820152606401610601565b6040516001600160a01b0384169083156108fc029084906000818181858888f19350505050158015610cdd573d6000803e3d6000fd5b6060610da482610f07565b610e0a5760405162461bcd60e51b815260206004820152603160248201527f45524337323155524953746f726167653a2055524920717565727920666f72206044820152703737b732bc34b9ba32b73a103a37b5b2b760791b6064820152608401610601565b6008610e1583611289565b604051602001610e26929190611965565b6040516020818303038152906040529050919050565b6001600160a01b03918216600090815260056020908152604080832093909416825291909152205460ff1690565b33610e73610ab4565b6001600160a01b031614610e995760405162461bcd60e51b815260040161060190611aae565b6001600160a01b038116610efe5760405162461bcd60e51b815260206004820152602660248201527f4f776e61626c653a206e6577206f776e657220697320746865207a65726f206160448201526564647265737360d01b6064820152608401610601565b6108ca81611204565b6000908152600260205260409020546001600160a01b0316151590565b600081815260046020526040902080546001600160a01b0319166001600160a01b0384169081179091558190610f598261097b565b6001600160a01b03167f8c5be1e5ebec7d5bd14f71427d1e84f3dd0314c0f7b2291e5b200ac8c7c3b92560405160405180910390a45050565b61095c828260405180602001604052806000815250611386565b6000610fb782610f07565b6110185760405162461bcd60e51b815260206004820152602c60248201527f4552433732313a206f70657261746f7220717565727920666f72206e6f6e657860448201526b34b9ba32b73a103a37b5b2b760a11b6064820152608401610601565b60006110238361097b565b9050806001600160a01b0316846001600160a01b0316148061105e5750836001600160a01b031661105384610599565b6001600160a01b0316145b8061106e575061106e8185610e3c565b949350505050565b826001600160a01b03166110898261097b565b6001600160a01b0316146110f15760405162461bcd60e51b815260206004820152602960248201527f4552433732313a207472616e73666572206f6620746f6b656e2074686174206960448201526839903737ba1037bbb760b91b6064820152608401610601565b6001600160a01b0382166111535760405162461bcd60e51b8152602060048201526024808201527f4552433732313a207472616e7366657220746f20746865207a65726f206164646044820152637265737360e01b6064820152608401610601565b61115e600082610f24565b6001600160a01b0383166000908152600360205260408120805460019290611187908490611b60565b90915550506001600160a01b03821660009081526003602052604081208054600192906111b5908490611b34565b909155505060008181526002602052604080822080546001600160a01b0319166001600160a01b038681169182179092559151849391871691600080516020611c7c83398151915291a4505050565b600680546001600160a01b038381166001600160a01b0319831681179093556040519116919082907f8be0079c531659141344cd1fd0a4f28419497f9722a3daafe3b4186f6b6457e090600090a35050565b611261848484611076565b61126d848484846113b9565b610cdd5760405162461bcd60e51b815260040161060190611a5c565b6060816112ad5750506040805180820190915260018152600360fc1b602082015290565b8160005b81156112d757806112c181611bde565b91506112d09050600a83611b4c565b91506112b1565b6000816001600160401b038111156112f1576112f1611c4f565b6040519080825280601f01601f19166020018201604052801561131b576020820181803683370190505b5090505b841561106e57611330600183611b60565b915061133d600a86611bf9565b611348906030611b34565b60f81b81838151811061135d5761135d611c39565b60200101906001600160f81b031916908160001a90535061137f600a86611b4c565b945061131f565b61139083836114c6565b61139d60008484846113b9565b6107325760405162461bcd60e51b815260040161060190611a5c565b60006001600160a01b0384163b156114bb57604051630a85bd0160e11b81526001600160a01b0385169063150b7a02906113fd903390899088908890600401611a0c565b602060405180830381600087803b15801561141757600080fd5b505af1925050508015611447575060408051601f3d908101601f191682019092526114449181019061189f565b60015b6114a1573d808015611475576040519150601f19603f3d011682016040523d82523d6000602084013e61147a565b606091505b5080516114995760405162461bcd60e51b815260040161060190611a5c565b805181602001fd5b6001600160e01b031916630a85bd0160e11b14905061106e565b506001949350505050565b6001600160a01b03821661151c5760405162461bcd60e51b815260206004820181905260248201527f4552433732313a206d696e7420746f20746865207a65726f20616464726573736044820152606401610601565b61152581610f07565b156115715760405162461bcd60e51b815260206004820152601c60248201527b115490cdcc8c4e881d1bdad95b88185b1c9958591e481b5a5b9d195960221b6044820152606401610601565b6001600160a01b038216600090815260036020526040812080546001929061159a908490611b34565b909155505060008181526002602052604080822080546001600160a01b0319166001600160a01b0386169081179091559051839290600080516020611c7c833981519152908290a45050565b8280546115f290611ba3565b90600052602060002090601f016020900481019282611614576000855561165a565b82601f1061162d57805160ff191683800117855561165a565b8280016001018555821561165a579182015b8281111561165a57825182559160200191906001019061163f565b5061166692915061166a565b5090565b5b80821115611666576000815560010161166b565b60006001600160401b038084111561169957611699611c4f565b604051601f8501601f19908116603f011681019082821181831017156116c1576116c1611c4f565b816040528093508581528686860111156116da57600080fd5b858560208301376000602087830101525050509392505050565b80356001600160a01b038116811461170b57600080fd5b919050565b60006020828403121561172257600080fd5b61172b826116f4565b9392505050565b6000806040838503121561174557600080fd5b61174e836116f4565b915061175c602084016116f4565b90509250929050565b60008060006060848603121561177a57600080fd5b611783846116f4565b9250611791602085016116f4565b9150604084013590509250925092565b600080600080608085870312156117b757600080fd5b6117c0856116f4565b93506117ce602086016116f4565b92506040850135915060608501356001600160401b038111156117f057600080fd5b8501601f8101871361180157600080fd5b6118108782356020840161167f565b91505092959194509250565b6000806040838503121561182f57600080fd5b611838836116f4565b91506020830135801515811461184d57600080fd5b809150509250929050565b6000806040838503121561186b57600080fd5b611874836116f4565b946020939093013593505050565b60006020828403121561189457600080fd5b813561172b81611c65565b6000602082840312156118b157600080fd5b815161172b81611c65565b6000602082840312156118ce57600080fd5b81356001600160401b038111156118e457600080fd5b8201601f810184136118f557600080fd5b61106e8482356020840161167f565b60006020828403121561191657600080fd5b5035919050565b60008151808452611935816020860160208601611b77565b601f01601f19169290920160200192915050565b6000815161195b818560208601611b77565b9290920192915050565b600080845481600182811c91508083168061198157607f831692505b60208084108214156119a157634e487b7160e01b86526022600452602486fd5b8180156119b557600181146119c6576119f3565b60ff198616895284890196506119f3565b60008b81526020902060005b868110156119eb5781548b8201529085019083016119d2565b505084890196505b505050505050611a038185611949565b95945050505050565b6001600160a01b0385811682528416602082015260408101839052608060608201819052600090611a3f9083018461191d565b9695505050505050565b60208152600061172b602083018461191d565b60208082526032908201527f4552433732313a207472616e7366657220746f206e6f6e20455243373231526560408201527131b2b4bb32b91034b6b83632b6b2b73a32b960711b606082015260800190565b6020808252818101527f4f776e61626c653a2063616c6c6572206973206e6f7420746865206f776e6572604082015260600190565b60208082526031908201527f4552433732313a207472616e736665722063616c6c6572206973206e6f74206f6040820152701ddb995c881b9bdc88185c1c1c9bdd9959607a1b606082015260800190565b60008219821115611b4757611b47611c0d565b500190565b600082611b5b57611b5b611c23565b500490565b600082821015611b7257611b72611c0d565b500390565b60005b83811015611b92578181015183820152602001611b7a565b83811115610cdd5750506000910152565b600181811c90821680611bb757607f821691505b60208210811415611bd857634e487b7160e01b600052602260045260246000fd5b50919050565b6000600019821415611bf257611bf2611c0d565b5060010190565b600082611c0857611c08611c23565b500690565b634e487b7160e01b600052601160045260246000fd5b634e487b7160e01b600052601260045260246000fd5b634e487b7160e01b600052603260045260246000fd5b634e487b7160e01b600052604160045260246000fd5b6001600160e01b0319811681146108ca57600080fdfeddf252ad1be2c89b69c2b068fc378daa952ba7f163c4a11628f55a4df523b3efa26469706673582212206d14ebe0d499285f700a10fda04786579fff97458d99f6339c0afa7107c37e1664736f6c63430008060033",
  "linkReferences": {},
  "deployedLinkReferences": {}
}