{
  "_format": "hh-sol-artifact-1",
  "contractName": "birthblock",
  "sourceName": "contracts/birthblock.sol",
  "abi": [
    {
      "inputs": [
        {
          "internalType": "string",
          "name": "_name",
          "type": "string"
        },
        {
          "internalType": "string",
          "name": "_symbol",
          "type": "string"
        },
        {
          "internalType": "string",
          "name": "_metadataFolderURI",
          "type": "string"
        },
        {
          "internalType": "uint256",
          "name": "_freeMints",
          "type": "uint256"
        },
        {
          "internalType": "uint256",
          "name": "_mintsPerAddress",
          "type": "uint256"
        }
      ],
      "stateMutability": "nonpayable",
      "type": "constructor"
    },
    {
      "anonymous": false,
      "inputs": [
        {
          "indexed": true,
          "internalType": "address",
          "name": "owner",
          "type": "address"
        },
        {
          "indexed": true,
          "internalType": "address",
          "name": "approved",
          "type": "address"
        },
        {
          "indexed": true,
          "internalType": "uint256",
          "name": "tokenId",
          "type": "uint256"
        }
      ],
      "name": "Approval",
      "type": "event"
    },
    {
      "anonymous": false,
      "inputs": [
        {
          "indexed": true,
          "internalType": "address",
          "name": "owner",
          "type": "address"
        },
        {
          "indexed": true,
          "internalType": "address",
          "name": "operator",
          "type": "address"
        },
        {
          "indexed": false,
          "internalType": "bool",
          "name": "approved",
          "type": "bool"
        }
      ],
      "name": "ApprovalForAll",
      "type": "event"
    },
    {
      "anonymous": false,
      "inputs": [
        {
          "indexed": true,
          "internalType": "address",
          "name": "_minter",
          "type": "address"
        },
        {
          "indexed": false,
          "internalType": "uint256",
          "name": "_token_id",
          "type": "uint256"
        }
      ],
      "name": "Mint",
      "type": "event"
    },
    {
      "anonymous": false,
      "inputs": [
        {
          "indexed": true,
          "internalType": "address",
          "name": "previousOwner",
          "type": "address"
        },
        {
          "indexed": true,
          "internalType": "address",
          "name": "newOwner",
          "type": "address"
        }
      ],
      "name": "OwnershipTransferred",
      "type": "event"
    },
    {
      "anonymous": false,
      "inputs": [
        {
          "indexed": true,
          "internalType": "address",
          "name": "from",
          "type": "address"
        },
        {
          "indexed": true,
          "internalType": "address",
          "name": "to",
          "type": "address"
        },
        {
          "indexed": true,
          "internalType": "uint256",
          "name": "tokenId",
          "type": "uint256"
        }
      ],
      "name": "Transfer",
      "type": "event"
    },
    {
      "inputs": [
        {
          "internalType": "address",
          "name": "to",
          "type": "address"
        },
        {
          "internalType": "uint256",
          "name": "tokenId",
          "type": "uint256"
        }
      ],
      "name": "approve",
      "outputs": [],
      "stateMutability": "nonpayable",
      "type": "function"
    },
    {
      "inputs": [
        {
          "internalType": "address",
          "name": "owner",
          "type": "address"
        }
      ],
      "name": "balanceOf",
      "outputs": [
        {
          "internalType": "uint256",
          "name": "",
          "type": "uint256"
        }
      ],
      "stateMutability": "view",
      "type": "function"
    },
    {
      "inputs": [],
      "name": "freeMints",
      "outputs": [
        {
          "internalType": "uint256",
          "name": "",
          "type": "uint256"
        }
      ],
      "stateMutability": "view",
      "type": "function"
    },
    {
      "inputs": [
        {
          "internalType": "uint256",
          "name": "tokenId",
          "type": "uint256"
        }
      ],
      "name": "getApproved",
      "outputs": [
        {
          "internalType": "address",
          "name": "",
          "type": "address"
        }
      ],
      "stateMutability": "view",
      "type": "function"
    },
    {
      "inputs": [],
      "name": "getBalance",
      "outputs": [
        {
          "internalType": "uint256",
          "name": "",
          "type": "uint256"
        }
      ],
      "stateMutability": "view",
      "type": "function"
    },
    {
      "inputs": [
        {
          "internalType": "address",
          "name": "owner",
          "type": "address"
        },
        {
          "internalType": "address",
          "name": "operator",
          "type": "address"
        }
      ],
      "name": "isApprovedForAll",
      "outputs": [
        {
          "internalType": "bool",
          "name": "",
          "type": "bool"
        }
      ],
      "stateMutability": "view",
      "type": "function"
    },
    {
      "inputs": [],
      "name": "isMintFree",
      "outputs": [
        {
          "internalType": "bool",
          "name": "",
          "type": "bool"
        }
      ],
      "stateMutability": "view",
      "type": "function"
    },
    {
      "inputs": [],
      "name": "metadataFolderURI",
      "outputs": [
        {
          "internalType": "string",
          "name": "",
          "type": "string"
        }
      ],
      "stateMutability": "view",
      "type": "function"
    },
    {
      "inputs": [],
      "name": "mint",
      "outputs": [],
      "stateMutability": "payable",
      "type": "function"
    },
    {
      "inputs": [],
      "name": "mintActive",
      "outputs": [
        {
          "internalType": "uint256",
          "name": "",
          "type": "uint256"
        }
      ],
      "stateMutability": "view",
      "type": "function"
    },
    {
      "inputs": [
        {
          "internalType": "address",
          "name": "",
          "type": "address"
        }
      ],
      "name": "minted",
      "outputs": [
        {
          "internalType": "uint256",
          "name": "",
          "type": "uint256"
        }
      ],
      "stateMutability": "view",
      "type": "function"
    },
    {
      "inputs": [],
      "name": "mintsPerAddress",
      "outputs": [
        {
          "internalType": "uint256",
          "name": "",
          "type": "uint256"
        }
      ],
      "stateMutability": "view",
      "type": "function"
    },
    {
      "inputs": [],
      "name": "name",
      "outputs": [
        {
          "internalType": "string",
          "name": "",
          "type": "string"
        }
      ],
      "stateMutability": "view",
      "type": "function"
    },
    {
      "inputs": [],
      "name": "owner",
      "outputs": [
        {
          "internalType": "address",
          "name": "",
          "type": "address"
        }
      ],
      "stateMutability": "view",
      "type": "function"
    },
    {
      "inputs": [
        {
          "internalType": "uint256",
          "name": "tokenId",
          "type": "uint256"
        }
      ],
      "name": "ownerOf",
      "outputs": [
        {
          "internalType": "address",
          "name": "",
          "type": "address"
        }
      ],
      "stateMutability": "view",
      "type": "function"
    },
    {
      "inputs": [
        {
          "internalType": "address",
          "name": "payee",
          "type": "address"
        },
        {
          "internalType": "uint256",
          "name": "amountInEth",
          "type": "uint256"
        }
      ],
      "name": "pay",
      "outputs": [],
      "stateMutability": "nonpayable",
      "type": "function"
    },
    {
      "inputs": [],
      "name": "price",
      "outputs": [
        {
          "internalType": "uint256",
          "name": "",
          "type": "uint256"
        }
      ],
      "stateMutability": "view",
      "type": "function"
    },
    {
      "inputs": [],
      "name": "renounceOwnership",
      "outputs": [],
      "stateMutability": "nonpayable",
      "type": "function"
    },
    {
      "inputs": [],
      "name": "reverseBirthday",
      "outputs": [
        {
          "internalType": "uint256",
          "name": "",
          "type": "uint256"
        }
      ],
      "stateMutability": "view",
      "type": "function"
    },
    {
      "inputs": [
        {
          "internalType": "address",
          "name": "from",
          "type": "address"
        },
        {
          "internalType": "address",
          "name": "to",
          "type": "address"
        },
        {
          "internalType": "uint256",
          "name": "tokenId",
          "type": "uint256"
        }
      ],
      "name": "safeTransferFrom",
      "outputs": [],
      "stateMutability": "nonpayable",
      "type": "function"
    },
    {
      "inputs": [
        {
          "internalType": "address",
          "name": "from",
          "type": "address"
        },
        {
          "internalType": "address",
          "name": "to",
          "type": "address"
        },
        {
          "internalType": "uint256",
          "name": "tokenId",
          "type": "uint256"
        },
        {
          "internalType": "bytes",
          "name": "_data",
          "type": "bytes"
        }
      ],
      "name": "safeTransferFrom",
      "outputs": [],
      "stateMutability": "nonpayable",
      "type": "function"
    },
    {
      "inputs": [
        {
          "internalType": "address",
          "name": "operator",
          "type": "address"
        },
        {
          "internalType": "bool",
          "name": "approved",
          "type": "bool"
        }
      ],
      "name": "setApprovalForAll",
      "outputs": [],
      "stateMutability": "nonpayable",
      "type": "function"
    },
    {
      "inputs": [
        {
          "internalType": "string",
          "name": "folderUrl",
          "type": "string"
        }
      ],
      "name": "setMetadataFolderURI",
      "outputs": [],
      "stateMutability": "nonpayable",
      "type": "function"
    },
    {
      "inputs": [
        {
          "internalType": "uint256",
          "name": "_mintActive",
          "type": "uint256"
        }
      ],
      "name": "setMintActive",
      "outputs": [],
      "stateMutability": "nonpayable",
      "type": "function"
    },
    {
      "inputs": [
        {
          "internalType": "bytes4",
          "name": "interfaceId",
          "type": "bytes4"
        }
      ],
      "name": "supportsInterface",
      "outputs": [
        {
          "internalType": "bool",
          "name": "",
          "type": "bool"
        }
      ],
      "stateMutability": "view",
      "type": "function"
    },
    {
      "inputs": [],
      "name": "symbol",
      "outputs": [
        {
          "internalType": "string",
          "name": "",
          "type": "string"
        }
      ],
      "stateMutability": "view",
      "type": "function"
    },
    {
      "inputs": [
        {
          "internalType": "uint256",
          "name": "tokenId",
          "type": "uint256"
        }
      ],
      "name": "tokenURI",
      "outputs": [
        {
          "internalType": "string",
          "name": "",
          "type": "string"
        }
      ],
      "stateMutability": "view",
      "type": "function"
    },
    {
      "inputs": [
        {
          "internalType": "address",
          "name": "from",
          "type": "address"
        },
        {
          "internalType": "address",
          "name": "to",
          "type": "address"
        },
        {
          "internalType": "uint256",
          "name": "tokenId",
          "type": "uint256"
        }
      ],
      "name": "transferFrom",
      "outputs": [],
      "stateMutability": "nonpayable",
      "type": "function"
    },
    {
      "inputs": [
        {
          "internalType": "address",
          "name": "newOwner",
          "type": "address"
        }
      ],
      "name": "transferOwnership",
      "outputs": [],
      "stateMutability": "nonpayable",
      "type": "function"
    },
    {
      "inputs": [],
      "name": "withdraw",
      "outputs": [],
      "stateMutability": "nonpayable",
      "type": "function"
    }
  ],
  "bytecode": "0x60806040526000600b553480156200001657600080fd5b50604051620020ad380380620020ad833981016040819052620000399162000265565b8451859085906200005290600090602085019062000108565b5080516200006890600190602084019062000108565b505050620000856200007f620000b260201b60201c565b620000b6565b82516200009a90600890602086019062000108565b50600c9190915543600a55600d55506200035c915050565b3390565b600680546001600160a01b038381166001600160a01b0319831681179093556040519116919082907f8be0079c531659141344cd1fd0a4f28419497f9722a3daafe3b4186f6b6457e090600090a35050565b828054620001169062000309565b90600052602060002090601f0160209004810192826200013a576000855562000185565b82601f106200015557805160ff191683800117855562000185565b8280016001018555821562000185579182015b828111156200018557825182559160200191906001019062000168565b506200019392915062000197565b5090565b5b8082111562000193576000815560010162000198565b600082601f830112620001c057600080fd5b81516001600160401b0380821115620001dd57620001dd62000346565b604051601f8301601f19908116603f0116810190828211818310171562000208576200020862000346565b816040528381526020925086838588010111156200022557600080fd5b600091505b838210156200024957858201830151818301840152908201906200022a565b838211156200025b5760008385830101525b9695505050505050565b600080600080600060a086880312156200027e57600080fd5b85516001600160401b03808211156200029657600080fd5b620002a489838a01620001ae565b96506020880151915080821115620002bb57600080fd5b620002c989838a01620001ae565b95506040880151915080821115620002e057600080fd5b50620002ef88828901620001ae565b606088015160809098015196999598509695949350505050565b600181811c908216806200031e57607f821691505b602082108114156200034057634e487b7160e01b600052602260045260246000fd5b50919050565b634e487b7160e01b600052604160045260246000fd5b611d41806200036c6000396000f3fe60806040526004361061015d5760003560e01c806301ffc9a71461016257806306fdde0314610197578063081812fc146101b9578063095ea7b3146101f157806312065fe0146102135780631249c58b146102305780631e7269c51461023857806323b872dd1461026557806325fd90f3146102855780632ec376b81461029b5780633ccfd60b146102b157806342842e0e146102c657806347cce091146102e65780636352211e146102fc57806370a082311461031c578063715018a61461033c57806380b17335146103515780638da5cb5b146103675780638f9d85201461037c578063946960201461039c57806395d89b41146103bc578063a035b1fe146103d1578063a1182e8e146103ec578063a22cb46514610401578063ac7fdfaf14610421578063b88d4fde14610436578063c407687614610456578063c87b56dd14610476578063e985e9c514610496578063f2fde38b146104b6575b600080fd5b34801561016e57600080fd5b5061018261017d3660046118f2565b6104d6565b60405190151581526020015b60405180910390f35b3480156101a357600080fd5b506101ac610528565b60405161018e9190611ab9565b3480156101c557600080fd5b506101d96101d4366004611974565b6105ba565b6040516001600160a01b03909116815260200161018e565b3480156101fd57600080fd5b5061021161020c3660046118c8565b610647565b005b34801561021f57600080fd5b50475b60405190815260200161018e565b610211610758565b34801561024457600080fd5b50610222610253366004611780565b60096020526000908152604090205481565b34801561027157600080fd5b506102116102803660046117d5565b61093a565b34801561029157600080fd5b50610222600b5481565b3480156102a757600080fd5b50610222600a5481565b3480156102bd57600080fd5b5061021161096b565b3480156102d257600080fd5b506102116102e13660046117d5565b6109cd565b3480156102f257600080fd5b50610222600d5481565b34801561030857600080fd5b506101d9610317366004611974565b6109e8565b34801561032857600080fd5b50610222610337366004611780565b610a5f565b34801561034857600080fd5b50610211610ae6565b34801561035d57600080fd5b50610222600c5481565b34801561037357600080fd5b506101d9610b21565b34801561038857600080fd5b5061021161039736600461192c565b610b30565b3480156103a857600080fd5b506102116103b7366004611974565b610b72565b3480156103c857600080fd5b506101ac610ba6565b3480156103dd57600080fd5b50610222662386f26fc1000081565b3480156103f857600080fd5b506101ac610bb5565b34801561040d57600080fd5b5061021161041c36600461188c565b610c43565b34801561042d57600080fd5b50610182610d04565b34801561044257600080fd5b50610211610451366004611811565b610d18565b34801561046257600080fd5b506102116104713660046118c8565b610d50565b34801561048257600080fd5b506101ac610491366004611974565b610e06565b3480156104a257600080fd5b506101826104b13660046117a2565b610ea9565b3480156104c257600080fd5b506102116104d1366004611780565b610ed7565b60006001600160e01b031982166380ac58cd60e01b148061050757506001600160e01b03198216635b5e139f60e01b145b8061052257506301ffc9a760e01b6001600160e01b03198316145b92915050565b60606000805461053790611c13565b80601f016020809104026020016040519081016040528092919081815260200182805461056390611c13565b80156105b05780601f10610585576101008083540402835291602001916105b0565b820191906000526020600020905b81548152906001019060200180831161059357829003601f168201915b5050505050905090565b60006105c582610f77565b61062b5760405162461bcd60e51b815260206004820152602c60248201527f4552433732313a20617070726f76656420717565727920666f72206e6f6e657860448201526b34b9ba32b73a103a37b5b2b760a11b60648201526084015b60405180910390fd5b506000908152600460205260409020546001600160a01b031690565b6000610652826109e8565b9050806001600160a01b0316836001600160a01b031614156106c05760405162461bcd60e51b815260206004820152602160248201527f4552433732313a20617070726f76616c20746f2063757272656e74206f776e656044820152603960f91b6064820152608401610622565b336001600160a01b03821614806106dc57506106dc8133610ea9565b6107495760405162461bcd60e51b815260206004820152603860248201527f4552433732313a20617070726f76652063616c6c6572206973206e6f74206f776044820152771b995c881b9bdc88185c1c1c9bdd995908199bdc88185b1b60421b6064820152608401610622565b6107538383610f94565b505050565b600b546001146107a45760405162461bcd60e51b815260206004820152601760248201527636b4b73a1034b9903737ba1030b1ba34bb32903937171760491b6044820152606401610622565b3233146107e65760405162461bcd60e51b815260206004820152601060248201526f191bdb9d0819d95d0814d95d995b89d960821b6044820152606401610622565b600d5433600090815260096020526040902054106108465760405162461bcd60e51b815260206004820152601e60248201527f6f6e6c792031206d696e74207065722077616c6c6574206164647265737300006044820152606401610622565b600754600c54116108bd57662386f26fc100003410156108bd5760405162461bcd60e51b815260206004820152602c60248201527f6d696e74696e67206973206e6f206c6f6e67657220667265652c20697420636f60448201526b0e6e8e640605c606240cae8d60a31b6064820152608401610622565b6108cb600780546001019055565b3360009081526009602052604081208054916108e683611c4e565b919050555060006108f660075490565b90506109023382611002565b60405181815233907f0f6798a560793a54c3bcfe86a93cde1e73087d944c0ea20544137d41213968859060200160405180910390a250565b610944338261101c565b6109605760405162461bcd60e51b815260040161062290611b53565b6107538383836110e6565b33610974610b21565b6001600160a01b03161461099a5760405162461bcd60e51b815260040161062290611b1e565b6040514790339082156108fc029083906000818181858888f193505050501580156109c9573d6000803e3d6000fd5b5050565b61075383838360405180602001604052806000815250610d18565b6000818152600260205260408120546001600160a01b0316806105225760405162461bcd60e51b815260206004820152602960248201527f4552433732313a206f776e657220717565727920666f72206e6f6e657869737460448201526832b73a103a37b5b2b760b91b6064820152608401610622565b60006001600160a01b038216610aca5760405162461bcd60e51b815260206004820152602a60248201527f4552433732313a2062616c616e636520717565727920666f7220746865207a65604482015269726f206164647265737360b01b6064820152608401610622565b506001600160a01b031660009081526003602052604090205490565b33610aef610b21565b6001600160a01b031614610b155760405162461bcd60e51b815260040161062290611b1e565b610b1f6000611274565b565b6006546001600160a01b031690565b33610b39610b21565b6001600160a01b031614610b5f5760405162461bcd60e51b815260040161062290611b1e565b80516109c9906008906020840190611656565b33610b7b610b21565b6001600160a01b031614610ba15760405162461bcd60e51b815260040161062290611b1e565b600b55565b60606001805461053790611c13565b60088054610bc290611c13565b80601f0160208091040260200160405190810160405280929190818152602001828054610bee90611c13565b8015610c3b5780601f10610c1057610100808354040283529160200191610c3b565b820191906000526020600020905b815481529060010190602001808311610c1e57829003601f168201915b505050505081565b6001600160a01b038216331415610c985760405162461bcd60e51b815260206004820152601960248201527822a9219b99189d1030b8383937bb32903a379031b0b63632b960391b6044820152606401610622565b3360008181526005602090815260408083206001600160a01b03871680855290835292819020805460ff191686151590811790915590519081529192917f17307eab39ab6107e8899845ad3d59bd9653f200f220920489ca2b5937696c31910160405180910390a35050565b6000610d0f60075490565b600c5411905090565b610d22338361101c565b610d3e5760405162461bcd60e51b815260040161062290611b53565b610d4a848484846112c6565b50505050565b33610d59610b21565b6001600160a01b031614610d7f5760405162461bcd60e51b815260040161062290611b1e565b4781811015610dd05760405162461bcd60e51b815260206004820152601e60248201527f576520646f6e7420686176652074686174206d75636820746f207061792100006044820152606401610622565b6040516001600160a01b0384169083156108fc029084906000818181858888f19350505050158015610d4a573d6000803e3d6000fd5b6060610e1182610f77565b610e775760405162461bcd60e51b815260206004820152603160248201527f45524337323155524953746f726167653a2055524920717565727920666f72206044820152703737b732bc34b9ba32b73a103a37b5b2b760791b6064820152608401610622565b6008610e82836112f9565b604051602001610e939291906119d5565b6040516020818303038152906040529050919050565b6001600160a01b03918216600090815260056020908152604080832093909416825291909152205460ff1690565b33610ee0610b21565b6001600160a01b031614610f065760405162461bcd60e51b815260040161062290611b1e565b6001600160a01b038116610f6b5760405162461bcd60e51b815260206004820152602660248201527f4f776e61626c653a206e6577206f776e657220697320746865207a65726f206160448201526564647265737360d01b6064820152608401610622565b610f7481611274565b50565b6000908152600260205260409020546001600160a01b0316151590565b600081815260046020526040902080546001600160a01b0319166001600160a01b0384169081179091558190610fc9826109e8565b6001600160a01b03167f8c5be1e5ebec7d5bd14f71427d1e84f3dd0314c0f7b2291e5b200ac8c7c3b92560405160405180910390a45050565b6109c98282604051806020016040528060008152506113f6565b600061102782610f77565b6110885760405162461bcd60e51b815260206004820152602c60248201527f4552433732313a206f70657261746f7220717565727920666f72206e6f6e657860448201526b34b9ba32b73a103a37b5b2b760a11b6064820152608401610622565b6000611093836109e8565b9050806001600160a01b0316846001600160a01b031614806110ce5750836001600160a01b03166110c3846105ba565b6001600160a01b0316145b806110de57506110de8185610ea9565b949350505050565b826001600160a01b03166110f9826109e8565b6001600160a01b0316146111615760405162461bcd60e51b815260206004820152602960248201527f4552433732313a207472616e73666572206f6620746f6b656e2074686174206960448201526839903737ba1037bbb760b91b6064820152608401610622565b6001600160a01b0382166111c35760405162461bcd60e51b8152602060048201526024808201527f4552433732313a207472616e7366657220746f20746865207a65726f206164646044820152637265737360e01b6064820152608401610622565b6111ce600082610f94565b6001600160a01b03831660009081526003602052604081208054600192906111f7908490611bd0565b90915550506001600160a01b0382166000908152600360205260408120805460019290611225908490611ba4565b909155505060008181526002602052604080822080546001600160a01b0319166001600160a01b038681169182179092559151849391871691600080516020611cec83398151915291a4505050565b600680546001600160a01b038381166001600160a01b0319831681179093556040519116919082907f8be0079c531659141344cd1fd0a4f28419497f9722a3daafe3b4186f6b6457e090600090a35050565b6112d18484846110e6565b6112dd84848484611429565b610d4a5760405162461bcd60e51b815260040161062290611acc565b60608161131d5750506040805180820190915260018152600360fc1b602082015290565b8160005b8115611347578061133181611c4e565b91506113409050600a83611bbc565b9150611321565b6000816001600160401b0381111561136157611361611cbf565b6040519080825280601f01601f19166020018201604052801561138b576020820181803683370190505b5090505b84156110de576113a0600183611bd0565b91506113ad600a86611c69565b6113b8906030611ba4565b60f81b8183815181106113cd576113cd611ca9565b60200101906001600160f81b031916908160001a9053506113ef600a86611bbc565b945061138f565b6114008383611536565b61140d6000848484611429565b6107535760405162461bcd60e51b815260040161062290611acc565b60006001600160a01b0384163b1561152b57604051630a85bd0160e11b81526001600160a01b0385169063150b7a029061146d903390899088908890600401611a7c565b602060405180830381600087803b15801561148757600080fd5b505af19250505080156114b7575060408051601f3d908101601f191682019092526114b49181019061190f565b60015b611511573d8080156114e5576040519150601f19603f3d011682016040523d82523d6000602084013e6114ea565b606091505b5080516115095760405162461bcd60e51b815260040161062290611acc565b805181602001fd5b6001600160e01b031916630a85bd0160e11b1490506110de565b506001949350505050565b6001600160a01b03821661158c5760405162461bcd60e51b815260206004820181905260248201527f4552433732313a206d696e7420746f20746865207a65726f20616464726573736044820152606401610622565b61159581610f77565b156115e15760405162461bcd60e51b815260206004820152601c60248201527b115490cdcc8c4e881d1bdad95b88185b1c9958591e481b5a5b9d195960221b6044820152606401610622565b6001600160a01b038216600090815260036020526040812080546001929061160a908490611ba4565b909155505060008181526002602052604080822080546001600160a01b0319166001600160a01b0386169081179091559051839290600080516020611cec833981519152908290a45050565b82805461166290611c13565b90600052602060002090601f01602090048101928261168457600085556116ca565b82601f1061169d57805160ff19168380011785556116ca565b828001600101855582156116ca579182015b828111156116ca5782518255916020019190600101906116af565b506116d69291506116da565b5090565b5b808211156116d657600081556001016116db565b60006001600160401b038084111561170957611709611cbf565b604051601f8501601f19908116603f0116810190828211818310171561173157611731611cbf565b8160405280935085815286868601111561174a57600080fd5b858560208301376000602087830101525050509392505050565b80356001600160a01b038116811461177b57600080fd5b919050565b60006020828403121561179257600080fd5b61179b82611764565b9392505050565b600080604083850312156117b557600080fd5b6117be83611764565b91506117cc60208401611764565b90509250929050565b6000806000606084860312156117ea57600080fd5b6117f384611764565b925061180160208501611764565b9150604084013590509250925092565b6000806000806080858703121561182757600080fd5b61183085611764565b935061183e60208601611764565b92506040850135915060608501356001600160401b0381111561186057600080fd5b8501601f8101871361187157600080fd5b611880878235602084016116ef565b91505092959194509250565b6000806040838503121561189f57600080fd5b6118a883611764565b9150602083013580151581146118bd57600080fd5b809150509250929050565b600080604083850312156118db57600080fd5b6118e483611764565b946020939093013593505050565b60006020828403121561190457600080fd5b813561179b81611cd5565b60006020828403121561192157600080fd5b815161179b81611cd5565b60006020828403121561193e57600080fd5b81356001600160401b0381111561195457600080fd5b8201601f8101841361196557600080fd5b6110de848235602084016116ef565b60006020828403121561198657600080fd5b5035919050565b600081518084526119a5816020860160208601611be7565b601f01601f19169290920160200192915050565b600081516119cb818560208601611be7565b9290920192915050565b600080845481600182811c9150808316806119f157607f831692505b6020808410821415611a1157634e487b7160e01b86526022600452602486fd5b818015611a255760018114611a3657611a63565b60ff19861689528489019650611a63565b60008b81526020902060005b86811015611a5b5781548b820152908501908301611a42565b505084890196505b505050505050611a7381856119b9565b95945050505050565b6001600160a01b0385811682528416602082015260408101839052608060608201819052600090611aaf9083018461198d565b9695505050505050565b60208152600061179b602083018461198d565b60208082526032908201527f4552433732313a207472616e7366657220746f206e6f6e20455243373231526560408201527131b2b4bb32b91034b6b83632b6b2b73a32b960711b606082015260800190565b6020808252818101527f4f776e61626c653a2063616c6c6572206973206e6f7420746865206f776e6572604082015260600190565b60208082526031908201527f4552433732313a207472616e736665722063616c6c6572206973206e6f74206f6040820152701ddb995c881b9bdc88185c1c1c9bdd9959607a1b606082015260800190565b60008219821115611bb757611bb7611c7d565b500190565b600082611bcb57611bcb611c93565b500490565b600082821015611be257611be2611c7d565b500390565b60005b83811015611c02578181015183820152602001611bea565b83811115610d4a5750506000910152565b600181811c90821680611c2757607f821691505b60208210811415611c4857634e487b7160e01b600052602260045260246000fd5b50919050565b6000600019821415611c6257611c62611c7d565b5060010190565b600082611c7857611c78611c93565b500690565b634e487b7160e01b600052601160045260246000fd5b634e487b7160e01b600052601260045260246000fd5b634e487b7160e01b600052603260045260246000fd5b634e487b7160e01b600052604160045260246000fd5b6001600160e01b031981168114610f7457600080fdfeddf252ad1be2c89b69c2b068fc378daa952ba7f163c4a11628f55a4df523b3efa2646970667358221220c9e7991320f186de0df20109e6c596a699ac8f708bcd8650301b0c01669e5d0c64736f6c63430008060033",
  "linkReferences": {},
  "deployedLinkReferences": {}
}