{
  "_format": "hh-sol-artifact-1",
  "contractName": "SVGTemplate",
  "sourceName": "contracts/SVGTemplate.sol",
  "abi": [
    {
      "inputs": [
        {
          "internalType": "string",
          "name": "_name",
          "type": "string"
        },
        {
          "internalType": "string",
          "name": "_symbol",
          "type": "string"
        }
      ],
      "stateMutability": "nonpayable",
      "type": "constructor"
    },
    {
      "anonymous": false,
      "inputs": [
        {
          "indexed": true,
          "internalType": "address",
          "name": "owner",
          "type": "address"
        },
        {
          "indexed": true,
          "internalType": "address",
          "name": "approved",
          "type": "address"
        },
        {
          "indexed": true,
          "internalType": "uint256",
          "name": "tokenId",
          "type": "uint256"
        }
      ],
      "name": "Approval",
      "type": "event"
    },
    {
      "anonymous": false,
      "inputs": [
        {
          "indexed": true,
          "internalType": "address",
          "name": "owner",
          "type": "address"
        },
        {
          "indexed": true,
          "internalType": "address",
          "name": "operator",
          "type": "address"
        },
        {
          "indexed": false,
          "internalType": "bool",
          "name": "approved",
          "type": "bool"
        }
      ],
      "name": "ApprovalForAll",
      "type": "event"
    },
    {
      "anonymous": false,
      "inputs": [
        {
          "indexed": true,
          "internalType": "address",
          "name": "previousOwner",
          "type": "address"
        },
        {
          "indexed": true,
          "internalType": "address",
          "name": "newOwner",
          "type": "address"
        }
      ],
      "name": "OwnershipTransferred",
      "type": "event"
    },
    {
      "anonymous": false,
      "inputs": [
        {
          "indexed": true,
          "internalType": "address",
          "name": "from",
          "type": "address"
        },
        {
          "indexed": true,
          "internalType": "address",
          "name": "to",
          "type": "address"
        },
        {
          "indexed": true,
          "internalType": "uint256",
          "name": "tokenId",
          "type": "uint256"
        }
      ],
      "name": "Transfer",
      "type": "event"
    },
    {
      "inputs": [
        {
          "internalType": "address",
          "name": "to",
          "type": "address"
        },
        {
          "internalType": "uint256",
          "name": "tokenId",
          "type": "uint256"
        }
      ],
      "name": "approve",
      "outputs": [],
      "stateMutability": "nonpayable",
      "type": "function"
    },
    {
      "inputs": [
        {
          "internalType": "address",
          "name": "owner",
          "type": "address"
        }
      ],
      "name": "balanceOf",
      "outputs": [
        {
          "internalType": "uint256",
          "name": "",
          "type": "uint256"
        }
      ],
      "stateMutability": "view",
      "type": "function"
    },
    {
      "inputs": [
        {
          "internalType": "uint256",
          "name": "tokenId",
          "type": "uint256"
        }
      ],
      "name": "getApproved",
      "outputs": [
        {
          "internalType": "address",
          "name": "",
          "type": "address"
        }
      ],
      "stateMutability": "view",
      "type": "function"
    },
    {
      "inputs": [
        {
          "internalType": "address",
          "name": "owner",
          "type": "address"
        },
        {
          "internalType": "address",
          "name": "operator",
          "type": "address"
        }
      ],
      "name": "isApprovedForAll",
      "outputs": [
        {
          "internalType": "bool",
          "name": "",
          "type": "bool"
        }
      ],
      "stateMutability": "view",
      "type": "function"
    },
    {
      "inputs": [
        {
          "internalType": "string",
          "name": "_name",
          "type": "string"
        },
        {
          "internalType": "string",
          "name": "_artistName",
          "type": "string"
        },
        {
          "internalType": "string",
          "name": "_description",
          "type": "string"
        },
        {
          "internalType": "string",
          "name": "_svgString",
          "type": "string"
        }
      ],
      "name": "mintWithData",
      "outputs": [],
      "stateMutability": "nonpayable",
      "type": "function"
    },
    {
      "inputs": [],
      "name": "name",
      "outputs": [
        {
          "internalType": "string",
          "name": "",
          "type": "string"
        }
      ],
      "stateMutability": "view",
      "type": "function"
    },
    {
      "inputs": [],
      "name": "owner",
      "outputs": [
        {
          "internalType": "address",
          "name": "",
          "type": "address"
        }
      ],
      "stateMutability": "view",
      "type": "function"
    },
    {
      "inputs": [
        {
          "internalType": "uint256",
          "name": "tokenId",
          "type": "uint256"
        }
      ],
      "name": "ownerOf",
      "outputs": [
        {
          "internalType": "address",
          "name": "",
          "type": "address"
        }
      ],
      "stateMutability": "view",
      "type": "function"
    },
    {
      "inputs": [],
      "name": "renounceOwnership",
      "outputs": [],
      "stateMutability": "nonpayable",
      "type": "function"
    },
    {
      "inputs": [
        {
          "internalType": "address",
          "name": "from",
          "type": "address"
        },
        {
          "internalType": "address",
          "name": "to",
          "type": "address"
        },
        {
          "internalType": "uint256",
          "name": "tokenId",
          "type": "uint256"
        }
      ],
      "name": "safeTransferFrom",
      "outputs": [],
      "stateMutability": "nonpayable",
      "type": "function"
    },
    {
      "inputs": [
        {
          "internalType": "address",
          "name": "from",
          "type": "address"
        },
        {
          "internalType": "address",
          "name": "to",
          "type": "address"
        },
        {
          "internalType": "uint256",
          "name": "tokenId",
          "type": "uint256"
        },
        {
          "internalType": "bytes",
          "name": "_data",
          "type": "bytes"
        }
      ],
      "name": "safeTransferFrom",
      "outputs": [],
      "stateMutability": "nonpayable",
      "type": "function"
    },
    {
      "inputs": [
        {
          "internalType": "address",
          "name": "operator",
          "type": "address"
        },
        {
          "internalType": "bool",
          "name": "approved",
          "type": "bool"
        }
      ],
      "name": "setApprovalForAll",
      "outputs": [],
      "stateMutability": "nonpayable",
      "type": "function"
    },
    {
      "inputs": [
        {
          "internalType": "bytes4",
          "name": "interfaceId",
          "type": "bytes4"
        }
      ],
      "name": "supportsInterface",
      "outputs": [
        {
          "internalType": "bool",
          "name": "",
          "type": "bool"
        }
      ],
      "stateMutability": "view",
      "type": "function"
    },
    {
      "inputs": [],
      "name": "symbol",
      "outputs": [
        {
          "internalType": "string",
          "name": "",
          "type": "string"
        }
      ],
      "stateMutability": "view",
      "type": "function"
    },
    {
      "inputs": [],
      "name": "tokenCounter",
      "outputs": [
        {
          "internalType": "uint256",
          "name": "",
          "type": "uint256"
        }
      ],
      "stateMutability": "view",
      "type": "function"
    },
    {
      "inputs": [
        {
          "internalType": "uint256",
          "name": "",
          "type": "uint256"
        }
      ],
      "name": "tokenToDataMapping",
      "outputs": [
        {
          "internalType": "address",
          "name": "minter",
          "type": "address"
        },
        {
          "internalType": "string",
          "name": "name",
          "type": "string"
        },
        {
          "internalType": "string",
          "name": "artistName",
          "type": "string"
        },
        {
          "internalType": "string",
          "name": "description",
          "type": "string"
        },
        {
          "internalType": "string",
          "name": "svgData",
          "type": "string"
        }
      ],
      "stateMutability": "view",
      "type": "function"
    },
    {
      "inputs": [
        {
          "internalType": "uint256",
          "name": "tokenId",
          "type": "uint256"
        }
      ],
      "name": "tokenURI",
      "outputs": [
        {
          "internalType": "string",
          "name": "",
          "type": "string"
        }
      ],
      "stateMutability": "view",
      "type": "function"
    },
    {
      "inputs": [
        {
          "internalType": "address",
          "name": "from",
          "type": "address"
        },
        {
          "internalType": "address",
          "name": "to",
          "type": "address"
        },
        {
          "internalType": "uint256",
          "name": "tokenId",
          "type": "uint256"
        }
      ],
      "name": "transferFrom",
      "outputs": [],
      "stateMutability": "nonpayable",
      "type": "function"
    },
    {
      "inputs": [
        {
          "internalType": "address",
          "name": "newOwner",
          "type": "address"
        }
      ],
      "name": "transferOwnership",
      "outputs": [],
      "stateMutability": "nonpayable",
      "type": "function"
    }
  ],
  "bytecode": "0x60806040523480156200001157600080fd5b506040516200223c3803806200223c833981016040819052620000349162000302565b8151829082906200004d906000906020850190620001a5565b50805162000063906001906020840190620001a5565b505050620000806200007a6200014f60201b60201c565b62000153565b60006008556040805160a0810190915260628082526200219060208301398051620000b491600a91602090910190620001a5565b506040518060800160405280604a8152602001620021f2604a91398051620000e591600b91602090910190620001a5565b50604051806060016040528060308152602001620021606030913980516200011691600c91602090910190620001a5565b50604080518082019091526006808252651e17b9bb339f60d11b60209092019182526200014691600d91620001a5565b505050620003bf565b3390565b600780546001600160a01b038381166001600160a01b0319831681179093556040519116919082907f8be0079c531659141344cd1fd0a4f28419497f9722a3daafe3b4186f6b6457e090600090a35050565b828054620001b3906200036c565b90600052602060002090601f016020900481019282620001d7576000855562000222565b82601f10620001f257805160ff191683800117855562000222565b8280016001018555821562000222579182015b828111156200022257825182559160200191906001019062000205565b506200023092915062000234565b5090565b5b8082111562000230576000815560010162000235565b600082601f8301126200025d57600080fd5b81516001600160401b03808211156200027a576200027a620003a9565b604051601f8301601f19908116603f01168101908282118183101715620002a557620002a5620003a9565b81604052838152602092508683858801011115620002c257600080fd5b600091505b83821015620002e65785820183015181830184015290820190620002c7565b83821115620002f85760008385830101525b9695505050505050565b600080604083850312156200031657600080fd5b82516001600160401b03808211156200032e57600080fd5b6200033c868387016200024b565b935060208501519150808211156200035357600080fd5b5062000362858286016200024b565b9150509250929050565b600181811c908216806200038157607f821691505b60208210811415620003a357634e487b7160e01b600052602260045260246000fd5b50919050565b634e487b7160e01b600052604160045260246000fd5b611d9180620003cf6000396000f3fe608060405234801561001057600080fd5b50600436106100f15760003560e01c806301ffc9a7146100f657806306fdde031461011e578063081812fc14610133578063095ea7b31461015e57806323b872dd146101735780632f0e95501461018657806342842e0e14610199578063609845f3146101ac5780636352211e146101d057806370a08231146101e3578063715018a6146102045780638da5cb5b1461020c57806395d89b4114610214578063a22cb4651461021c578063b88d4fde1461022f578063c87b56dd14610242578063d082e38114610255578063e985e9c51461025e578063f2fde38b14610271575b600080fd5b610109610104366004611702565b610284565b60405190151581526020015b60405180910390f35b6101266102d6565b6040516101159190611aae565b6101466101413660046117dc565b610368565b6040516001600160a01b039091168152602001610115565b61017161016c3660046116d8565b6103f5565b005b6101716101813660046115e5565b610506565b61017161019436600461173c565b610537565b6101716101a73660046115e5565b610620565b6101bf6101ba3660046117dc565b61063b565b604051610115959493929190611a44565b6101466101de3660046117dc565b610894565b6101f66101f1366004611597565b61090b565b604051908152602001610115565b610171610992565b6101466109cd565b6101266109dc565b61017161022a36600461169c565b6109eb565b61017161023d366004611621565b610aac565b6101266102503660046117dc565b610ae4565b6101f660085481565b61010961026c3660046115b2565b610bc7565b61017161027f366004611597565b610bf5565b60006001600160e01b031982166380ac58cd60e01b14806102b557506001600160e01b03198216635b5e139f60e01b145b806102d057506301ffc9a760e01b6001600160e01b03198316145b92915050565b6060600080546102e590611c63565b80601f016020809104026020016040519081016040528092919081815260200182805461031190611c63565b801561035e5780601f106103335761010080835404028352916020019161035e565b820191906000526020600020905b81548152906001019060200180831161034157829003601f168201915b5050505050905090565b600061037382610c95565b6103d95760405162461bcd60e51b815260206004820152602c60248201527f4552433732313a20617070726f76656420717565727920666f72206e6f6e657860448201526b34b9ba32b73a103a37b5b2b760a11b60648201526084015b60405180910390fd5b506000908152600460205260409020546001600160a01b031690565b600061040082610894565b9050806001600160a01b0316836001600160a01b0316141561046e5760405162461bcd60e51b815260206004820152602160248201527f4552433732313a20617070726f76616c20746f2063757272656e74206f776e656044820152603960f91b60648201526084016103d0565b336001600160a01b038216148061048a575061048a8133610bc7565b6104f75760405162461bcd60e51b815260206004820152603860248201527f4552433732313a20617070726f76652063616c6c6572206973206e6f74206f776044820152771b995c881b9bdc88185c1c1c9bdd995908199bdc88185b1b60421b60648201526084016103d0565b6105018383610cb2565b505050565b6105103382610d20565b61052c5760405162461bcd60e51b81526004016103d090611b76565b610501838383610dea565b60088054908190600061054983611c9e565b90915550506040805160a0810182523381526020808201888152828401889052606083018790526080830186905260008581526009835293909320825181546001600160a01b0319166001600160a01b03909116178155925180519293926105b79260018501920190611446565b50604082015180516105d3916002840191602090910190611446565b50606082015180516105ef916003840191602090910190611446565b506080820151805161060b916004840191602090910190611446565b509050506106193382610f78565b5050505050565b61050183838360405180602001604052806000815250610aac565b600960205260009081526040902080546001820180546001600160a01b03909216929161066790611c63565b80601f016020809104026020016040519081016040528092919081815260200182805461069390611c63565b80156106e05780601f106106b5576101008083540402835291602001916106e0565b820191906000526020600020905b8154815290600101906020018083116106c357829003601f168201915b5050505050908060020180546106f590611c63565b80601f016020809104026020016040519081016040528092919081815260200182805461072190611c63565b801561076e5780601f106107435761010080835404028352916020019161076e565b820191906000526020600020905b81548152906001019060200180831161075157829003601f168201915b50505050509080600301805461078390611c63565b80601f01602080910402602001604051908101604052809291908181526020018280546107af90611c63565b80156107fc5780601f106107d1576101008083540402835291602001916107fc565b820191906000526020600020905b8154815290600101906020018083116107df57829003601f168201915b50505050509080600401805461081190611c63565b80601f016020809104026020016040519081016040528092919081815260200182805461083d90611c63565b801561088a5780601f1061085f5761010080835404028352916020019161088a565b820191906000526020600020905b81548152906001019060200180831161086d57829003601f168201915b5050505050905085565b6000818152600260205260408120546001600160a01b0316806102d05760405162461bcd60e51b815260206004820152602960248201527f4552433732313a206f776e657220717565727920666f72206e6f6e657869737460448201526832b73a103a37b5b2b760b91b60648201526084016103d0565b60006001600160a01b0382166109765760405162461bcd60e51b815260206004820152602a60248201527f4552433732313a2062616c616e636520717565727920666f7220746865207a65604482015269726f206164647265737360b01b60648201526084016103d0565b506001600160a01b031660009081526003602052604090205490565b3361099b6109cd565b6001600160a01b0316146109c15760405162461bcd60e51b81526004016103d090611b41565b6109cb6000610f96565b565b6007546001600160a01b031690565b6060600180546102e590611c63565b6001600160a01b038216331415610a405760405162461bcd60e51b815260206004820152601960248201527822a9219b99189d1030b8383937bb32903a379031b0b63632b960391b60448201526064016103d0565b3360008181526005602090815260408083206001600160a01b03871680855290835292819020805460ff191686151590811790915590519081529192917f17307eab39ab6107e8899845ad3d59bd9653f200f220920489ca2b5937696c31910160405180910390a35050565b610ab63383610d20565b610ad25760405162461bcd60e51b81526004016103d090611b76565b610ade84848484610fe8565b50505050565b6000818152600960209081526040808320905160609392610b1592600a92600b92600c9260040191600d91016118bb565b60408051601f19818403018152918152600085815260096020529081209192509060018101906002810190600301610b4c8561101b565b604051602001610b5f94939291906118f6565b60408051601f1981840301815282820190915260058252643637b3b0b760d91b60208301529150610b909082611180565b6000610b9b8261101b565b905080604051602001610bae91906119c2565b6040516020818303038152906040529350505050919050565b6001600160a01b03918216600090815260056020908152604080832093909416825291909152205460ff1690565b33610bfe6109cd565b6001600160a01b031614610c245760405162461bcd60e51b81526004016103d090611b41565b6001600160a01b038116610c895760405162461bcd60e51b815260206004820152602660248201527f4f776e61626c653a206e6577206f776e657220697320746865207a65726f206160448201526564647265737360d01b60648201526084016103d0565b610c9281610f96565b50565b6000908152600260205260409020546001600160a01b0316151590565b600081815260046020526040902080546001600160a01b0319166001600160a01b0384169081179091558190610ce782610894565b6001600160a01b03167f8c5be1e5ebec7d5bd14f71427d1e84f3dd0314c0f7b2291e5b200ac8c7c3b92560405160405180910390a45050565b6000610d2b82610c95565b610d8c5760405162461bcd60e51b815260206004820152602c60248201527f4552433732313a206f70657261746f7220717565727920666f72206e6f6e657860448201526b34b9ba32b73a103a37b5b2b760a11b60648201526084016103d0565b6000610d9783610894565b9050806001600160a01b0316846001600160a01b03161480610dd25750836001600160a01b0316610dc784610368565b6001600160a01b0316145b80610de25750610de28185610bc7565b949350505050565b826001600160a01b0316610dfd82610894565b6001600160a01b031614610e655760405162461bcd60e51b815260206004820152602960248201527f4552433732313a207472616e73666572206f6620746f6b656e2074686174206960448201526839903737ba1037bbb760b91b60648201526084016103d0565b6001600160a01b038216610ec75760405162461bcd60e51b8152602060048201526024808201527f4552433732313a207472616e7366657220746f20746865207a65726f206164646044820152637265737360e01b60648201526084016103d0565b610ed2600082610cb2565b6001600160a01b0383166000908152600360205260408120805460019290610efb908490611c20565b90915550506001600160a01b0382166000908152600360205260408120805460019290610f29908490611bc7565b909155505060008181526002602052604080822080546001600160a01b0319166001600160a01b038681169182179092559151849391871691600080516020611d3c83398151915291a4505050565b610f928282604051806020016040528060008152506111c5565b5050565b600780546001600160a01b038381166001600160a01b0319831681179093556040519116919082907f8be0079c531659141344cd1fd0a4f28419497f9722a3daafe3b4186f6b6457e090600090a35050565b610ff3848484610dea565b610fff848484846111f8565b610ade5760405162461bcd60e51b81526004016103d090611aef565b80516060908061103b575050604080516020810190915260008152919050565b6000600361104a836002611bc7565b6110549190611bdf565b61105f906004611c01565b9050600061106e826020611bc7565b6001600160401b0381111561108557611085611ccf565b6040519080825280601f01601f1916602001820160405280156110af576020820181803683370190505b5090506000604051806060016040528060408152602001611cfc604091399050600181016020830160005b8681101561113b576003818a01810151603f601282901c8116860151600c83901c8216870151600684901c831688015192909316870151600891821b60ff94851601821b92841692909201901b91160160e01b8352600490920191016110da565b506003860660018114611155576002811461116657611172565b613d3d60f01b600119830152611172565b603d60f81b6000198301525b505050918152949350505050565b610f928282604051602401611196929190611ac1565b60408051601f198184030181529190526020810180516001600160e01b0316634b5c427760e01b179052611305565b6111cf8383611326565b6111dc60008484846111f8565b6105015760405162461bcd60e51b81526004016103d090611aef565b60006001600160a01b0384163b156112fa57604051630a85bd0160e11b81526001600160a01b0385169063150b7a029061123c903390899088908890600401611a07565b602060405180830381600087803b15801561125657600080fd5b505af1925050508015611286575060408051601f3d908101601f191682019092526112839181019061171f565b60015b6112e0573d8080156112b4576040519150601f19603f3d011682016040523d82523d6000602084013e6112b9565b606091505b5080516112d85760405162461bcd60e51b81526004016103d090611aef565b805181602001fd5b6001600160e01b031916630a85bd0160e11b149050610de2565b506001949350505050565b80516a636f6e736f6c652e6c6f67602083016000808483855afa5050505050565b6001600160a01b03821661137c5760405162461bcd60e51b815260206004820181905260248201527f4552433732313a206d696e7420746f20746865207a65726f206164647265737360448201526064016103d0565b61138581610c95565b156113d15760405162461bcd60e51b815260206004820152601c60248201527b115490cdcc8c4e881d1bdad95b88185b1c9958591e481b5a5b9d195960221b60448201526064016103d0565b6001600160a01b03821660009081526003602052604081208054600192906113fa908490611bc7565b909155505060008181526002602052604080822080546001600160a01b0319166001600160a01b0386169081179091559051839290600080516020611d3c833981519152908290a45050565b82805461145290611c63565b90600052602060002090601f01602090048101928261147457600085556114ba565b82601f1061148d57805160ff19168380011785556114ba565b828001600101855582156114ba579182015b828111156114ba57825182559160200191906001019061149f565b506114c69291506114ca565b5090565b5b808211156114c657600081556001016114cb565b60006001600160401b03808411156114f9576114f9611ccf565b604051601f8501601f19908116603f0116810190828211818310171561152157611521611ccf565b8160405280935085815286868601111561153a57600080fd5b858560208301376000602087830101525050509392505050565b80356001600160a01b038116811461156b57600080fd5b919050565b600082601f83011261158157600080fd5b611590838335602085016114df565b9392505050565b6000602082840312156115a957600080fd5b61159082611554565b600080604083850312156115c557600080fd5b6115ce83611554565b91506115dc60208401611554565b90509250929050565b6000806000606084860312156115fa57600080fd5b61160384611554565b925061161160208501611554565b9150604084013590509250925092565b6000806000806080858703121561163757600080fd5b61164085611554565b935061164e60208601611554565b92506040850135915060608501356001600160401b0381111561167057600080fd5b8501601f8101871361168157600080fd5b611690878235602084016114df565b91505092959194509250565b600080604083850312156116af57600080fd5b6116b883611554565b9150602083013580151581146116cd57600080fd5b809150509250929050565b600080604083850312156116eb57600080fd5b6116f483611554565b946020939093013593505050565b60006020828403121561171457600080fd5b813561159081611ce5565b60006020828403121561173157600080fd5b815161159081611ce5565b6000806000806080858703121561175257600080fd5b84356001600160401b038082111561176957600080fd5b61177588838901611570565b9550602087013591508082111561178b57600080fd5b61179788838901611570565b945060408701359150808211156117ad57600080fd5b6117b988838901611570565b935060608701359150808211156117cf57600080fd5b5061169087828801611570565b6000602082840312156117ee57600080fd5b5035919050565b6000815180845261180d816020860160208601611c37565b601f01601f19169290920160200192915050565b8054600090600181811c908083168061183b57607f831692505b602080841082141561185d57634e487b7160e01b600052602260045260246000fd5b8180156118715760018114611882576118af565b60ff198616895284890196506118af565b60008881526020902060005b868110156118a75781548b82015290850190830161188e565b505084890196505b50505050505092915050565b60006118eb6118e56118df6118d96118d3868c611821565b8a611821565b88611821565b86611821565b84611821565b979650505050505050565b693d913730b6b2911d101160b11b81526000611915600a830187611821565b7a0111610113232b9b1b934b83a34b7b7111d101120b93a10313c9d1602d1b8152611943601b820187611821565b9050641e3139179f60d91b815261195d6005820186611821565b90507f222c2022696d616765223a2022646174613a696d6167652f7376672b786d6c3b81526618985cd94d8d0b60ca1b602082015283516119a5816027840160208801611c37565b61227d60f01b602792909101918201526029019695505050505050565b7f646174613a6170706c69636174696f6e2f6a736f6e3b6261736536342c0000008152600082516119fa81601d850160208701611c37565b91909101601d0192915050565b6001600160a01b0385811682528416602082015260408101839052608060608201819052600090611a3a908301846117f5565b9695505050505050565b6001600160a01b038616815260a060208201819052600090611a68908301876117f5565b8281036040840152611a7a81876117f5565b90508281036060840152611a8e81866117f5565b90508281036080840152611aa281856117f5565b98975050505050505050565b60208152600061159060208301846117f5565b604081526000611ad460408301856117f5565b8281036020840152611ae681856117f5565b95945050505050565b60208082526032908201527f4552433732313a207472616e7366657220746f206e6f6e20455243373231526560408201527131b2b4bb32b91034b6b83632b6b2b73a32b960711b606082015260800190565b6020808252818101527f4f776e61626c653a2063616c6c6572206973206e6f7420746865206f776e6572604082015260600190565b60208082526031908201527f4552433732313a207472616e736665722063616c6c6572206973206e6f74206f6040820152701ddb995c881b9bdc88185c1c1c9bdd9959607a1b606082015260800190565b60008219821115611bda57611bda611cb9565b500190565b600082611bfc57634e487b7160e01b600052601260045260246000fd5b500490565b6000816000190483118215151615611c1b57611c1b611cb9565b500290565b600082821015611c3257611c32611cb9565b500390565b60005b83811015611c52578181015183820152602001611c3a565b83811115610ade5750506000910152565b600181811c90821680611c7757607f821691505b60208210811415611c9857634e487b7160e01b600052602260045260246000fd5b50919050565b6000600019821415611cb257611cb2611cb9565b5060010190565b634e487b7160e01b600052601160045260246000fd5b634e487b7160e01b600052604160045260246000fd5b6001600160e01b031981168114610c9257600080fdfe4142434445464748494a4b4c4d4e4f505152535455565758595a6162636465666768696a6b6c6d6e6f707172737475767778797a303132333435363738392b2fddf252ad1be2c89b69c2b068fc378daa952ba7f163c4a11628f55a4df523b3efa26469706673582212202742198a27ee8efa951cc7b642cc245de47f798d73174ef6f133f955fa17970264736f6c634300080600333c726563742077696474683d223130302522206865696768743d2231303025222066696c6c3d22776869746522202f3e3c73766720786d6c6e733d22687474703a2f2f7777772e77332e6f72672f323030302f73766722207072657365727665417370656374526174696f3d22784d696e594d696e206d656574222076696577426f783d223020302033353020333530223e3c7374796c653e2e74657874207b2066696c6c3a20626c61636b3b20666f6e742d66616d696c793a2073657269663b20666f6e742d73697a653a20313470783b207d3c2f7374796c653e",
  "linkReferences": {},
  "deployedLinkReferences": {}
}