{
  "_format": "hh-sol-artifact-1",
  "contractName": "SVGTemplate",
  "sourceName": "contracts/SVGTemplate.sol",
  "abi": [
    {
      "inputs": [
        {
          "internalType": "string",
          "name": "_name",
          "type": "string"
        },
        {
          "internalType": "string",
          "name": "_symbol",
          "type": "string"
        }
      ],
      "stateMutability": "nonpayable",
      "type": "constructor"
    },
    {
      "anonymous": false,
      "inputs": [
        {
          "indexed": true,
          "internalType": "address",
          "name": "owner",
          "type": "address"
        },
        {
          "indexed": true,
          "internalType": "address",
          "name": "approved",
          "type": "address"
        },
        {
          "indexed": true,
          "internalType": "uint256",
          "name": "tokenId",
          "type": "uint256"
        }
      ],
      "name": "Approval",
      "type": "event"
    },
    {
      "anonymous": false,
      "inputs": [
        {
          "indexed": true,
          "internalType": "address",
          "name": "owner",
          "type": "address"
        },
        {
          "indexed": true,
          "internalType": "address",
          "name": "operator",
          "type": "address"
        },
        {
          "indexed": false,
          "internalType": "bool",
          "name": "approved",
          "type": "bool"
        }
      ],
      "name": "ApprovalForAll",
      "type": "event"
    },
    {
      "anonymous": false,
      "inputs": [
        {
          "indexed": true,
          "internalType": "address",
          "name": "previousOwner",
          "type": "address"
        },
        {
          "indexed": true,
          "internalType": "address",
          "name": "newOwner",
          "type": "address"
        }
      ],
      "name": "OwnershipTransferred",
      "type": "event"
    },
    {
      "anonymous": false,
      "inputs": [
        {
          "indexed": true,
          "internalType": "address",
          "name": "from",
          "type": "address"
        },
        {
          "indexed": true,
          "internalType": "address",
          "name": "to",
          "type": "address"
        },
        {
          "indexed": true,
          "internalType": "uint256",
          "name": "tokenId",
          "type": "uint256"
        }
      ],
      "name": "Transfer",
      "type": "event"
    },
    {
      "inputs": [
        {
          "internalType": "address",
          "name": "to",
          "type": "address"
        },
        {
          "internalType": "uint256",
          "name": "tokenId",
          "type": "uint256"
        }
      ],
      "name": "approve",
      "outputs": [],
      "stateMutability": "nonpayable",
      "type": "function"
    },
    {
      "inputs": [
        {
          "internalType": "address",
          "name": "owner",
          "type": "address"
        }
      ],
      "name": "balanceOf",
      "outputs": [
        {
          "internalType": "uint256",
          "name": "",
          "type": "uint256"
        }
      ],
      "stateMutability": "view",
      "type": "function"
    },
    {
      "inputs": [
        {
          "internalType": "uint256",
          "name": "tokenId",
          "type": "uint256"
        }
      ],
      "name": "getApproved",
      "outputs": [
        {
          "internalType": "address",
          "name": "",
          "type": "address"
        }
      ],
      "stateMutability": "view",
      "type": "function"
    },
    {
      "inputs": [
        {
          "internalType": "address",
          "name": "owner",
          "type": "address"
        },
        {
          "internalType": "address",
          "name": "operator",
          "type": "address"
        }
      ],
      "name": "isApprovedForAll",
      "outputs": [
        {
          "internalType": "bool",
          "name": "",
          "type": "bool"
        }
      ],
      "stateMutability": "view",
      "type": "function"
    },
    {
      "inputs": [
        {
          "internalType": "string",
          "name": "_name",
          "type": "string"
        },
        {
          "internalType": "string",
          "name": "_artistName",
          "type": "string"
        },
        {
          "internalType": "string",
          "name": "_svgString",
          "type": "string"
        }
      ],
      "name": "mintWithData",
      "outputs": [],
      "stateMutability": "nonpayable",
      "type": "function"
    },
    {
      "inputs": [],
      "name": "name",
      "outputs": [
        {
          "internalType": "string",
          "name": "",
          "type": "string"
        }
      ],
      "stateMutability": "view",
      "type": "function"
    },
    {
      "inputs": [],
      "name": "owner",
      "outputs": [
        {
          "internalType": "address",
          "name": "",
          "type": "address"
        }
      ],
      "stateMutability": "view",
      "type": "function"
    },
    {
      "inputs": [
        {
          "internalType": "uint256",
          "name": "tokenId",
          "type": "uint256"
        }
      ],
      "name": "ownerOf",
      "outputs": [
        {
          "internalType": "address",
          "name": "",
          "type": "address"
        }
      ],
      "stateMutability": "view",
      "type": "function"
    },
    {
      "inputs": [],
      "name": "renounceOwnership",
      "outputs": [],
      "stateMutability": "nonpayable",
      "type": "function"
    },
    {
      "inputs": [
        {
          "internalType": "address",
          "name": "from",
          "type": "address"
        },
        {
          "internalType": "address",
          "name": "to",
          "type": "address"
        },
        {
          "internalType": "uint256",
          "name": "tokenId",
          "type": "uint256"
        }
      ],
      "name": "safeTransferFrom",
      "outputs": [],
      "stateMutability": "nonpayable",
      "type": "function"
    },
    {
      "inputs": [
        {
          "internalType": "address",
          "name": "from",
          "type": "address"
        },
        {
          "internalType": "address",
          "name": "to",
          "type": "address"
        },
        {
          "internalType": "uint256",
          "name": "tokenId",
          "type": "uint256"
        },
        {
          "internalType": "bytes",
          "name": "_data",
          "type": "bytes"
        }
      ],
      "name": "safeTransferFrom",
      "outputs": [],
      "stateMutability": "nonpayable",
      "type": "function"
    },
    {
      "inputs": [
        {
          "internalType": "address",
          "name": "operator",
          "type": "address"
        },
        {
          "internalType": "bool",
          "name": "approved",
          "type": "bool"
        }
      ],
      "name": "setApprovalForAll",
      "outputs": [],
      "stateMutability": "nonpayable",
      "type": "function"
    },
    {
      "inputs": [
        {
          "internalType": "bytes4",
          "name": "interfaceId",
          "type": "bytes4"
        }
      ],
      "name": "supportsInterface",
      "outputs": [
        {
          "internalType": "bool",
          "name": "",
          "type": "bool"
        }
      ],
      "stateMutability": "view",
      "type": "function"
    },
    {
      "inputs": [],
      "name": "symbol",
      "outputs": [
        {
          "internalType": "string",
          "name": "",
          "type": "string"
        }
      ],
      "stateMutability": "view",
      "type": "function"
    },
    {
      "inputs": [],
      "name": "tokenCounter",
      "outputs": [
        {
          "internalType": "uint256",
          "name": "",
          "type": "uint256"
        }
      ],
      "stateMutability": "view",
      "type": "function"
    },
    {
      "inputs": [
        {
          "internalType": "uint256",
          "name": "tokenId",
          "type": "uint256"
        }
      ],
      "name": "tokenURI",
      "outputs": [
        {
          "internalType": "string",
          "name": "",
          "type": "string"
        }
      ],
      "stateMutability": "view",
      "type": "function"
    },
    {
      "inputs": [
        {
          "internalType": "address",
          "name": "from",
          "type": "address"
        },
        {
          "internalType": "address",
          "name": "to",
          "type": "address"
        },
        {
          "internalType": "uint256",
          "name": "tokenId",
          "type": "uint256"
        }
      ],
      "name": "transferFrom",
      "outputs": [],
      "stateMutability": "nonpayable",
      "type": "function"
    },
    {
      "inputs": [
        {
          "internalType": "address",
          "name": "newOwner",
          "type": "address"
        }
      ],
      "name": "transferOwnership",
      "outputs": [],
      "stateMutability": "nonpayable",
      "type": "function"
    }
  ],
  "bytecode": "0x60806040523480156200001157600080fd5b5060405162001e3a38038062001e3a833981016040819052620000349162000319565b8151829082906200004d906000906020850190620001bc565b50805162000063906001906020840190620001bc565b505050620000806200007a6200016660201b60201c565b6200016a565b600060085581516200009a906009906020850190620001bc565b506040518060a001604052806062815260200162001d5e606291398051620000cb91600b91602090910190620001bc565b506040518060800160405280604a815260200162001dc0604a91398051620000fc91600c91602090910190620001bc565b5060405180606001604052806030815260200162001e0a6030913980516200012d91600d91602090910190620001bc565b50604080518082019091526006808252651e17b9bb339f60d11b60209092019182526200015d91600e91620001bc565b505050620003d6565b3390565b600780546001600160a01b038381166001600160a01b0319831681179093556040519116919082907f8be0079c531659141344cd1fd0a4f28419497f9722a3daafe3b4186f6b6457e090600090a35050565b828054620001ca9062000383565b90600052602060002090601f016020900481019282620001ee576000855562000239565b82601f106200020957805160ff191683800117855562000239565b8280016001018555821562000239579182015b82811115620002395782518255916020019190600101906200021c565b50620002479291506200024b565b5090565b5b808211156200024757600081556001016200024c565b600082601f8301126200027457600080fd5b81516001600160401b0380821115620002915762000291620003c0565b604051601f8301601f19908116603f01168101908282118183101715620002bc57620002bc620003c0565b81604052838152602092508683858801011115620002d957600080fd5b600091505b83821015620002fd5785820183015181830184015290820190620002de565b838211156200030f5760008385830101525b9695505050505050565b600080604083850312156200032d57600080fd5b82516001600160401b03808211156200034557600080fd5b620003538683870162000262565b935060208501519150808211156200036a57600080fd5b50620003798582860162000262565b9150509250929050565b600181811c908216806200039857607f821691505b60208210811415620003ba57634e487b7160e01b600052602260045260246000fd5b50919050565b634e487b7160e01b600052604160045260246000fd5b61197880620003e66000396000f3fe608060405234801561001057600080fd5b50600436106100e65760003560e01c806301ffc9a7146100eb57806306fdde0314610113578063081812fc14610128578063095ea7b31461015357806323b872dd1461016857806342842e0e1461017b5780635a5cfd111461018e5780636352211e146101a157806370a08231146101b4578063715018a6146101d55780638da5cb5b146101dd57806395d89b41146101e5578063a22cb465146101ed578063b88d4fde14610200578063c87b56dd14610213578063d082e38114610226578063e985e9c51461022f578063f2fde38b14610242575b600080fd5b6100fe6100f93660046113b9565b610255565b60405190151581526020015b60405180910390f35b61011b6102a7565b60405161010a91906116c3565b61013b61013636600461147a565b610339565b6040516001600160a01b03909116815260200161010a565b61016661016136600461138f565b6103c6565b005b61016661017636600461129c565b6104d7565b61016661018936600461129c565b610508565b61016661019c3660046113f3565b610523565b61013b6101af36600461147a565b6105e8565b6101c76101c236600461124e565b61065f565b60405190815260200161010a565b6101666106e6565b61013b610721565b61011b610730565b6101666101fb366004611353565b61073f565b61016661020e3660046112d8565b610800565b61011b61022136600461147a565b610832565b6101c760085481565b6100fe61023d366004611269565b6108e4565b61016661025036600461124e565b610912565b60006001600160e01b031982166380ac58cd60e01b148061028657506001600160e01b03198216635b5e139f60e01b145b806102a157506301ffc9a760e01b6001600160e01b03198316145b92915050565b6060600080546102b69061184a565b80601f01602080910402602001604051908101604052809291908181526020018280546102e29061184a565b801561032f5780601f106103045761010080835404028352916020019161032f565b820191906000526020600020905b81548152906001019060200180831161031257829003601f168201915b5050505050905090565b6000610344826109b2565b6103aa5760405162461bcd60e51b815260206004820152602c60248201527f4552433732313a20617070726f76656420717565727920666f72206e6f6e657860448201526b34b9ba32b73a103a37b5b2b760a11b60648201526084015b60405180910390fd5b506000908152600460205260409020546001600160a01b031690565b60006103d1826105e8565b9050806001600160a01b0316836001600160a01b0316141561043f5760405162461bcd60e51b815260206004820152602160248201527f4552433732313a20617070726f76616c20746f2063757272656e74206f776e656044820152603960f91b60648201526084016103a1565b336001600160a01b038216148061045b575061045b81336108e4565b6104c85760405162461bcd60e51b815260206004820152603860248201527f4552433732313a20617070726f76652063616c6c6572206973206e6f74206f776044820152771b995c881b9bdc88185c1c1c9bdd995908199bdc88185b1b60421b60648201526084016103a1565b6104d283836109cf565b505050565b6104e13382610a3d565b6104fd5760405162461bcd60e51b81526004016103a19061175d565b6104d2838383610b07565b6104d283838360405180602001604052806000815250610800565b60088054908190600061053583611885565b9091555050604080516080810182523381526020808201878152828401879052606083018690526000858152600a835293909320825181546001600160a01b0319166001600160a01b039091161781559251805192939261059c92600185019201906110fd565b50604082015180516105b89160028401916020909101906110fd565b50606082015180516105d49160038401916020909101906110fd565b509050506105e23382610c95565b50505050565b6000818152600260205260408120546001600160a01b0316806102a15760405162461bcd60e51b815260206004820152602960248201527f4552433732313a206f776e657220717565727920666f72206e6f6e657869737460448201526832b73a103a37b5b2b760b91b60648201526084016103a1565b60006001600160a01b0382166106ca5760405162461bcd60e51b815260206004820152602a60248201527f4552433732313a2062616c616e636520717565727920666f7220746865207a65604482015269726f206164647265737360b01b60648201526084016103a1565b506001600160a01b031660009081526003602052604090205490565b336106ef610721565b6001600160a01b0316146107155760405162461bcd60e51b81526004016103a190611728565b61071f6000610cb3565b565b6007546001600160a01b031690565b6060600180546102b69061184a565b6001600160a01b0382163314156107945760405162461bcd60e51b815260206004820152601960248201527822a9219b99189d1030b8383937bb32903a379031b0b63632b960391b60448201526064016103a1565b3360008181526005602090815260408083206001600160a01b03871680855290835292819020805460ff191686151590811790915590519081529192917f17307eab39ab6107e8899845ad3d59bd9653f200f220920489ca2b5937696c31910160405180910390a35050565b61080a3383610a3d565b6108265760405162461bcd60e51b81526004016103a19061175d565b6105e284848484610d05565b6000818152600a6020908152604080832090516060939261086392600b92600c92600d9260030191600e9101611559565b60408051601f198184030181529181526000858152600a602052908120919250906108b99060010161089484610d38565b6040516020016108a5929190611594565b604051602081830303815290604052610d38565b9050806040516020016108cc9190611641565b60408051601f19818403018152919052949350505050565b6001600160a01b03918216600090815260056020908152604080832093909416825291909152205460ff1690565b3361091b610721565b6001600160a01b0316146109415760405162461bcd60e51b81526004016103a190611728565b6001600160a01b0381166109a65760405162461bcd60e51b815260206004820152602660248201527f4f776e61626c653a206e6577206f776e657220697320746865207a65726f206160448201526564647265737360d01b60648201526084016103a1565b6109af81610cb3565b50565b6000908152600260205260409020546001600160a01b0316151590565b600081815260046020526040902080546001600160a01b0319166001600160a01b0384169081179091558190610a04826105e8565b6001600160a01b03167f8c5be1e5ebec7d5bd14f71427d1e84f3dd0314c0f7b2291e5b200ac8c7c3b92560405160405180910390a45050565b6000610a48826109b2565b610aa95760405162461bcd60e51b815260206004820152602c60248201527f4552433732313a206f70657261746f7220717565727920666f72206e6f6e657860448201526b34b9ba32b73a103a37b5b2b760a11b60648201526084016103a1565b6000610ab4836105e8565b9050806001600160a01b0316846001600160a01b03161480610aef5750836001600160a01b0316610ae484610339565b6001600160a01b0316145b80610aff5750610aff81856108e4565b949350505050565b826001600160a01b0316610b1a826105e8565b6001600160a01b031614610b825760405162461bcd60e51b815260206004820152602960248201527f4552433732313a207472616e73666572206f6620746f6b656e2074686174206960448201526839903737ba1037bbb760b91b60648201526084016103a1565b6001600160a01b038216610be45760405162461bcd60e51b8152602060048201526024808201527f4552433732313a207472616e7366657220746f20746865207a65726f206164646044820152637265737360e01b60648201526084016103a1565b610bef6000826109cf565b6001600160a01b0383166000908152600360205260408120805460019290610c18908490611807565b90915550506001600160a01b0382166000908152600360205260408120805460019290610c469084906117ae565b909155505060008181526002602052604080822080546001600160a01b0319166001600160a01b03868116918217909255915184939187169160008051602061192383398151915291a4505050565b610caf828260405180602001604052806000815250610e9d565b5050565b600780546001600160a01b038381166001600160a01b0319831681179093556040519116919082907f8be0079c531659141344cd1fd0a4f28419497f9722a3daafe3b4186f6b6457e090600090a35050565b610d10848484610b07565b610d1c84848484610ed0565b6105e25760405162461bcd60e51b81526004016103a1906116d6565b805160609080610d58575050604080516020810190915260008152919050565b60006003610d678360026117ae565b610d7191906117c6565b610d7c9060046117e8565b90506000610d8b8260206117ae565b6001600160401b03811115610da257610da26118b6565b6040519080825280601f01601f191660200182016040528015610dcc576020820181803683370190505b50905060006040518060600160405280604081526020016118e3604091399050600181016020830160005b86811015610e58576003818a01810151603f601282901c8116860151600c83901c8216870151600684901c831688015192909316870151600891821b60ff94851601821b92841692909201901b91160160e01b835260049092019101610df7565b506003860660018114610e725760028114610e8357610e8f565b613d3d60f01b600119830152610e8f565b603d60f81b6000198301525b505050918152949350505050565b610ea78383610fdd565b610eb46000848484610ed0565b6104d25760405162461bcd60e51b81526004016103a1906116d6565b60006001600160a01b0384163b15610fd257604051630a85bd0160e11b81526001600160a01b0385169063150b7a0290610f14903390899088908890600401611686565b602060405180830381600087803b158015610f2e57600080fd5b505af1925050508015610f5e575060408051601f3d908101601f19168201909252610f5b918101906113d6565b60015b610fb8573d808015610f8c576040519150601f19603f3d011682016040523d82523d6000602084013e610f91565b606091505b508051610fb05760405162461bcd60e51b81526004016103a1906116d6565b805181602001fd5b6001600160e01b031916630a85bd0160e11b149050610aff565b506001949350505050565b6001600160a01b0382166110335760405162461bcd60e51b815260206004820181905260248201527f4552433732313a206d696e7420746f20746865207a65726f206164647265737360448201526064016103a1565b61103c816109b2565b156110885760405162461bcd60e51b815260206004820152601c60248201527b115490cdcc8c4e881d1bdad95b88185b1c9958591e481b5a5b9d195960221b60448201526064016103a1565b6001600160a01b03821660009081526003602052604081208054600192906110b19084906117ae565b909155505060008181526002602052604080822080546001600160a01b0319166001600160a01b0386169081179091559051839290600080516020611923833981519152908290a45050565b8280546111099061184a565b90600052602060002090601f01602090048101928261112b5760008555611171565b82601f1061114457805160ff1916838001178555611171565b82800160010185558215611171579182015b82811115611171578251825591602001919060010190611156565b5061117d929150611181565b5090565b5b8082111561117d5760008155600101611182565b60006001600160401b03808411156111b0576111b06118b6565b604051601f8501601f19908116603f011681019082821181831017156111d8576111d86118b6565b816040528093508581528686860111156111f157600080fd5b858560208301376000602087830101525050509392505050565b80356001600160a01b038116811461122257600080fd5b919050565b600082601f83011261123857600080fd5b61124783833560208501611196565b9392505050565b60006020828403121561126057600080fd5b6112478261120b565b6000806040838503121561127c57600080fd5b6112858361120b565b91506112936020840161120b565b90509250929050565b6000806000606084860312156112b157600080fd5b6112ba8461120b565b92506112c86020850161120b565b9150604084013590509250925092565b600080600080608085870312156112ee57600080fd5b6112f78561120b565b93506113056020860161120b565b92506040850135915060608501356001600160401b0381111561132757600080fd5b8501601f8101871361133857600080fd5b61134787823560208401611196565b91505092959194509250565b6000806040838503121561136657600080fd5b61136f8361120b565b91506020830135801515811461138457600080fd5b809150509250929050565b600080604083850312156113a257600080fd5b6113ab8361120b565b946020939093013593505050565b6000602082840312156113cb57600080fd5b8135611247816118cc565b6000602082840312156113e857600080fd5b8151611247816118cc565b60008060006060848603121561140857600080fd5b83356001600160401b038082111561141f57600080fd5b61142b87838801611227565b9450602086013591508082111561144157600080fd5b61144d87838801611227565b9350604086013591508082111561146357600080fd5b5061147086828701611227565b9150509250925092565b60006020828403121561148c57600080fd5b5035919050565b600081518084526114ab81602086016020860161181e565b601f01601f19169290920160200192915050565b8054600090600181811c90808316806114d957607f831692505b60208084108214156114fb57634e487b7160e01b600052602260045260246000fd5b81801561150f57600181146115205761154d565b60ff1986168952848901965061154d565b60008881526020902060005b868110156115455781548b82015290850190830161152c565b505084890196505b50505050505092915050565b600061158961158361157d611577611571868c6114bf565b8a6114bf565b886114bf565b866114bf565b846114bf565b979650505050505050565b693d913730b6b2911d101160b11b815260006115b3600a8301856114bf565b7f222c20226465736372697074696f6e223a2022616464206d6f7265206865726581527f206c6174657221222c2022696d616765223a2022646174613a696d6167652f7360208201526d1d99cade1b5b0ed8985cd94d8d0b60921b6040820152835161162681604e84016020880161181e565b61227d60f01b604e9290910191820152605001949350505050565b7f646174613a6170706c69636174696f6e2f6a736f6e3b6261736536342c00000081526000825161167981601d85016020870161181e565b91909101601d0192915050565b6001600160a01b03858116825284166020820152604081018390526080606082018190526000906116b990830184611493565b9695505050505050565b6020815260006112476020830184611493565b60208082526032908201527f4552433732313a207472616e7366657220746f206e6f6e20455243373231526560408201527131b2b4bb32b91034b6b83632b6b2b73a32b960711b606082015260800190565b6020808252818101527f4f776e61626c653a2063616c6c6572206973206e6f7420746865206f776e6572604082015260600190565b60208082526031908201527f4552433732313a207472616e736665722063616c6c6572206973206e6f74206f6040820152701ddb995c881b9bdc88185c1c1c9bdd9959607a1b606082015260800190565b600082198211156117c1576117c16118a0565b500190565b6000826117e357634e487b7160e01b600052601260045260246000fd5b500490565b6000816000190483118215151615611802576118026118a0565b500290565b600082821015611819576118196118a0565b500390565b60005b83811015611839578181015183820152602001611821565b838111156105e25750506000910152565b600181811c9082168061185e57607f821691505b6020821081141561187f57634e487b7160e01b600052602260045260246000fd5b50919050565b6000600019821415611899576118996118a0565b5060010190565b634e487b7160e01b600052601160045260246000fd5b634e487b7160e01b600052604160045260246000fd5b6001600160e01b0319811681146109af57600080fdfe4142434445464748494a4b4c4d4e4f505152535455565758595a6162636465666768696a6b6c6d6e6f707172737475767778797a303132333435363738392b2fddf252ad1be2c89b69c2b068fc378daa952ba7f163c4a11628f55a4df523b3efa264697066735822122078569fa71a6ebce3e7df4074ee08e246e0f855a6e9ac87d6337830f604800c1964736f6c634300080600333c73766720786d6c6e733d22687474703a2f2f7777772e77332e6f72672f323030302f73766722207072657365727665417370656374526174696f3d22784d696e594d696e206d656574222076696577426f783d223020302033353020333530223e3c7374796c653e2e74657874207b2066696c6c3a2077686974653b20666f6e742d66616d696c793a2073657269663b20666f6e742d73697a653a20313470783b207d3c2f7374796c653e3c726563742077696474683d223130302522206865696768743d2231303025222066696c6c3d22677265656e22202f3e",
  "linkReferences": {},
  "deployedLinkReferences": {}
}