{
  "_format": "hh-sol-artifact-1",
  "contractName": "SVGMinter",
  "sourceName": "contracts/SVGMinter.sol",
  "abi": [
    {
      "inputs": [
        {
          "internalType": "string",
          "name": "_name",
          "type": "string"
        },
        {
          "internalType": "string",
          "name": "_symbol",
          "type": "string"
        }
      ],
      "stateMutability": "nonpayable",
      "type": "constructor"
    },
    {
      "anonymous": false,
      "inputs": [
        {
          "indexed": true,
          "internalType": "address",
          "name": "owner",
          "type": "address"
        },
        {
          "indexed": true,
          "internalType": "address",
          "name": "approved",
          "type": "address"
        },
        {
          "indexed": true,
          "internalType": "uint256",
          "name": "tokenId",
          "type": "uint256"
        }
      ],
      "name": "Approval",
      "type": "event"
    },
    {
      "anonymous": false,
      "inputs": [
        {
          "indexed": true,
          "internalType": "address",
          "name": "owner",
          "type": "address"
        },
        {
          "indexed": true,
          "internalType": "address",
          "name": "operator",
          "type": "address"
        },
        {
          "indexed": false,
          "internalType": "bool",
          "name": "approved",
          "type": "bool"
        }
      ],
      "name": "ApprovalForAll",
      "type": "event"
    },
    {
      "anonymous": false,
      "inputs": [
        {
          "indexed": true,
          "internalType": "address",
          "name": "previousOwner",
          "type": "address"
        },
        {
          "indexed": true,
          "internalType": "address",
          "name": "newOwner",
          "type": "address"
        }
      ],
      "name": "OwnershipTransferred",
      "type": "event"
    },
    {
      "anonymous": false,
      "inputs": [
        {
          "indexed": true,
          "internalType": "address",
          "name": "from",
          "type": "address"
        },
        {
          "indexed": true,
          "internalType": "address",
          "name": "to",
          "type": "address"
        },
        {
          "indexed": true,
          "internalType": "uint256",
          "name": "tokenId",
          "type": "uint256"
        }
      ],
      "name": "Transfer",
      "type": "event"
    },
    {
      "inputs": [
        {
          "internalType": "address",
          "name": "to",
          "type": "address"
        },
        {
          "internalType": "uint256",
          "name": "tokenId",
          "type": "uint256"
        }
      ],
      "name": "approve",
      "outputs": [],
      "stateMutability": "nonpayable",
      "type": "function"
    },
    {
      "inputs": [
        {
          "internalType": "address",
          "name": "owner",
          "type": "address"
        }
      ],
      "name": "balanceOf",
      "outputs": [
        {
          "internalType": "uint256",
          "name": "",
          "type": "uint256"
        }
      ],
      "stateMutability": "view",
      "type": "function"
    },
    {
      "inputs": [
        {
          "internalType": "uint256",
          "name": "tokenId",
          "type": "uint256"
        }
      ],
      "name": "getApproved",
      "outputs": [
        {
          "internalType": "address",
          "name": "",
          "type": "address"
        }
      ],
      "stateMutability": "view",
      "type": "function"
    },
    {
      "inputs": [
        {
          "internalType": "address",
          "name": "owner",
          "type": "address"
        },
        {
          "internalType": "address",
          "name": "operator",
          "type": "address"
        }
      ],
      "name": "isApprovedForAll",
      "outputs": [
        {
          "internalType": "bool",
          "name": "",
          "type": "bool"
        }
      ],
      "stateMutability": "view",
      "type": "function"
    },
    {
      "inputs": [
        {
          "internalType": "string",
          "name": "_name",
          "type": "string"
        },
        {
          "internalType": "string",
          "name": "_artistName",
          "type": "string"
        },
        {
          "internalType": "string",
          "name": "_description",
          "type": "string"
        },
        {
          "internalType": "string",
          "name": "_svgString",
          "type": "string"
        }
      ],
      "name": "mintWithData",
      "outputs": [],
      "stateMutability": "nonpayable",
      "type": "function"
    },
    {
      "inputs": [],
      "name": "name",
      "outputs": [
        {
          "internalType": "string",
          "name": "",
          "type": "string"
        }
      ],
      "stateMutability": "view",
      "type": "function"
    },
    {
      "inputs": [],
      "name": "owner",
      "outputs": [
        {
          "internalType": "address",
          "name": "",
          "type": "address"
        }
      ],
      "stateMutability": "view",
      "type": "function"
    },
    {
      "inputs": [
        {
          "internalType": "uint256",
          "name": "tokenId",
          "type": "uint256"
        }
      ],
      "name": "ownerOf",
      "outputs": [
        {
          "internalType": "address",
          "name": "",
          "type": "address"
        }
      ],
      "stateMutability": "view",
      "type": "function"
    },
    {
      "inputs": [],
      "name": "renounceOwnership",
      "outputs": [],
      "stateMutability": "nonpayable",
      "type": "function"
    },
    {
      "inputs": [
        {
          "internalType": "address",
          "name": "from",
          "type": "address"
        },
        {
          "internalType": "address",
          "name": "to",
          "type": "address"
        },
        {
          "internalType": "uint256",
          "name": "tokenId",
          "type": "uint256"
        }
      ],
      "name": "safeTransferFrom",
      "outputs": [],
      "stateMutability": "nonpayable",
      "type": "function"
    },
    {
      "inputs": [
        {
          "internalType": "address",
          "name": "from",
          "type": "address"
        },
        {
          "internalType": "address",
          "name": "to",
          "type": "address"
        },
        {
          "internalType": "uint256",
          "name": "tokenId",
          "type": "uint256"
        },
        {
          "internalType": "bytes",
          "name": "_data",
          "type": "bytes"
        }
      ],
      "name": "safeTransferFrom",
      "outputs": [],
      "stateMutability": "nonpayable",
      "type": "function"
    },
    {
      "inputs": [
        {
          "internalType": "address",
          "name": "operator",
          "type": "address"
        },
        {
          "internalType": "bool",
          "name": "approved",
          "type": "bool"
        }
      ],
      "name": "setApprovalForAll",
      "outputs": [],
      "stateMutability": "nonpayable",
      "type": "function"
    },
    {
      "inputs": [
        {
          "internalType": "bytes4",
          "name": "interfaceId",
          "type": "bytes4"
        }
      ],
      "name": "supportsInterface",
      "outputs": [
        {
          "internalType": "bool",
          "name": "",
          "type": "bool"
        }
      ],
      "stateMutability": "view",
      "type": "function"
    },
    {
      "inputs": [],
      "name": "symbol",
      "outputs": [
        {
          "internalType": "string",
          "name": "",
          "type": "string"
        }
      ],
      "stateMutability": "view",
      "type": "function"
    },
    {
      "inputs": [],
      "name": "tokenCounter",
      "outputs": [
        {
          "internalType": "uint256",
          "name": "",
          "type": "uint256"
        }
      ],
      "stateMutability": "view",
      "type": "function"
    },
    {
      "inputs": [
        {
          "internalType": "uint256",
          "name": "",
          "type": "uint256"
        }
      ],
      "name": "tokenToDataMapping",
      "outputs": [
        {
          "internalType": "address",
          "name": "minter",
          "type": "address"
        },
        {
          "internalType": "string",
          "name": "name",
          "type": "string"
        },
        {
          "internalType": "string",
          "name": "artistName",
          "type": "string"
        },
        {
          "internalType": "string",
          "name": "description",
          "type": "string"
        },
        {
          "internalType": "string",
          "name": "svgData",
          "type": "string"
        }
      ],
      "stateMutability": "view",
      "type": "function"
    },
    {
      "inputs": [
        {
          "internalType": "uint256",
          "name": "tokenId",
          "type": "uint256"
        }
      ],
      "name": "tokenURI",
      "outputs": [
        {
          "internalType": "string",
          "name": "",
          "type": "string"
        }
      ],
      "stateMutability": "view",
      "type": "function"
    },
    {
      "inputs": [
        {
          "internalType": "address",
          "name": "from",
          "type": "address"
        },
        {
          "internalType": "address",
          "name": "to",
          "type": "address"
        },
        {
          "internalType": "uint256",
          "name": "tokenId",
          "type": "uint256"
        }
      ],
      "name": "transferFrom",
      "outputs": [],
      "stateMutability": "nonpayable",
      "type": "function"
    },
    {
      "inputs": [
        {
          "internalType": "address",
          "name": "newOwner",
          "type": "address"
        }
      ],
      "name": "transferOwnership",
      "outputs": [],
      "stateMutability": "nonpayable",
      "type": "function"
    }
  ],
  "bytecode": "0x60806040523480156200001157600080fd5b506040516200218738038062002187833981016040819052620000349162000302565b8151829082906200004d906000906020850190620001a5565b50805162000063906001906020840190620001a5565b505050620000806200007a6200014f60201b60201c565b62000153565b60006008556040805160a081019091526062808252620020db60208301398051620000b491600a91602090910190620001a5565b506040518060800160405280604a81526020016200213d604a91398051620000e591600b91602090910190620001a5565b50604051806060016040528060308152602001620020ab6030913980516200011691600c91602090910190620001a5565b50604080518082019091526006808252651e17b9bb339f60d11b60209092019182526200014691600d91620001a5565b505050620003bf565b3390565b600780546001600160a01b038381166001600160a01b0319831681179093556040519116919082907f8be0079c531659141344cd1fd0a4f28419497f9722a3daafe3b4186f6b6457e090600090a35050565b828054620001b3906200036c565b90600052602060002090601f016020900481019282620001d7576000855562000222565b82601f10620001f257805160ff191683800117855562000222565b8280016001018555821562000222579182015b828111156200022257825182559160200191906001019062000205565b506200023092915062000234565b5090565b5b8082111562000230576000815560010162000235565b600082601f8301126200025d57600080fd5b81516001600160401b03808211156200027a576200027a620003a9565b604051601f8301601f19908116603f01168101908282118183101715620002a557620002a5620003a9565b81604052838152602092508683858801011115620002c257600080fd5b600091505b83821015620002e65785820183015181830184015290820190620002c7565b83821115620002f85760008385830101525b9695505050505050565b600080604083850312156200031657600080fd5b82516001600160401b03808211156200032e57600080fd5b6200033c868387016200024b565b935060208501519150808211156200035357600080fd5b5062000362858286016200024b565b9150509250929050565b600181811c908216806200038157607f821691505b60208210811415620003a357634e487b7160e01b600052602260045260246000fd5b50919050565b634e487b7160e01b600052604160045260246000fd5b611cdc80620003cf6000396000f3fe608060405234801561001057600080fd5b50600436106100f15760003560e01c806301ffc9a7146100f657806306fdde031461011e578063081812fc14610133578063095ea7b31461015e57806323b872dd146101735780632f0e95501461018657806342842e0e14610199578063609845f3146101ac5780636352211e146101d057806370a08231146101e3578063715018a6146102045780638da5cb5b1461020c57806395d89b4114610214578063a22cb4651461021c578063b88d4fde1461022f578063c87b56dd14610242578063d082e38114610255578063e985e9c51461025e578063f2fde38b14610271575b600080fd5b61010961010436600461167c565b610284565b60405190151581526020015b60405180910390f35b6101266102d6565b6040516101159190611a27565b610146610141366004611756565b610368565b6040516001600160a01b039091168152602001610115565b61017161016c366004611652565b6103f5565b005b61017161018136600461155f565b610506565b6101716101943660046116b6565b610537565b6101716101a736600461155f565b610620565b6101bf6101ba366004611756565b61063b565b6040516101159594939291906119bd565b6101466101de366004611756565b610894565b6101f66101f1366004611511565b61090b565b604051908152602001610115565b610171610992565b6101466109cd565b6101266109dc565b61017161022a366004611616565b6109eb565b61017161023d36600461159b565b610aac565b610126610250366004611756565b610ae4565b6101f660085481565b61010961026c36600461152c565b610ba7565b61017161027f366004611511565b610bd5565b60006001600160e01b031982166380ac58cd60e01b14806102b557506001600160e01b03198216635b5e139f60e01b145b806102d057506301ffc9a760e01b6001600160e01b03198316145b92915050565b6060600080546102e590611bae565b80601f016020809104026020016040519081016040528092919081815260200182805461031190611bae565b801561035e5780601f106103335761010080835404028352916020019161035e565b820191906000526020600020905b81548152906001019060200180831161034157829003601f168201915b5050505050905090565b600061037382610c75565b6103d95760405162461bcd60e51b815260206004820152602c60248201527f4552433732313a20617070726f76656420717565727920666f72206e6f6e657860448201526b34b9ba32b73a103a37b5b2b760a11b60648201526084015b60405180910390fd5b506000908152600460205260409020546001600160a01b031690565b600061040082610894565b9050806001600160a01b0316836001600160a01b0316141561046e5760405162461bcd60e51b815260206004820152602160248201527f4552433732313a20617070726f76616c20746f2063757272656e74206f776e656044820152603960f91b60648201526084016103d0565b336001600160a01b038216148061048a575061048a8133610ba7565b6104f75760405162461bcd60e51b815260206004820152603860248201527f4552433732313a20617070726f76652063616c6c6572206973206e6f74206f776044820152771b995c881b9bdc88185c1c1c9bdd995908199bdc88185b1b60421b60648201526084016103d0565b6105018383610c92565b505050565b6105103382610d00565b61052c5760405162461bcd60e51b81526004016103d090611ac1565b610501838383610dca565b60088054908190600061054983611be9565b90915550506040805160a0810182523381526020808201888152828401889052606083018790526080830186905260008581526009835293909320825181546001600160a01b0319166001600160a01b03909116178155925180519293926105b792600185019201906113c0565b50604082015180516105d39160028401916020909101906113c0565b50606082015180516105ef9160038401916020909101906113c0565b506080820151805161060b9160048401916020909101906113c0565b509050506106193382610f58565b5050505050565b61050183838360405180602001604052806000815250610aac565b600960205260009081526040902080546001820180546001600160a01b03909216929161066790611bae565b80601f016020809104026020016040519081016040528092919081815260200182805461069390611bae565b80156106e05780601f106106b5576101008083540402835291602001916106e0565b820191906000526020600020905b8154815290600101906020018083116106c357829003601f168201915b5050505050908060020180546106f590611bae565b80601f016020809104026020016040519081016040528092919081815260200182805461072190611bae565b801561076e5780601f106107435761010080835404028352916020019161076e565b820191906000526020600020905b81548152906001019060200180831161075157829003601f168201915b50505050509080600301805461078390611bae565b80601f01602080910402602001604051908101604052809291908181526020018280546107af90611bae565b80156107fc5780601f106107d1576101008083540402835291602001916107fc565b820191906000526020600020905b8154815290600101906020018083116107df57829003601f168201915b50505050509080600401805461081190611bae565b80601f016020809104026020016040519081016040528092919081815260200182805461083d90611bae565b801561088a5780601f1061085f5761010080835404028352916020019161088a565b820191906000526020600020905b81548152906001019060200180831161086d57829003601f168201915b5050505050905085565b6000818152600260205260408120546001600160a01b0316806102d05760405162461bcd60e51b815260206004820152602960248201527f4552433732313a206f776e657220717565727920666f72206e6f6e657869737460448201526832b73a103a37b5b2b760b91b60648201526084016103d0565b60006001600160a01b0382166109765760405162461bcd60e51b815260206004820152602a60248201527f4552433732313a2062616c616e636520717565727920666f7220746865207a65604482015269726f206164647265737360b01b60648201526084016103d0565b506001600160a01b031660009081526003602052604090205490565b3361099b6109cd565b6001600160a01b0316146109c15760405162461bcd60e51b81526004016103d090611a8c565b6109cb6000610f76565b565b6007546001600160a01b031690565b6060600180546102e590611bae565b6001600160a01b038216331415610a405760405162461bcd60e51b815260206004820152601960248201527822a9219b99189d1030b8383937bb32903a379031b0b63632b960391b60448201526064016103d0565b3360008181526005602090815260408083206001600160a01b03871680855290835292819020805460ff191686151590811790915590519081529192917f17307eab39ab6107e8899845ad3d59bd9653f200f220920489ca2b5937696c31910160405180910390a35050565b610ab63383610d00565b610ad25760405162461bcd60e51b81526004016103d090611ac1565b610ade84848484610fc8565b50505050565b6000818152600960209081526040808320905160609392610b1592600a92600b92600c9260040191600d9101611835565b60408051601f19818403018152918152600085815260096020529081209192509060018101906002810190600301610b4c85610ffb565b604051602001610b5f9493929190611870565b60405160208183030381529060405290506000610b7b82610ffb565b905080604051602001610b8e919061193b565b6040516020818303038152906040529350505050919050565b6001600160a01b03918216600090815260056020908152604080832093909416825291909152205460ff1690565b33610bde6109cd565b6001600160a01b031614610c045760405162461bcd60e51b81526004016103d090611a8c565b6001600160a01b038116610c695760405162461bcd60e51b815260206004820152602660248201527f4f776e61626c653a206e6577206f776e657220697320746865207a65726f206160448201526564647265737360d01b60648201526084016103d0565b610c7281610f76565b50565b6000908152600260205260409020546001600160a01b0316151590565b600081815260046020526040902080546001600160a01b0319166001600160a01b0384169081179091558190610cc782610894565b6001600160a01b03167f8c5be1e5ebec7d5bd14f71427d1e84f3dd0314c0f7b2291e5b200ac8c7c3b92560405160405180910390a45050565b6000610d0b82610c75565b610d6c5760405162461bcd60e51b815260206004820152602c60248201527f4552433732313a206f70657261746f7220717565727920666f72206e6f6e657860448201526b34b9ba32b73a103a37b5b2b760a11b60648201526084016103d0565b6000610d7783610894565b9050806001600160a01b0316846001600160a01b03161480610db25750836001600160a01b0316610da784610368565b6001600160a01b0316145b80610dc25750610dc28185610ba7565b949350505050565b826001600160a01b0316610ddd82610894565b6001600160a01b031614610e455760405162461bcd60e51b815260206004820152602960248201527f4552433732313a207472616e73666572206f6620746f6b656e2074686174206960448201526839903737ba1037bbb760b91b60648201526084016103d0565b6001600160a01b038216610ea75760405162461bcd60e51b8152602060048201526024808201527f4552433732313a207472616e7366657220746f20746865207a65726f206164646044820152637265737360e01b60648201526084016103d0565b610eb2600082610c92565b6001600160a01b0383166000908152600360205260408120805460019290610edb908490611b6b565b90915550506001600160a01b0382166000908152600360205260408120805460019290610f09908490611b12565b909155505060008181526002602052604080822080546001600160a01b0319166001600160a01b038681169182179092559151849391871691600080516020611c8783398151915291a4505050565b610f72828260405180602001604052806000815250611160565b5050565b600780546001600160a01b038381166001600160a01b0319831681179093556040519116919082907f8be0079c531659141344cd1fd0a4f28419497f9722a3daafe3b4186f6b6457e090600090a35050565b610fd3848484610dca565b610fdf84848484611193565b610ade5760405162461bcd60e51b81526004016103d090611a3a565b80516060908061101b575050604080516020810190915260008152919050565b6000600361102a836002611b12565b6110349190611b2a565b61103f906004611b4c565b9050600061104e826020611b12565b6001600160401b0381111561106557611065611c1a565b6040519080825280601f01601f19166020018201604052801561108f576020820181803683370190505b5090506000604051806060016040528060408152602001611c47604091399050600181016020830160005b8681101561111b576003818a01810151603f601282901c8116860151600c83901c8216870151600684901c831688015192909316870151600891821b60ff94851601821b92841692909201901b91160160e01b8352600490920191016110ba565b506003860660018114611135576002811461114657611152565b613d3d60f01b600119830152611152565b603d60f81b6000198301525b505050918152949350505050565b61116a83836112a0565b6111776000848484611193565b6105015760405162461bcd60e51b81526004016103d090611a3a565b60006001600160a01b0384163b1561129557604051630a85bd0160e11b81526001600160a01b0385169063150b7a02906111d7903390899088908890600401611980565b602060405180830381600087803b1580156111f157600080fd5b505af1925050508015611221575060408051601f3d908101601f1916820190925261121e91810190611699565b60015b61127b573d80801561124f576040519150601f19603f3d011682016040523d82523d6000602084013e611254565b606091505b5080516112735760405162461bcd60e51b81526004016103d090611a3a565b805181602001fd5b6001600160e01b031916630a85bd0160e11b149050610dc2565b506001949350505050565b6001600160a01b0382166112f65760405162461bcd60e51b815260206004820181905260248201527f4552433732313a206d696e7420746f20746865207a65726f206164647265737360448201526064016103d0565b6112ff81610c75565b1561134b5760405162461bcd60e51b815260206004820152601c60248201527b115490cdcc8c4e881d1bdad95b88185b1c9958591e481b5a5b9d195960221b60448201526064016103d0565b6001600160a01b0382166000908152600360205260408120805460019290611374908490611b12565b909155505060008181526002602052604080822080546001600160a01b0319166001600160a01b0386169081179091559051839290600080516020611c87833981519152908290a45050565b8280546113cc90611bae565b90600052602060002090601f0160209004810192826113ee5760008555611434565b82601f1061140757805160ff1916838001178555611434565b82800160010185558215611434579182015b82811115611434578251825591602001919060010190611419565b50611440929150611444565b5090565b5b808211156114405760008155600101611445565b60006001600160401b038084111561147357611473611c1a565b604051601f8501601f19908116603f0116810190828211818310171561149b5761149b611c1a565b816040528093508581528686860111156114b457600080fd5b858560208301376000602087830101525050509392505050565b80356001600160a01b03811681146114e557600080fd5b919050565b600082601f8301126114fb57600080fd5b61150a83833560208501611459565b9392505050565b60006020828403121561152357600080fd5b61150a826114ce565b6000806040838503121561153f57600080fd5b611548836114ce565b9150611556602084016114ce565b90509250929050565b60008060006060848603121561157457600080fd5b61157d846114ce565b925061158b602085016114ce565b9150604084013590509250925092565b600080600080608085870312156115b157600080fd5b6115ba856114ce565b93506115c8602086016114ce565b92506040850135915060608501356001600160401b038111156115ea57600080fd5b8501601f810187136115fb57600080fd5b61160a87823560208401611459565b91505092959194509250565b6000806040838503121561162957600080fd5b611632836114ce565b91506020830135801515811461164757600080fd5b809150509250929050565b6000806040838503121561166557600080fd5b61166e836114ce565b946020939093013593505050565b60006020828403121561168e57600080fd5b813561150a81611c30565b6000602082840312156116ab57600080fd5b815161150a81611c30565b600080600080608085870312156116cc57600080fd5b84356001600160401b03808211156116e357600080fd5b6116ef888389016114ea565b9550602087013591508082111561170557600080fd5b611711888389016114ea565b9450604087013591508082111561172757600080fd5b611733888389016114ea565b9350606087013591508082111561174957600080fd5b5061160a878288016114ea565b60006020828403121561176857600080fd5b5035919050565b60008151808452611787816020860160208601611b82565b601f01601f19169290920160200192915050565b8054600090600181811c90808316806117b557607f831692505b60208084108214156117d757634e487b7160e01b600052602260045260246000fd5b8180156117eb57600181146117fc57611829565b60ff19861689528489019650611829565b60008881526020902060005b868110156118215781548b820152908501908301611808565b505084890196505b50505050505092915050565b600061186561185f61185961185361184d868c61179b565b8a61179b565b8861179b565b8661179b565b8461179b565b979650505050505050565b693d913730b6b2911d101160b11b8152600061188f600a83018761179b565b7a0111610113232b9b1b934b83a34b7b7111d101120b93a10313c9d1602d1b81526118bd601b82018761179b565b9050630101797960e51b81526118d6600482018661179b565b90507f222c2022696d616765223a2022646174613a696d6167652f7376672b786d6c3b81526618985cd94d8d0b60ca1b6020820152835161191e816027840160208801611b82565b61227d60f01b602792909101918201526029019695505050505050565b7f646174613a6170706c69636174696f6e2f6a736f6e3b6261736536342c00000081526000825161197381601d850160208701611b82565b91909101601d0192915050565b6001600160a01b03858116825284166020820152604081018390526080606082018190526000906119b39083018461176f565b9695505050505050565b6001600160a01b038616815260a0602082018190526000906119e19083018761176f565b82810360408401526119f3818761176f565b90508281036060840152611a07818661176f565b90508281036080840152611a1b818561176f565b98975050505050505050565b60208152600061150a602083018461176f565b60208082526032908201527f4552433732313a207472616e7366657220746f206e6f6e20455243373231526560408201527131b2b4bb32b91034b6b83632b6b2b73a32b960711b606082015260800190565b6020808252818101527f4f776e61626c653a2063616c6c6572206973206e6f7420746865206f776e6572604082015260600190565b60208082526031908201527f4552433732313a207472616e736665722063616c6c6572206973206e6f74206f6040820152701ddb995c881b9bdc88185c1c1c9bdd9959607a1b606082015260800190565b60008219821115611b2557611b25611c04565b500190565b600082611b4757634e487b7160e01b600052601260045260246000fd5b500490565b6000816000190483118215151615611b6657611b66611c04565b500290565b600082821015611b7d57611b7d611c04565b500390565b60005b83811015611b9d578181015183820152602001611b85565b83811115610ade5750506000910152565b600181811c90821680611bc257607f821691505b60208210811415611be357634e487b7160e01b600052602260045260246000fd5b50919050565b6000600019821415611bfd57611bfd611c04565b5060010190565b634e487b7160e01b600052601160045260246000fd5b634e487b7160e01b600052604160045260246000fd5b6001600160e01b031981168114610c7257600080fdfe4142434445464748494a4b4c4d4e4f505152535455565758595a6162636465666768696a6b6c6d6e6f707172737475767778797a303132333435363738392b2fddf252ad1be2c89b69c2b068fc378daa952ba7f163c4a11628f55a4df523b3efa2646970667358221220293471c0a9f98ac3ef15172b26d55dd5c2985e6468a2af3f2cd08a83bdac2bc564736f6c634300080600333c726563742077696474683d223130302522206865696768743d2231303025222066696c6c3d22776869746522202f3e3c73766720786d6c6e733d22687474703a2f2f7777772e77332e6f72672f323030302f73766722207072657365727665417370656374526174696f3d22784d696e594d696e206d656574222076696577426f783d223020302033353020333530223e3c7374796c653e2e74657874207b2066696c6c3a20626c61636b3b20666f6e742d66616d696c793a2073657269663b20666f6e742d73697a653a20313470783b207d3c2f7374796c653e",
  "linkReferences": {},
  "deployedLinkReferences": {}
}