{
  "_format": "hh-sol-artifact-1",
  "contractName": "TemplateERC721",
  "sourceName": "contracts/TemplateERC721.sol",
  "abi": [
    {
      "inputs": [
        {
          "internalType": "string",
          "name": "_tokenURI",
          "type": "string"
        },
        {
          "internalType": "address",
          "name": "_tokenGateAddress",
          "type": "address"
        },
        {
          "internalType": "uint256",
          "name": "_minTokenRequirement",
          "type": "uint256"
        }
      ],
      "stateMutability": "nonpayable",
      "type": "constructor"
    },
    {
      "anonymous": false,
      "inputs": [
        {
          "indexed": true,
          "internalType": "address",
          "name": "owner",
          "type": "address"
        },
        {
          "indexed": true,
          "internalType": "address",
          "name": "approved",
          "type": "address"
        },
        {
          "indexed": true,
          "internalType": "uint256",
          "name": "tokenId",
          "type": "uint256"
        }
      ],
      "name": "Approval",
      "type": "event"
    },
    {
      "anonymous": false,
      "inputs": [
        {
          "indexed": true,
          "internalType": "address",
          "name": "owner",
          "type": "address"
        },
        {
          "indexed": true,
          "internalType": "address",
          "name": "operator",
          "type": "address"
        },
        {
          "indexed": false,
          "internalType": "bool",
          "name": "approved",
          "type": "bool"
        }
      ],
      "name": "ApprovalForAll",
      "type": "event"
    },
    {
      "anonymous": false,
      "inputs": [
        {
          "indexed": true,
          "internalType": "address",
          "name": "previousOwner",
          "type": "address"
        },
        {
          "indexed": true,
          "internalType": "address",
          "name": "newOwner",
          "type": "address"
        }
      ],
      "name": "OwnershipTransferred",
      "type": "event"
    },
    {
      "anonymous": false,
      "inputs": [
        {
          "indexed": true,
          "internalType": "address",
          "name": "from",
          "type": "address"
        },
        {
          "indexed": true,
          "internalType": "address",
          "name": "to",
          "type": "address"
        },
        {
          "indexed": true,
          "internalType": "uint256",
          "name": "tokenId",
          "type": "uint256"
        }
      ],
      "name": "Transfer",
      "type": "event"
    },
    {
      "inputs": [
        {
          "internalType": "address",
          "name": "to",
          "type": "address"
        },
        {
          "internalType": "uint256",
          "name": "tokenId",
          "type": "uint256"
        }
      ],
      "name": "approve",
      "outputs": [],
      "stateMutability": "nonpayable",
      "type": "function"
    },
    {
      "inputs": [
        {
          "internalType": "address",
          "name": "owner",
          "type": "address"
        }
      ],
      "name": "balanceOf",
      "outputs": [
        {
          "internalType": "uint256",
          "name": "",
          "type": "uint256"
        }
      ],
      "stateMutability": "view",
      "type": "function"
    },
    {
      "inputs": [],
      "name": "canMint",
      "outputs": [
        {
          "internalType": "bool",
          "name": "",
          "type": "bool"
        }
      ],
      "stateMutability": "view",
      "type": "function"
    },
    {
      "inputs": [
        {
          "internalType": "uint256",
          "name": "tokenId",
          "type": "uint256"
        }
      ],
      "name": "getApproved",
      "outputs": [
        {
          "internalType": "address",
          "name": "",
          "type": "address"
        }
      ],
      "stateMutability": "view",
      "type": "function"
    },
    {
      "inputs": [],
      "name": "internalTokenURI",
      "outputs": [
        {
          "internalType": "string",
          "name": "",
          "type": "string"
        }
      ],
      "stateMutability": "view",
      "type": "function"
    },
    {
      "inputs": [
        {
          "internalType": "address",
          "name": "owner",
          "type": "address"
        },
        {
          "internalType": "address",
          "name": "operator",
          "type": "address"
        }
      ],
      "name": "isApprovedForAll",
      "outputs": [
        {
          "internalType": "bool",
          "name": "",
          "type": "bool"
        }
      ],
      "stateMutability": "view",
      "type": "function"
    },
    {
      "inputs": [],
      "name": "minTokenRequirement",
      "outputs": [
        {
          "internalType": "uint256",
          "name": "",
          "type": "uint256"
        }
      ],
      "stateMutability": "view",
      "type": "function"
    },
    {
      "inputs": [],
      "name": "mintCollectible",
      "outputs": [],
      "stateMutability": "nonpayable",
      "type": "function"
    },
    {
      "inputs": [
        {
          "internalType": "address",
          "name": "",
          "type": "address"
        }
      ],
      "name": "minted",
      "outputs": [
        {
          "internalType": "bool",
          "name": "",
          "type": "bool"
        }
      ],
      "stateMutability": "view",
      "type": "function"
    },
    {
      "inputs": [],
      "name": "name",
      "outputs": [
        {
          "internalType": "string",
          "name": "",
          "type": "string"
        }
      ],
      "stateMutability": "view",
      "type": "function"
    },
    {
      "inputs": [],
      "name": "owner",
      "outputs": [
        {
          "internalType": "address",
          "name": "",
          "type": "address"
        }
      ],
      "stateMutability": "view",
      "type": "function"
    },
    {
      "inputs": [
        {
          "internalType": "uint256",
          "name": "tokenId",
          "type": "uint256"
        }
      ],
      "name": "ownerOf",
      "outputs": [
        {
          "internalType": "address",
          "name": "",
          "type": "address"
        }
      ],
      "stateMutability": "view",
      "type": "function"
    },
    {
      "inputs": [],
      "name": "renounceOwnership",
      "outputs": [],
      "stateMutability": "nonpayable",
      "type": "function"
    },
    {
      "inputs": [
        {
          "internalType": "address",
          "name": "from",
          "type": "address"
        },
        {
          "internalType": "address",
          "name": "to",
          "type": "address"
        },
        {
          "internalType": "uint256",
          "name": "tokenId",
          "type": "uint256"
        }
      ],
      "name": "safeTransferFrom",
      "outputs": [],
      "stateMutability": "nonpayable",
      "type": "function"
    },
    {
      "inputs": [
        {
          "internalType": "address",
          "name": "from",
          "type": "address"
        },
        {
          "internalType": "address",
          "name": "to",
          "type": "address"
        },
        {
          "internalType": "uint256",
          "name": "tokenId",
          "type": "uint256"
        },
        {
          "internalType": "bytes",
          "name": "_data",
          "type": "bytes"
        }
      ],
      "name": "safeTransferFrom",
      "outputs": [],
      "stateMutability": "nonpayable",
      "type": "function"
    },
    {
      "inputs": [
        {
          "internalType": "address",
          "name": "operator",
          "type": "address"
        },
        {
          "internalType": "bool",
          "name": "approved",
          "type": "bool"
        }
      ],
      "name": "setApprovalForAll",
      "outputs": [],
      "stateMutability": "nonpayable",
      "type": "function"
    },
    {
      "inputs": [
        {
          "internalType": "bytes4",
          "name": "interfaceId",
          "type": "bytes4"
        }
      ],
      "name": "supportsInterface",
      "outputs": [
        {
          "internalType": "bool",
          "name": "",
          "type": "bool"
        }
      ],
      "stateMutability": "view",
      "type": "function"
    },
    {
      "inputs": [],
      "name": "symbol",
      "outputs": [
        {
          "internalType": "string",
          "name": "",
          "type": "string"
        }
      ],
      "stateMutability": "view",
      "type": "function"
    },
    {
      "inputs": [],
      "name": "token",
      "outputs": [
        {
          "internalType": "contract IERC20",
          "name": "",
          "type": "address"
        }
      ],
      "stateMutability": "view",
      "type": "function"
    },
    {
      "inputs": [],
      "name": "tokenCounter",
      "outputs": [
        {
          "internalType": "uint256",
          "name": "",
          "type": "uint256"
        }
      ],
      "stateMutability": "view",
      "type": "function"
    },
    {
      "inputs": [
        {
          "internalType": "uint256",
          "name": "tokenId",
          "type": "uint256"
        }
      ],
      "name": "tokenURI",
      "outputs": [
        {
          "internalType": "string",
          "name": "",
          "type": "string"
        }
      ],
      "stateMutability": "view",
      "type": "function"
    },
    {
      "inputs": [
        {
          "internalType": "address",
          "name": "from",
          "type": "address"
        },
        {
          "internalType": "address",
          "name": "to",
          "type": "address"
        },
        {
          "internalType": "uint256",
          "name": "tokenId",
          "type": "uint256"
        }
      ],
      "name": "transferFrom",
      "outputs": [],
      "stateMutability": "nonpayable",
      "type": "function"
    },
    {
      "inputs": [
        {
          "internalType": "address",
          "name": "newOwner",
          "type": "address"
        }
      ],
      "name": "transferOwnership",
      "outputs": [],
      "stateMutability": "nonpayable",
      "type": "function"
    }
  ],
  "bytecode": "0x60806040523480156200001157600080fd5b5060405162003b4938038062003b49833981810160405281019062000037919062000393565b6040518060400160405280600981526020017f54657374546f6b656e00000000000000000000000000000000000000000000008152506040518060400160405280600481526020017f54543031000000000000000000000000000000000000000000000000000000008152508160009080519060200190620000bb92919062000237565b508060019080519060200190620000d492919062000237565b505050620000f7620000eb6200016960201b60201c565b6200017160201b60201c565b600060088190555082600990805190602001906200011792919062000237565b5081600a60006101000a81548173ffffffffffffffffffffffffffffffffffffffff021916908373ffffffffffffffffffffffffffffffffffffffff16021790555080600b8190555050505062000604565b600033905090565b6000600760009054906101000a900473ffffffffffffffffffffffffffffffffffffffff16905081600760006101000a81548173ffffffffffffffffffffffffffffffffffffffff021916908373ffffffffffffffffffffffffffffffffffffffff1602179055508173ffffffffffffffffffffffffffffffffffffffff168173ffffffffffffffffffffffffffffffffffffffff167f8be0079c531659141344cd1fd0a4f28419497f9722a3daafe3b4186f6b6457e060405160405180910390a35050565b8280546200024590620004e1565b90600052602060002090601f016020900481019282620002695760008555620002b5565b82601f106200028457805160ff1916838001178555620002b5565b82800160010185558215620002b5579182015b82811115620002b457825182559160200191906001019062000297565b5b509050620002c49190620002c8565b5090565b5b80821115620002e3576000816000905550600101620002c9565b5090565b6000620002fe620002f88462000437565b6200040e565b9050828152602081018484840111156200031d576200031c620005b0565b5b6200032a848285620004ab565b509392505050565b6000815190506200034381620005d0565b92915050565b600082601f830112620003615762000360620005ab565b5b815162000373848260208601620002e7565b91505092915050565b6000815190506200038d81620005ea565b92915050565b600080600060608486031215620003af57620003ae620005ba565b5b600084015167ffffffffffffffff811115620003d057620003cf620005b5565b5b620003de8682870162000349565b9350506020620003f18682870162000332565b925050604062000404868287016200037c565b9150509250925092565b60006200041a6200042d565b905062000428828262000517565b919050565b6000604051905090565b600067ffffffffffffffff8211156200045557620004546200057c565b5b6200046082620005bf565b9050602081019050919050565b60006200047a8262000481565b9050919050565b600073ffffffffffffffffffffffffffffffffffffffff82169050919050565b6000819050919050565b60005b83811015620004cb578082015181840152602081019050620004ae565b83811115620004db576000848401525b50505050565b60006002820490506001821680620004fa57607f821691505b602082108114156200051157620005106200054d565b5b50919050565b6200052282620005bf565b810181811067ffffffffffffffff821117156200054457620005436200057c565b5b80604052505050565b7f4e487b7100000000000000000000000000000000000000000000000000000000600052602260045260246000fd5b7f4e487b7100000000000000000000000000000000000000000000000000000000600052604160045260246000fd5b600080fd5b600080fd5b600080fd5b600080fd5b6000601f19601f8301169050919050565b620005db816200046d565b8114620005e757600080fd5b50565b620005f581620004a1565b81146200060157600080fd5b50565b61353580620006146000396000f3fe608060405234801561001057600080fd5b506004361061014d5760003560e01c80638da5cb5b116100c3578063d082e3811161007c578063d082e3811461039e578063de76299d146103bc578063e985e9c5146103da578063f2fde38b1461040a578063f919594b14610426578063fc0c546a146104305761014d565b80638da5cb5b146102dc57806395d89b41146102fa578063a22cb46514610318578063b88d4fde14610334578063beb9716d14610350578063c87b56dd1461036e5761014d565b806323b872dd1161011557806323b872dd1461021c57806323ba32b51461023857806342842e0e146102565780636352211e1461027257806370a08231146102a2578063715018a6146102d25761014d565b806301ffc9a71461015257806306fdde0314610182578063081812fc146101a0578063095ea7b3146101d05780631e7269c5146101ec575b600080fd5b61016c6004803603810190610167919061234d565b61044e565b6040516101799190612827565b60405180910390f35b61018a610530565b604051610197919061285d565b60405180910390f35b6101ba60048036038101906101b591906123a7565b6105c2565b6040516101c791906127c0565b60405180910390f35b6101ea60048036038101906101e5919061230d565b610647565b005b6102066004803603810190610201919061218a565b61075f565b6040516102139190612827565b60405180910390f35b610236600480360381019061023191906121f7565b61077f565b005b6102406107df565b60405161024d9190612aff565b60405180910390f35b610270600480360381019061026b91906121f7565b6107e5565b005b61028c600480360381019061028791906123a7565b610805565b60405161029991906127c0565b60405180910390f35b6102bc60048036038101906102b7919061218a565b6108b7565b6040516102c99190612aff565b60405180910390f35b6102da61096f565b005b6102e46109f7565b6040516102f191906127c0565b60405180910390f35b610302610a21565b60405161030f919061285d565b60405180910390f35b610332600480360381019061032d91906122cd565b610ab3565b005b61034e6004803603810190610349919061224a565b610c34565b005b610358610c96565b6040516103659190612827565b60405180910390f35b610388600480360381019061038391906123a7565b610d4c565b604051610395919061285d565b60405180910390f35b6103a6610e9e565b6040516103b39190612aff565b60405180910390f35b6103c4610ea4565b6040516103d1919061285d565b60405180910390f35b6103f460048036038101906103ef91906121b7565b610f32565b6040516104019190612827565b60405180910390f35b610424600480360381019061041f919061218a565b610fc6565b005b61042e6110be565b005b610438611357565b6040516104459190612842565b60405180910390f35b60007f80ac58cd000000000000000000000000000000000000000000000000000000007bffffffffffffffffffffffffffffffffffffffffffffffffffffffff1916827bffffffffffffffffffffffffffffffffffffffffffffffffffffffff1916148061051957507f5b5e139f000000000000000000000000000000000000000000000000000000007bffffffffffffffffffffffffffffffffffffffffffffffffffffffff1916827bffffffffffffffffffffffffffffffffffffffffffffffffffffffff1916145b8061052957506105288261137d565b5b9050919050565b60606000805461053f90612d48565b80601f016020809104026020016040519081016040528092919081815260200182805461056b90612d48565b80156105b85780601f1061058d576101008083540402835291602001916105b8565b820191906000526020600020905b81548152906001019060200180831161059b57829003601f168201915b5050505050905090565b60006105cd826113e7565b61060c576040517f08c379a000000000000000000000000000000000000000000000000000000000815260040161060390612a3f565b60405180910390fd5b6004600083815260200190815260200160002060009054906101000a900473ffffffffffffffffffffffffffffffffffffffff169050919050565b600061065282610805565b90508073ffffffffffffffffffffffffffffffffffffffff168373ffffffffffffffffffffffffffffffffffffffff1614156106c3576040517f08c379a00000000000000000000000000000000000000000000000000000000081526004016106ba90612abf565b60405180910390fd5b8073ffffffffffffffffffffffffffffffffffffffff166106e2611453565b73ffffffffffffffffffffffffffffffffffffffff16148061071157506107108161070b611453565b610f32565b5b610750576040517f08c379a00000000000000000000000000000000000000000000000000000000081526004016107479061297f565b60405180910390fd5b61075a838361145b565b505050565b600c6020528060005260406000206000915054906101000a900460ff1681565b61079061078a611453565b82611514565b6107cf576040517f08c379a00000000000000000000000000000000000000000000000000000000081526004016107c690612adf565b60405180910390fd5b6107da8383836115f2565b505050565b600b5481565b61080083838360405180602001604052806000815250610c34565b505050565b6000806002600084815260200190815260200160002060009054906101000a900473ffffffffffffffffffffffffffffffffffffffff169050600073ffffffffffffffffffffffffffffffffffffffff168173ffffffffffffffffffffffffffffffffffffffff1614156108ae576040517f08c379a00000000000000000000000000000000000000000000000000000000081526004016108a5906129bf565b60405180910390fd5b80915050919050565b60008073ffffffffffffffffffffffffffffffffffffffff168273ffffffffffffffffffffffffffffffffffffffff161415610928576040517f08c379a000000000000000000000000000000000000000000000000000000000815260040161091f9061299f565b60405180910390fd5b600360008373ffffffffffffffffffffffffffffffffffffffff1673ffffffffffffffffffffffffffffffffffffffff168152602001908152602001600020549050919050565b610977611453565b73ffffffffffffffffffffffffffffffffffffffff166109956109f7565b73ffffffffffffffffffffffffffffffffffffffff16146109eb576040517f08c379a00000000000000000000000000000000000000000000000000000000081526004016109e290612a5f565b60405180910390fd5b6109f5600061184e565b565b6000600760009054906101000a900473ffffffffffffffffffffffffffffffffffffffff16905090565b606060018054610a3090612d48565b80601f0160208091040260200160405190810160405280929190818152602001828054610a5c90612d48565b8015610aa95780601f10610a7e57610100808354040283529160200191610aa9565b820191906000526020600020905b815481529060010190602001808311610a8c57829003601f168201915b5050505050905090565b610abb611453565b73ffffffffffffffffffffffffffffffffffffffff168273ffffffffffffffffffffffffffffffffffffffff161415610b29576040517f08c379a0000000000000000000000000000000000000000000000000000000008152600401610b209061293f565b60405180910390fd5b8060056000610b36611453565b73ffffffffffffffffffffffffffffffffffffffff1673ffffffffffffffffffffffffffffffffffffffff16815260200190815260200160002060008473ffffffffffffffffffffffffffffffffffffffff1673ffffffffffffffffffffffffffffffffffffffff16815260200190815260200160002060006101000a81548160ff0219169083151502179055508173ffffffffffffffffffffffffffffffffffffffff16610be3611453565b73ffffffffffffffffffffffffffffffffffffffff167f17307eab39ab6107e8899845ad3d59bd9653f200f220920489ca2b5937696c3183604051610c289190612827565b60405180910390a35050565b610c45610c3f611453565b83611514565b610c84576040517f08c379a0000000000000000000000000000000000000000000000000000000008152600401610c7b90612adf565b60405180910390fd5b610c9084848484611914565b50505050565b6000600b54600a60009054906101000a900473ffffffffffffffffffffffffffffffffffffffff1673ffffffffffffffffffffffffffffffffffffffff166370a08231336040518263ffffffff1660e01b8152600401610cf691906127c0565b60206040518083038186803b158015610d0e57600080fd5b505afa158015610d22573d6000803e3d6000fd5b505050506040513d601f19601f82011682018060405250810190610d4691906123d4565b11905090565b6060610d57826113e7565b610d96576040517f08c379a0000000000000000000000000000000000000000000000000000000008152600401610d8d90612a1f565b60405180910390fd5b6000600660008481526020019081526020016000208054610db690612d48565b80601f0160208091040260200160405190810160405280929190818152602001828054610de290612d48565b8015610e2f5780601f10610e0457610100808354040283529160200191610e2f565b820191906000526020600020905b815481529060010190602001808311610e1257829003601f168201915b505050505090506000610e40611970565b9050600081511415610e56578192505050610e99565b600082511115610e8b578082604051602001610e7392919061279c565b60405160208183030381529060405292505050610e99565b610e9484611987565b925050505b919050565b60085481565b60098054610eb190612d48565b80601f0160208091040260200160405190810160405280929190818152602001828054610edd90612d48565b8015610f2a5780601f10610eff57610100808354040283529160200191610f2a565b820191906000526020600020905b815481529060010190602001808311610f0d57829003601f168201915b505050505081565b6000600560008473ffffffffffffffffffffffffffffffffffffffff1673ffffffffffffffffffffffffffffffffffffffff16815260200190815260200160002060008373ffffffffffffffffffffffffffffffffffffffff1673ffffffffffffffffffffffffffffffffffffffff16815260200190815260200160002060009054906101000a900460ff16905092915050565b610fce611453565b73ffffffffffffffffffffffffffffffffffffffff16610fec6109f7565b73ffffffffffffffffffffffffffffffffffffffff1614611042576040517f08c379a000000000000000000000000000000000000000000000000000000000815260040161103990612a5f565b60405180910390fd5b600073ffffffffffffffffffffffffffffffffffffffff168173ffffffffffffffffffffffffffffffffffffffff1614156110b2576040517f08c379a00000000000000000000000000000000000000000000000000000000081526004016110a99061289f565b60405180910390fd5b6110bb8161184e565b50565b600b54600a60009054906101000a900473ffffffffffffffffffffffffffffffffffffffff1673ffffffffffffffffffffffffffffffffffffffff166370a08231336040518263ffffffff1660e01b815260040161111c91906127c0565b60206040518083038186803b15801561113457600080fd5b505afa158015611148573d6000803e3d6000fd5b505050506040513d601f19601f8201168201806040525081019061116c91906123d4565b116111ac576040517f08c379a00000000000000000000000000000000000000000000000000000000081526004016111a3906128df565b60405180910390fd5b60001515600c60003373ffffffffffffffffffffffffffffffffffffffff1673ffffffffffffffffffffffffffffffffffffffff16815260200190815260200160002060009054906101000a900460ff1615151461123f576040517f08c379a00000000000000000000000000000000000000000000000000000000081526004016112369061291f565b60405180910390fd5b6001600c60003373ffffffffffffffffffffffffffffffffffffffff1673ffffffffffffffffffffffffffffffffffffffff16815260200190815260200160002060006101000a81548160ff02191690831515021790555060006008549050600860008154809291906112b190612dab565b91905055506112c03382611a2e565b61135481600980546112d190612d48565b80601f01602080910402602001604051908101604052809291908181526020018280546112fd90612d48565b801561134a5780601f1061131f5761010080835404028352916020019161134a565b820191906000526020600020905b81548152906001019060200180831161132d57829003601f168201915b5050505050611a4c565b50565b600a60009054906101000a900473ffffffffffffffffffffffffffffffffffffffff1681565b60007f01ffc9a7000000000000000000000000000000000000000000000000000000007bffffffffffffffffffffffffffffffffffffffffffffffffffffffff1916827bffffffffffffffffffffffffffffffffffffffffffffffffffffffff1916149050919050565b60008073ffffffffffffffffffffffffffffffffffffffff166002600084815260200190815260200160002060009054906101000a900473ffffffffffffffffffffffffffffffffffffffff1673ffffffffffffffffffffffffffffffffffffffff1614159050919050565b600033905090565b816004600083815260200190815260200160002060006101000a81548173ffffffffffffffffffffffffffffffffffffffff021916908373ffffffffffffffffffffffffffffffffffffffff160217905550808273ffffffffffffffffffffffffffffffffffffffff166114ce83610805565b73ffffffffffffffffffffffffffffffffffffffff167f8c5be1e5ebec7d5bd14f71427d1e84f3dd0314c0f7b2291e5b200ac8c7c3b92560405160405180910390a45050565b600061151f826113e7565b61155e576040517f08c379a00000000000000000000000000000000000000000000000000000000081526004016115559061295f565b60405180910390fd5b600061156983610805565b90508073ffffffffffffffffffffffffffffffffffffffff168473ffffffffffffffffffffffffffffffffffffffff1614806115d857508373ffffffffffffffffffffffffffffffffffffffff166115c0846105c2565b73ffffffffffffffffffffffffffffffffffffffff16145b806115e957506115e88185610f32565b5b91505092915050565b8273ffffffffffffffffffffffffffffffffffffffff1661161282610805565b73ffffffffffffffffffffffffffffffffffffffff1614611668576040517f08c379a000000000000000000000000000000000000000000000000000000000815260040161165f90612a7f565b60405180910390fd5b600073ffffffffffffffffffffffffffffffffffffffff168273ffffffffffffffffffffffffffffffffffffffff1614156116d8576040517f08c379a00000000000000000000000000000000000000000000000000000000081526004016116cf906128ff565b60405180910390fd5b6116e3838383611ac0565b6116ee60008261145b565b6001600360008573ffffffffffffffffffffffffffffffffffffffff1673ffffffffffffffffffffffffffffffffffffffff168152602001908152602001600020600082825461173e9190612c3a565b925050819055506001600360008473ffffffffffffffffffffffffffffffffffffffff1673ffffffffffffffffffffffffffffffffffffffff16815260200190815260200160002060008282546117959190612bb3565b92505081905550816002600083815260200190815260200160002060006101000a81548173ffffffffffffffffffffffffffffffffffffffff021916908373ffffffffffffffffffffffffffffffffffffffff160217905550808273ffffffffffffffffffffffffffffffffffffffff168473ffffffffffffffffffffffffffffffffffffffff167fddf252ad1be2c89b69c2b068fc378daa952ba7f163c4a11628f55a4df523b3ef60405160405180910390a4505050565b6000600760009054906101000a900473ffffffffffffffffffffffffffffffffffffffff16905081600760006101000a81548173ffffffffffffffffffffffffffffffffffffffff021916908373ffffffffffffffffffffffffffffffffffffffff1602179055508173ffffffffffffffffffffffffffffffffffffffff168173ffffffffffffffffffffffffffffffffffffffff167f8be0079c531659141344cd1fd0a4f28419497f9722a3daafe3b4186f6b6457e060405160405180910390a35050565b61191f8484846115f2565b61192b84848484611ac5565b61196a576040517f08c379a00000000000000000000000000000000000000000000000000000000081526004016119619061287f565b60405180910390fd5b50505050565b606060405180602001604052806000815250905090565b6060611992826113e7565b6119d1576040517f08c379a00000000000000000000000000000000000000000000000000000000081526004016119c890612a9f565b60405180910390fd5b60006119db611970565b905060008151116119fb5760405180602001604052806000815250611a26565b80611a0584611c5c565b604051602001611a1692919061279c565b6040516020818303038152906040525b915050919050565b611a48828260405180602001604052806000815250611dbd565b5050565b611a55826113e7565b611a94576040517f08c379a0000000000000000000000000000000000000000000000000000000008152600401611a8b906129df565b60405180910390fd5b80600660008481526020019081526020016000209080519060200190611abb929190611ff9565b505050565b505050565b6000611ae68473ffffffffffffffffffffffffffffffffffffffff16611e18565b15611c4f578373ffffffffffffffffffffffffffffffffffffffff1663150b7a02611b0f611453565b8786866040518563ffffffff1660e01b8152600401611b3194939291906127db565b602060405180830381600087803b158015611b4b57600080fd5b505af1925050508015611b7c57506040513d601f19601f82011682018060405250810190611b79919061237a565b60015b611bff573d8060008114611bac576040519150601f19603f3d011682016040523d82523d6000602084013e611bb1565b606091505b50600081511415611bf7576040517f08c379a0000000000000000000000000000000000000000000000000000000008152600401611bee9061287f565b60405180910390fd5b805181602001fd5b63150b7a0260e01b7bffffffffffffffffffffffffffffffffffffffffffffffffffffffff1916817bffffffffffffffffffffffffffffffffffffffffffffffffffffffff191614915050611c54565b600190505b949350505050565b60606000821415611ca4576040518060400160405280600181526020017f30000000000000000000000000000000000000000000000000000000000000008152509050611db8565b600082905060005b60008214611cd6578080611cbf90612dab565b915050600a82611ccf9190612c09565b9150611cac565b60008167ffffffffffffffff811115611cf257611cf1612ee1565b5b6040519080825280601f01601f191660200182016040528015611d245781602001600182028036833780820191505090505b5090505b60008514611db157600182611d3d9190612c3a565b9150600a85611d4c9190612df4565b6030611d589190612bb3565b60f81b818381518110611d6e57611d6d612eb2565b5b60200101907effffffffffffffffffffffffffffffffffffffffffffffffffffffffffffff1916908160001a905350600a85611daa9190612c09565b9450611d28565b8093505050505b919050565b611dc78383611e2b565b611dd46000848484611ac5565b611e13576040517f08c379a0000000000000000000000000000000000000000000000000000000008152600401611e0a9061287f565b60405180910390fd5b505050565b600080823b905060008111915050919050565b600073ffffffffffffffffffffffffffffffffffffffff168273ffffffffffffffffffffffffffffffffffffffff161415611e9b576040517f08c379a0000000000000000000000000000000000000000000000000000000008152600401611e92906129ff565b60405180910390fd5b611ea4816113e7565b15611ee4576040517f08c379a0000000000000000000000000000000000000000000000000000000008152600401611edb906128bf565b60405180910390fd5b611ef060008383611ac0565b6001600360008473ffffffffffffffffffffffffffffffffffffffff1673ffffffffffffffffffffffffffffffffffffffff1681526020019081526020016000206000828254611f409190612bb3565b92505081905550816002600083815260200190815260200160002060006101000a81548173ffffffffffffffffffffffffffffffffffffffff021916908373ffffffffffffffffffffffffffffffffffffffff160217905550808273ffffffffffffffffffffffffffffffffffffffff16600073ffffffffffffffffffffffffffffffffffffffff167fddf252ad1be2c89b69c2b068fc378daa952ba7f163c4a11628f55a4df523b3ef60405160405180910390a45050565b82805461200590612d48565b90600052602060002090601f016020900481019282612027576000855561206e565b82601f1061204057805160ff191683800117855561206e565b8280016001018555821561206e579182015b8281111561206d578251825591602001919060010190612052565b5b50905061207b919061207f565b5090565b5b80821115612098576000816000905550600101612080565b5090565b60006120af6120aa84612b3f565b612b1a565b9050828152602081018484840111156120cb576120ca612f15565b5b6120d6848285612d06565b509392505050565b6000813590506120ed816134a3565b92915050565b600081359050612102816134ba565b92915050565b600081359050612117816134d1565b92915050565b60008151905061212c816134d1565b92915050565b600082601f83011261214757612146612f10565b5b813561215784826020860161209c565b91505092915050565b60008135905061216f816134e8565b92915050565b600081519050612184816134e8565b92915050565b6000602082840312156121a05761219f612f1f565b5b60006121ae848285016120de565b91505092915050565b600080604083850312156121ce576121cd612f1f565b5b60006121dc858286016120de565b92505060206121ed858286016120de565b9150509250929050565b6000806000606084860312156122105761220f612f1f565b5b600061221e868287016120de565b935050602061222f868287016120de565b925050604061224086828701612160565b9150509250925092565b6000806000806080858703121561226457612263612f1f565b5b6000612272878288016120de565b9450506020612283878288016120de565b935050604061229487828801612160565b925050606085013567ffffffffffffffff8111156122b5576122b4612f1a565b5b6122c187828801612132565b91505092959194509250565b600080604083850312156122e4576122e3612f1f565b5b60006122f2858286016120de565b9250506020612303858286016120f3565b9150509250929050565b6000806040838503121561232457612323612f1f565b5b6000612332858286016120de565b925050602061234385828601612160565b9150509250929050565b60006020828403121561236357612362612f1f565b5b600061237184828501612108565b91505092915050565b6000602082840312156123905761238f612f1f565b5b600061239e8482850161211d565b91505092915050565b6000602082840312156123bd576123bc612f1f565b5b60006123cb84828501612160565b91505092915050565b6000602082840312156123ea576123e9612f1f565b5b60006123f884828501612175565b91505092915050565b61240a81612c6e565b82525050565b61241981612c80565b82525050565b600061242a82612b70565b6124348185612b86565b9350612444818560208601612d15565b61244d81612f24565b840191505092915050565b61246181612ce2565b82525050565b600061247282612b7b565b61247c8185612b97565b935061248c818560208601612d15565b61249581612f24565b840191505092915050565b60006124ab82612b7b565b6124b58185612ba8565b93506124c5818560208601612d15565b80840191505092915050565b60006124de603283612b97565b91506124e982612f35565b604082019050919050565b6000612501602683612b97565b915061250c82612f84565b604082019050919050565b6000612524601c83612b97565b915061252f82612fd3565b602082019050919050565b6000612547602683612b97565b915061255282612ffc565b604082019050919050565b600061256a602483612b97565b91506125758261304b565b604082019050919050565b600061258d601283612b97565b91506125988261309a565b602082019050919050565b60006125b0601983612b97565b91506125bb826130c3565b602082019050919050565b60006125d3602c83612b97565b91506125de826130ec565b604082019050919050565b60006125f6603883612b97565b91506126018261313b565b604082019050919050565b6000612619602a83612b97565b91506126248261318a565b604082019050919050565b600061263c602983612b97565b9150612647826131d9565b604082019050919050565b600061265f602e83612b97565b915061266a82613228565b604082019050919050565b6000612682602083612b97565b915061268d82613277565b602082019050919050565b60006126a5603183612b97565b91506126b0826132a0565b604082019050919050565b60006126c8602c83612b97565b91506126d3826132ef565b604082019050919050565b60006126eb602083612b97565b91506126f68261333e565b602082019050919050565b600061270e602983612b97565b915061271982613367565b604082019050919050565b6000612731602f83612b97565b915061273c826133b6565b604082019050919050565b6000612754602183612b97565b915061275f82613405565b604082019050919050565b6000612777603183612b97565b915061278282613454565b604082019050919050565b61279681612cd8565b82525050565b60006127a882856124a0565b91506127b482846124a0565b91508190509392505050565b60006020820190506127d56000830184612401565b92915050565b60006080820190506127f06000830187612401565b6127fd6020830186612401565b61280a604083018561278d565b818103606083015261281c818461241f565b905095945050505050565b600060208201905061283c6000830184612410565b92915050565b60006020820190506128576000830184612458565b92915050565b600060208201905081810360008301526128778184612467565b905092915050565b60006020820190508181036000830152612898816124d1565b9050919050565b600060208201905081810360008301526128b8816124f4565b9050919050565b600060208201905081810360008301526128d881612517565b9050919050565b600060208201905081810360008301526128f88161253a565b9050919050565b600060208201905081810360008301526129188161255d565b9050919050565b6000602082019050818103600083015261293881612580565b9050919050565b60006020820190508181036000830152612958816125a3565b9050919050565b60006020820190508181036000830152612978816125c6565b9050919050565b60006020820190508181036000830152612998816125e9565b9050919050565b600060208201905081810360008301526129b88161260c565b9050919050565b600060208201905081810360008301526129d88161262f565b9050919050565b600060208201905081810360008301526129f881612652565b9050919050565b60006020820190508181036000830152612a1881612675565b9050919050565b60006020820190508181036000830152612a3881612698565b9050919050565b60006020820190508181036000830152612a58816126bb565b9050919050565b60006020820190508181036000830152612a78816126de565b9050919050565b60006020820190508181036000830152612a9881612701565b9050919050565b60006020820190508181036000830152612ab881612724565b9050919050565b60006020820190508181036000830152612ad881612747565b9050919050565b60006020820190508181036000830152612af88161276a565b9050919050565b6000602082019050612b14600083018461278d565b92915050565b6000612b24612b35565b9050612b308282612d7a565b919050565b6000604051905090565b600067ffffffffffffffff821115612b5a57612b59612ee1565b5b612b6382612f24565b9050602081019050919050565b600081519050919050565b600081519050919050565b600082825260208201905092915050565b600082825260208201905092915050565b600081905092915050565b6000612bbe82612cd8565b9150612bc983612cd8565b9250827fffffffffffffffffffffffffffffffffffffffffffffffffffffffffffffffff03821115612bfe57612bfd612e25565b5b828201905092915050565b6000612c1482612cd8565b9150612c1f83612cd8565b925082612c2f57612c2e612e54565b5b828204905092915050565b6000612c4582612cd8565b9150612c5083612cd8565b925082821015612c6357612c62612e25565b5b828203905092915050565b6000612c7982612cb8565b9050919050565b60008115159050919050565b60007fffffffff0000000000000000000000000000000000000000000000000000000082169050919050565b600073ffffffffffffffffffffffffffffffffffffffff82169050919050565b6000819050919050565b6000612ced82612cf4565b9050919050565b6000612cff82612cb8565b9050919050565b82818337600083830152505050565b60005b83811015612d33578082015181840152602081019050612d18565b83811115612d42576000848401525b50505050565b60006002820490506001821680612d6057607f821691505b60208210811415612d7457612d73612e83565b5b50919050565b612d8382612f24565b810181811067ffffffffffffffff82111715612da257612da1612ee1565b5b80604052505050565b6000612db682612cd8565b91507fffffffffffffffffffffffffffffffffffffffffffffffffffffffffffffffff821415612de957612de8612e25565b5b600182019050919050565b6000612dff82612cd8565b9150612e0a83612cd8565b925082612e1a57612e19612e54565b5b828206905092915050565b7f4e487b7100000000000000000000000000000000000000000000000000000000600052601160045260246000fd5b7f4e487b7100000000000000000000000000000000000000000000000000000000600052601260045260246000fd5b7f4e487b7100000000000000000000000000000000000000000000000000000000600052602260045260246000fd5b7f4e487b7100000000000000000000000000000000000000000000000000000000600052603260045260246000fd5b7f4e487b7100000000000000000000000000000000000000000000000000000000600052604160045260246000fd5b600080fd5b600080fd5b600080fd5b600080fd5b6000601f19601f8301169050919050565b7f4552433732313a207472616e7366657220746f206e6f6e20455243373231526560008201527f63656976657220696d706c656d656e7465720000000000000000000000000000602082015250565b7f4f776e61626c653a206e6577206f776e657220697320746865207a65726f206160008201527f6464726573730000000000000000000000000000000000000000000000000000602082015250565b7f4552433732313a20746f6b656e20616c7265616479206d696e74656400000000600082015250565b7f4f776e657220646f65736e2774206861766520656e6f756768206f662074686560008201527f20746f6b656e0000000000000000000000000000000000000000000000000000602082015250565b7f4552433732313a207472616e7366657220746f20746865207a65726f2061646460008201527f7265737300000000000000000000000000000000000000000000000000000000602082015250565b7f4e465420616c7265616479206d696e7465640000000000000000000000000000600082015250565b7f4552433732313a20617070726f766520746f2063616c6c657200000000000000600082015250565b7f4552433732313a206f70657261746f7220717565727920666f72206e6f6e657860008201527f697374656e7420746f6b656e0000000000000000000000000000000000000000602082015250565b7f4552433732313a20617070726f76652063616c6c6572206973206e6f74206f7760008201527f6e6572206e6f7220617070726f76656420666f7220616c6c0000000000000000602082015250565b7f4552433732313a2062616c616e636520717565727920666f7220746865207a6560008201527f726f206164647265737300000000000000000000000000000000000000000000602082015250565b7f4552433732313a206f776e657220717565727920666f72206e6f6e657869737460008201527f656e7420746f6b656e0000000000000000000000000000000000000000000000602082015250565b7f45524337323155524953746f726167653a2055524920736574206f66206e6f6e60008201527f6578697374656e7420746f6b656e000000000000000000000000000000000000602082015250565b7f4552433732313a206d696e7420746f20746865207a65726f2061646472657373600082015250565b7f45524337323155524953746f726167653a2055524920717565727920666f722060008201527f6e6f6e6578697374656e7420746f6b656e000000000000000000000000000000602082015250565b7f4552433732313a20617070726f76656420717565727920666f72206e6f6e657860008201527f697374656e7420746f6b656e0000000000000000000000000000000000000000602082015250565b7f4f776e61626c653a2063616c6c6572206973206e6f7420746865206f776e6572600082015250565b7f4552433732313a207472616e73666572206f6620746f6b656e2074686174206960008201527f73206e6f74206f776e0000000000000000000000000000000000000000000000602082015250565b7f4552433732314d657461646174613a2055524920717565727920666f72206e6f60008201527f6e6578697374656e7420746f6b656e0000000000000000000000000000000000602082015250565b7f4552433732313a20617070726f76616c20746f2063757272656e74206f776e6560008201527f7200000000000000000000000000000000000000000000000000000000000000602082015250565b7f4552433732313a207472616e736665722063616c6c6572206973206e6f74206f60008201527f776e6572206e6f7220617070726f766564000000000000000000000000000000602082015250565b6134ac81612c6e565b81146134b757600080fd5b50565b6134c381612c80565b81146134ce57600080fd5b50565b6134da81612c8c565b81146134e557600080fd5b50565b6134f181612cd8565b81146134fc57600080fd5b5056fea2646970667358221220602ce92b281f90b89ed8a0064746b87d04649c9ccd48de68185539d0c7edac6464736f6c63430008060033",
  "linkReferences": {},
  "deployedLinkReferences": {}
}