{
  "_format": "hh-sol-artifact-1",
  "contractName": "SVGStar",
  "sourceName": "contracts/SVGStar.sol",
  "abi": [
    {
      "inputs": [
        {
          "internalType": "string",
          "name": "_name",
          "type": "string"
        },
        {
          "internalType": "string",
          "name": "_symbol",
          "type": "string"
        }
      ],
      "stateMutability": "nonpayable",
      "type": "constructor"
    },
    {
      "anonymous": false,
      "inputs": [
        {
          "indexed": true,
          "internalType": "address",
          "name": "owner",
          "type": "address"
        },
        {
          "indexed": true,
          "internalType": "address",
          "name": "approved",
          "type": "address"
        },
        {
          "indexed": true,
          "internalType": "uint256",
          "name": "tokenId",
          "type": "uint256"
        }
      ],
      "name": "Approval",
      "type": "event"
    },
    {
      "anonymous": false,
      "inputs": [
        {
          "indexed": true,
          "internalType": "address",
          "name": "owner",
          "type": "address"
        },
        {
          "indexed": true,
          "internalType": "address",
          "name": "operator",
          "type": "address"
        },
        {
          "indexed": false,
          "internalType": "bool",
          "name": "approved",
          "type": "bool"
        }
      ],
      "name": "ApprovalForAll",
      "type": "event"
    },
    {
      "anonymous": false,
      "inputs": [
        {
          "indexed": true,
          "internalType": "address",
          "name": "previousOwner",
          "type": "address"
        },
        {
          "indexed": true,
          "internalType": "address",
          "name": "newOwner",
          "type": "address"
        }
      ],
      "name": "OwnershipTransferred",
      "type": "event"
    },
    {
      "anonymous": false,
      "inputs": [
        {
          "indexed": true,
          "internalType": "address",
          "name": "from",
          "type": "address"
        },
        {
          "indexed": true,
          "internalType": "address",
          "name": "to",
          "type": "address"
        },
        {
          "indexed": true,
          "internalType": "uint256",
          "name": "tokenId",
          "type": "uint256"
        }
      ],
      "name": "Transfer",
      "type": "event"
    },
    {
      "inputs": [
        {
          "internalType": "address",
          "name": "to",
          "type": "address"
        },
        {
          "internalType": "uint256",
          "name": "tokenId",
          "type": "uint256"
        }
      ],
      "name": "approve",
      "outputs": [],
      "stateMutability": "nonpayable",
      "type": "function"
    },
    {
      "inputs": [
        {
          "internalType": "address",
          "name": "owner",
          "type": "address"
        }
      ],
      "name": "balanceOf",
      "outputs": [
        {
          "internalType": "uint256",
          "name": "",
          "type": "uint256"
        }
      ],
      "stateMutability": "view",
      "type": "function"
    },
    {
      "inputs": [
        {
          "internalType": "uint256",
          "name": "tokenId",
          "type": "uint256"
        }
      ],
      "name": "getApproved",
      "outputs": [
        {
          "internalType": "address",
          "name": "",
          "type": "address"
        }
      ],
      "stateMutability": "view",
      "type": "function"
    },
    {
      "inputs": [
        {
          "internalType": "address",
          "name": "owner",
          "type": "address"
        },
        {
          "internalType": "address",
          "name": "operator",
          "type": "address"
        }
      ],
      "name": "isApprovedForAll",
      "outputs": [
        {
          "internalType": "bool",
          "name": "",
          "type": "bool"
        }
      ],
      "stateMutability": "view",
      "type": "function"
    },
    {
      "inputs": [],
      "name": "mintCollectible",
      "outputs": [],
      "stateMutability": "nonpayable",
      "type": "function"
    },
    {
      "inputs": [
        {
          "internalType": "address",
          "name": "",
          "type": "address"
        }
      ],
      "name": "minted",
      "outputs": [
        {
          "internalType": "bool",
          "name": "",
          "type": "bool"
        }
      ],
      "stateMutability": "view",
      "type": "function"
    },
    {
      "inputs": [],
      "name": "name",
      "outputs": [
        {
          "internalType": "string",
          "name": "",
          "type": "string"
        }
      ],
      "stateMutability": "view",
      "type": "function"
    },
    {
      "inputs": [],
      "name": "owner",
      "outputs": [
        {
          "internalType": "address",
          "name": "",
          "type": "address"
        }
      ],
      "stateMutability": "view",
      "type": "function"
    },
    {
      "inputs": [
        {
          "internalType": "uint256",
          "name": "tokenId",
          "type": "uint256"
        }
      ],
      "name": "ownerOf",
      "outputs": [
        {
          "internalType": "address",
          "name": "",
          "type": "address"
        }
      ],
      "stateMutability": "view",
      "type": "function"
    },
    {
      "inputs": [],
      "name": "renounceOwnership",
      "outputs": [],
      "stateMutability": "nonpayable",
      "type": "function"
    },
    {
      "inputs": [
        {
          "internalType": "address",
          "name": "from",
          "type": "address"
        },
        {
          "internalType": "address",
          "name": "to",
          "type": "address"
        },
        {
          "internalType": "uint256",
          "name": "tokenId",
          "type": "uint256"
        }
      ],
      "name": "safeTransferFrom",
      "outputs": [],
      "stateMutability": "nonpayable",
      "type": "function"
    },
    {
      "inputs": [
        {
          "internalType": "address",
          "name": "from",
          "type": "address"
        },
        {
          "internalType": "address",
          "name": "to",
          "type": "address"
        },
        {
          "internalType": "uint256",
          "name": "tokenId",
          "type": "uint256"
        },
        {
          "internalType": "bytes",
          "name": "_data",
          "type": "bytes"
        }
      ],
      "name": "safeTransferFrom",
      "outputs": [],
      "stateMutability": "nonpayable",
      "type": "function"
    },
    {
      "inputs": [
        {
          "internalType": "address",
          "name": "operator",
          "type": "address"
        },
        {
          "internalType": "bool",
          "name": "approved",
          "type": "bool"
        }
      ],
      "name": "setApprovalForAll",
      "outputs": [],
      "stateMutability": "nonpayable",
      "type": "function"
    },
    {
      "inputs": [
        {
          "internalType": "bytes4",
          "name": "interfaceId",
          "type": "bytes4"
        }
      ],
      "name": "supportsInterface",
      "outputs": [
        {
          "internalType": "bool",
          "name": "",
          "type": "bool"
        }
      ],
      "stateMutability": "view",
      "type": "function"
    },
    {
      "inputs": [],
      "name": "symbol",
      "outputs": [
        {
          "internalType": "string",
          "name": "",
          "type": "string"
        }
      ],
      "stateMutability": "view",
      "type": "function"
    },
    {
      "inputs": [],
      "name": "tokenCounter",
      "outputs": [
        {
          "internalType": "uint256",
          "name": "",
          "type": "uint256"
        }
      ],
      "stateMutability": "view",
      "type": "function"
    },
    {
      "inputs": [
        {
          "internalType": "uint256",
          "name": "tokenId",
          "type": "uint256"
        }
      ],
      "name": "tokenURI",
      "outputs": [
        {
          "internalType": "string",
          "name": "",
          "type": "string"
        }
      ],
      "stateMutability": "view",
      "type": "function"
    },
    {
      "inputs": [
        {
          "internalType": "address",
          "name": "from",
          "type": "address"
        },
        {
          "internalType": "address",
          "name": "to",
          "type": "address"
        },
        {
          "internalType": "uint256",
          "name": "tokenId",
          "type": "uint256"
        }
      ],
      "name": "transferFrom",
      "outputs": [],
      "stateMutability": "nonpayable",
      "type": "function"
    },
    {
      "inputs": [
        {
          "internalType": "address",
          "name": "newOwner",
          "type": "address"
        }
      ],
      "name": "transferOwnership",
      "outputs": [],
      "stateMutability": "nonpayable",
      "type": "function"
    }
  ],
  "bytecode": "0x60806040523480156200001157600080fd5b5060405162001e0738038062001e07833981016040819052620000349162000256565b8151829082906200004d906000906020850190620000f9565b50805162000063906001906020840190620000f9565b505050620000806200007a620000a360201b60201c565b620000a7565b600060085581516200009a90600a906020850190620000f9565b50505062000313565b3390565b600780546001600160a01b038381166001600160a01b0319831681179093556040519116919082907f8be0079c531659141344cd1fd0a4f28419497f9722a3daafe3b4186f6b6457e090600090a35050565b8280546200010790620002c0565b90600052602060002090601f0160209004810192826200012b576000855562000176565b82601f106200014657805160ff191683800117855562000176565b8280016001018555821562000176579182015b828111156200017657825182559160200191906001019062000159565b506200018492915062000188565b5090565b5b8082111562000184576000815560010162000189565b600082601f830112620001b157600080fd5b81516001600160401b0380821115620001ce57620001ce620002fd565b604051601f8301601f19908116603f01168101908282118183101715620001f957620001f9620002fd565b816040528381526020925086838588010111156200021657600080fd5b600091505b838210156200023a57858201830151818301840152908201906200021b565b838211156200024c5760008385830101525b9695505050505050565b600080604083850312156200026a57600080fd5b82516001600160401b03808211156200028257600080fd5b62000290868387016200019f565b93506020850151915080821115620002a757600080fd5b50620002b6858286016200019f565b9150509250929050565b600181811c90821680620002d557607f821691505b60208210811415620002f757634e487b7160e01b600052602260045260246000fd5b50919050565b634e487b7160e01b600052604160045260246000fd5b611ae480620003236000396000f3fe608060405234801561001057600080fd5b50600436106100f15760003560e01c806301ffc9a7146100f657806306fdde031461011e578063081812fc14610133578063095ea7b31461015e5780631e7269c51461017357806323b872dd1461019657806342842e0e146101a95780636352211e146101bc57806370a08231146101cf578063715018a6146101f05780638da5cb5b146101f857806395d89b4114610200578063a22cb46514610208578063b88d4fde1461021b578063c87b56dd1461022e578063d082e38114610241578063e985e9c51461024a578063f2fde38b1461025d578063f919594b14610270575b600080fd5b6101096101043660046114ec565b610278565b60405190151581526020015b60405180910390f35b6101266102ca565b6040516101159190611700565b610146610141366004611526565b61035c565b6040516001600160a01b039091168152602001610115565b61017161016c3660046114c2565b6103e9565b005b61010961018136600461131a565b60096020526000908152604090205460ff1681565b6101716101a436600461136f565b6104fa565b6101716101b736600461136f565b61052b565b6101466101ca366004611526565b610546565b6101e26101dd36600461131a565b6105bd565b604051908152602001610115565b610171610644565b61014661067f565b61012661068e565b610171610216366004611486565b61069d565b6101716102293660046113ab565b61075e565b61012661023c366004611526565b610796565b6101e260085481565b61010961025836600461133c565b610932565b61017161026b36600461131a565b610960565b610171610a00565b60006001600160e01b031982166380ac58cd60e01b14806102a957506001600160e01b03198216635b5e139f60e01b145b806102c457506301ffc9a760e01b6001600160e01b03198316145b92915050565b6060600080546102d990611879565b80601f016020809104026020016040519081016040528092919081815260200182805461030590611879565b80156103525780601f1061032757610100808354040283529160200191610352565b820191906000526020600020905b81548152906001019060200180831161033557829003601f168201915b5050505050905090565b600061036782610a8f565b6103cd5760405162461bcd60e51b815260206004820152602c60248201527f4552433732313a20617070726f76656420717565727920666f72206e6f6e657860448201526b34b9ba32b73a103a37b5b2b760a11b60648201526084015b60405180910390fd5b506000908152600460205260409020546001600160a01b031690565b60006103f482610546565b9050806001600160a01b0316836001600160a01b031614156104625760405162461bcd60e51b815260206004820152602160248201527f4552433732313a20617070726f76616c20746f2063757272656e74206f776e656044820152603960f91b60648201526084016103c4565b336001600160a01b038216148061047e575061047e8133610932565b6104eb5760405162461bcd60e51b815260206004820152603860248201527f4552433732313a20617070726f76652063616c6c6572206973206e6f74206f776044820152771b995c881b9bdc88185c1c1c9bdd995908199bdc88185b1b60421b60648201526084016103c4565b6104f58383610aac565b505050565b6105043382610b1a565b6105205760405162461bcd60e51b81526004016103c49061179a565b6104f5838383610be4565b6104f58383836040518060200160405280600081525061075e565b6000818152600260205260408120546001600160a01b0316806102c45760405162461bcd60e51b815260206004820152602960248201527f4552433732313a206f776e657220717565727920666f72206e6f6e657869737460448201526832b73a103a37b5b2b760b91b60648201526084016103c4565b60006001600160a01b0382166106285760405162461bcd60e51b815260206004820152602a60248201527f4552433732313a2062616c616e636520717565727920666f7220746865207a65604482015269726f206164647265737360b01b60648201526084016103c4565b506001600160a01b031660009081526003602052604090205490565b3361064d61067f565b6001600160a01b0316146106735760405162461bcd60e51b81526004016103c490611765565b61067d6000610d72565b565b6007546001600160a01b031690565b6060600180546102d990611879565b6001600160a01b0382163314156106f25760405162461bcd60e51b815260206004820152601960248201527822a9219b99189d1030b8383937bb32903a379031b0b63632b960391b60448201526064016103c4565b3360008181526005602090815260408083206001600160a01b03871680855290835292819020805460ff191686151590811790915590519081529192917f17307eab39ab6107e8899845ad3d59bd9653f200f220920489ca2b5937696c31910160405180910390a35050565b6107683383610b1a565b6107845760405162461bcd60e51b81526004016103c49061179a565b61079084848484610dc4565b50505050565b60606107a06112d7565b60405180610120016040528060fd815260200161195260fd91398152600a80546107c990611879565b80601f01602080910402602001604051908101604052809291908181526020018280546107f590611879565b80156108425780601f1061081757610100808354040283529160200191610842565b820191906000526020600020905b81548152906001019060200180831161082557829003601f168201915b50505050508160016004811061085a5761085a61190f565b602002015261086883610df7565b604082810191825280518082018252600d81526c1e17ba32bc3a1f1e17b9bb339f60991b60208083019190915260608501829052845181860151945193516000956108b9959294909390910161156b565b604051602081830303815290604052905060006109066108d886610df7565b6108e184610ef4565b6040516020016108f29291906115c2565b604051602081830303815290604052610ef4565b905080604051602001610919919061167e565b60408051601f1981840301815291905295945050505050565b6001600160a01b03918216600090815260056020908152604080832093909416825291909152205460ff1690565b3361096961067f565b6001600160a01b03161461098f5760405162461bcd60e51b81526004016103c490611765565b6001600160a01b0381166109f45760405162461bcd60e51b815260206004820152602660248201527f4f776e61626c653a206e6577206f776e657220697320746865207a65726f206160448201526564647265737360d01b60648201526084016103c4565b6109fd81610d72565b50565b3360009081526009602052604090205460ff1615610a555760405162461bcd60e51b815260206004820152601260248201527113919508185b1c9958591e481b5a5b9d195960721b60448201526064016103c4565b336000908152600960205260408120805460ff191660011790556008805491829190610a80836118b4565b91905055506109fd3382611059565b6000908152600260205260409020546001600160a01b0316151590565b600081815260046020526040902080546001600160a01b0319166001600160a01b0384169081179091558190610ae182610546565b6001600160a01b03167f8c5be1e5ebec7d5bd14f71427d1e84f3dd0314c0f7b2291e5b200ac8c7c3b92560405160405180910390a45050565b6000610b2582610a8f565b610b865760405162461bcd60e51b815260206004820152602c60248201527f4552433732313a206f70657261746f7220717565727920666f72206e6f6e657860448201526b34b9ba32b73a103a37b5b2b760a11b60648201526084016103c4565b6000610b9183610546565b9050806001600160a01b0316846001600160a01b03161480610bcc5750836001600160a01b0316610bc18461035c565b6001600160a01b0316145b80610bdc5750610bdc8185610932565b949350505050565b826001600160a01b0316610bf782610546565b6001600160a01b031614610c5f5760405162461bcd60e51b815260206004820152602960248201527f4552433732313a207472616e73666572206f6620746f6b656e2074686174206960448201526839903737ba1037bbb760b91b60648201526084016103c4565b6001600160a01b038216610cc15760405162461bcd60e51b8152602060048201526024808201527f4552433732313a207472616e7366657220746f20746865207a65726f206164646044820152637265737360e01b60648201526084016103c4565b610ccc600082610aac565b6001600160a01b0383166000908152600360205260408120805460019290610cf5908490611836565b90915550506001600160a01b0382166000908152600360205260408120805460019290610d239084906117eb565b909155505060008181526002602052604080822080546001600160a01b0319166001600160a01b038681169182179092559151849391871691600080516020611a8f83398151915291a4505050565b600780546001600160a01b038381166001600160a01b0319831681179093556040519116919082907f8be0079c531659141344cd1fd0a4f28419497f9722a3daafe3b4186f6b6457e090600090a35050565b610dcf848484610be4565b610ddb84848484611077565b6107905760405162461bcd60e51b81526004016103c490611713565b606081610e1b5750506040805180820190915260018152600360fc1b602082015290565b8160005b8115610e455780610e2f816118b4565b9150610e3e9050600a83611803565b9150610e1f565b6000816001600160401b03811115610e5f57610e5f611925565b6040519080825280601f01601f191660200182016040528015610e89576020820181803683370190505b5090505b8415610bdc57610e9e600183611836565b9150610eab600a866118cf565b610eb69060306117eb565b60f81b818381518110610ecb57610ecb61190f565b60200101906001600160f81b031916908160001a905350610eed600a86611803565b9450610e8d565b805160609080610f14575050604080516020810190915260008152919050565b60006003610f238360026117eb565b610f2d9190611803565b610f38906004611817565b90506000610f478260206117eb565b6001600160401b03811115610f5e57610f5e611925565b6040519080825280601f01601f191660200182016040528015610f88576020820181803683370190505b5090506000604051806060016040528060408152602001611a4f604091399050600181016020830160005b86811015611014576003818a01810151603f601282901c8116860151600c83901c8216870151600684901c831688015192909316870151600891821b60ff94851601821b92841692909201901b91160160e01b835260049092019101610fb3565b50600386066001811461102e576002811461103f5761104b565b613d3d60f01b60011983015261104b565b603d60f81b6000198301525b505050918152949350505050565b611073828260405180602001604052806000815250611184565b5050565b60006001600160a01b0384163b1561117957604051630a85bd0160e11b81526001600160a01b0385169063150b7a02906110bb9033908990889088906004016116c3565b602060405180830381600087803b1580156110d557600080fd5b505af1925050508015611105575060408051601f3d908101601f1916820190925261110291810190611509565b60015b61115f573d808015611133576040519150601f19603f3d011682016040523d82523d6000602084013e611138565b606091505b5080516111575760405162461bcd60e51b81526004016103c490611713565b805181602001fd5b6001600160e01b031916630a85bd0160e11b149050610bdc565b506001949350505050565b61118e83836111b7565b61119b6000848484611077565b6104f55760405162461bcd60e51b81526004016103c490611713565b6001600160a01b03821661120d5760405162461bcd60e51b815260206004820181905260248201527f4552433732313a206d696e7420746f20746865207a65726f206164647265737360448201526064016103c4565b61121681610a8f565b156112625760405162461bcd60e51b815260206004820152601c60248201527b115490cdcc8c4e881d1bdad95b88185b1c9958591e481b5a5b9d195960221b60448201526064016103c4565b6001600160a01b038216600090815260036020526040812080546001929061128b9084906117eb565b909155505060008181526002602052604080822080546001600160a01b0319166001600160a01b0386169081179091559051839290600080516020611a8f833981519152908290a45050565b60405180608001604052806004905b60608152602001906001900390816112e65790505090565b80356001600160a01b038116811461131557600080fd5b919050565b60006020828403121561132c57600080fd5b611335826112fe565b9392505050565b6000806040838503121561134f57600080fd5b611358836112fe565b9150611366602084016112fe565b90509250929050565b60008060006060848603121561138457600080fd5b61138d846112fe565b925061139b602085016112fe565b9150604084013590509250925092565b600080600080608085870312156113c157600080fd5b6113ca856112fe565b93506113d8602086016112fe565b92506040850135915060608501356001600160401b03808211156113fb57600080fd5b818701915087601f83011261140f57600080fd5b81358181111561142157611421611925565b604051601f8201601f19908116603f0116810190838211818310171561144957611449611925565b816040528281528a602084870101111561146257600080fd5b82602086016020830137600060208483010152809550505050505092959194509250565b6000806040838503121561149957600080fd5b6114a2836112fe565b9150602083013580151581146114b757600080fd5b809150509250929050565b600080604083850312156114d557600080fd5b6114de836112fe565b946020939093013593505050565b6000602082840312156114fe57600080fd5b81356113358161193b565b60006020828403121561151b57600080fd5b81516113358161193b565b60006020828403121561153857600080fd5b5035919050565b6000815180845261155781602086016020860161184d565b601f01601f19169290920160200192915050565b6000855161157d818460208a0161184d565b855190830190611591818360208a0161184d565b85519101906115a481836020890161184d565b84519101906115b781836020880161184d565b019695505050505050565b7203d913730b6b2911d101139bb339039ba30b91606d1b815282516000906115f181601385016020880161184d565b7f222c20226465736372697074696f6e223a20226a7573742061207374617221226013918401918201527f2c2022696d616765223a2022646174613a696d6167652f7376672b786d6c3b62603382015265185cd94d8d0b60d21b6053820152835161166381605984016020880161184d565b61227d60f01b60599290910191820152605b01949350505050565b7f646174613a6170706c69636174696f6e2f6a736f6e3b6261736536342c0000008152600082516116b681601d85016020870161184d565b91909101601d0192915050565b6001600160a01b03858116825284166020820152604081018390526080606082018190526000906116f69083018461153f565b9695505050505050565b602081526000611335602083018461153f565b60208082526032908201527f4552433732313a207472616e7366657220746f206e6f6e20455243373231526560408201527131b2b4bb32b91034b6b83632b6b2b73a32b960711b606082015260800190565b6020808252818101527f4f776e61626c653a2063616c6c6572206973206e6f7420746865206f776e6572604082015260600190565b60208082526031908201527f4552433732313a207472616e736665722063616c6c6572206973206e6f74206f6040820152701ddb995c881b9bdc88185c1c1c9bdd9959607a1b606082015260800190565b600082198211156117fe576117fe6118e3565b500190565b600082611812576118126118f9565b500490565b6000816000190483118215151615611831576118316118e3565b500290565b600082821015611848576118486118e3565b500390565b60005b83811015611868578181015183820152602001611850565b838111156107905750506000910152565b600181811c9082168061188d57607f821691505b602082108114156118ae57634e487b7160e01b600052602260045260246000fd5b50919050565b60006000198214156118c8576118c86118e3565b5060010190565b6000826118de576118de6118f9565b500690565b634e487b7160e01b600052601160045260246000fd5b634e487b7160e01b600052601260045260246000fd5b634e487b7160e01b600052603260045260246000fd5b634e487b7160e01b600052604160045260246000fd5b6001600160e01b0319811681146109fd57600080fdfe3c73766720786d6c6e733d22687474703a2f2f7777772e77332e6f72672f323030302f73766722207072657365727665417370656374526174696f3d22784d696e594d696e206d656574222076696577426f783d223020302033353020333530223e3c7374796c653e2e62617365207b2066696c6c3a2077686974653b20666f6e742d66616d696c793a2073657269663b20666f6e742d73697a653a20313470783b207d3c2f7374796c653e3c726563742077696474683d223130302522206865696768743d2231303025222066696c6c3d22677265656e22202f3e3c7465787420783d2231302220793d2232302220636c6173733d2262617365223e4142434445464748494a4b4c4d4e4f505152535455565758595a6162636465666768696a6b6c6d6e6f707172737475767778797a303132333435363738392b2fddf252ad1be2c89b69c2b068fc378daa952ba7f163c4a11628f55a4df523b3efa2646970667358221220355ed5599f4310feec0dde3102d6e87219b2f5ccaf0ca55340f9f4c64e1db84764736f6c63430008060033",
  "linkReferences": {},
  "deployedLinkReferences": {}
}